{
  "_format": "hh-sol-artifact-1",
  "contractName": "MarketAPI",
  "sourceName": "contracts/filecoinMockAPIs/MarketAPI.sol",
  "abi": [
    {
      "inputs": [],
      "stateMutability": "nonpayable",
      "type": "constructor"
    },
    {
      "inputs": [
        {
          "components": [
            {
              "internalType": "string",
              "name": "provider_or_client",
              "type": "string"
            }
          ],
          "internalType": "struct MarketTypes.AddBalanceParams",
          "name": "params",
          "type": "tuple"
        }
      ],
      "name": "add_balance",
      "outputs": [],
      "stateMutability": "payable",
      "type": "function"
    },
    {
      "inputs": [
        {
          "internalType": "string",
          "name": "addr",
          "type": "string"
        }
      ],
      "name": "get_balance",
      "outputs": [
        {
          "components": [
            {
              "internalType": "uint256",
              "name": "balance",
              "type": "uint256"
            },
            {
              "internalType": "uint256",
              "name": "locked",
              "type": "uint256"
            }
          ],
          "internalType": "struct MarketTypes.GetBalanceReturn",
          "name": "",
          "type": "tuple"
        }
      ],
      "stateMutability": "view",
      "type": "function"
    },
    {
      "inputs": [
        {
          "components": [
            {
              "internalType": "uint64",
              "name": "id",
              "type": "uint64"
            }
          ],
          "internalType": "struct MarketTypes.GetDealActivationParams",
          "name": "params",
          "type": "tuple"
        }
      ],
      "name": "get_deal_activation",
      "outputs": [
        {
          "components": [
            {
              "internalType": "int64",
              "name": "activated",
              "type": "int64"
            },
            {
              "internalType": "int64",
              "name": "terminated",
              "type": "int64"
            }
          ],
          "internalType": "struct MarketTypes.GetDealActivationReturn",
          "name": "",
          "type": "tuple"
        }
      ],
      "stateMutability": "view",
      "type": "function"
    },
    {
      "inputs": [
        {
          "components": [
            {
              "internalType": "uint64",
              "name": "id",
              "type": "uint64"
            }
          ],
          "internalType": "struct MarketTypes.GetDealClientParams",
          "name": "params",
          "type": "tuple"
        }
      ],
      "name": "get_deal_client",
      "outputs": [
        {
          "components": [
            {
              "internalType": "string",
              "name": "client",
              "type": "string"
            }
          ],
          "internalType": "struct MarketTypes.GetDealClientReturn",
          "name": "",
          "type": "tuple"
        }
      ],
      "stateMutability": "view",
      "type": "function"
    },
    {
      "inputs": [
        {
          "components": [
            {
              "internalType": "uint64",
              "name": "id",
              "type": "uint64"
            }
          ],
          "internalType": "struct MarketTypes.GetDealClientCollateralParams",
          "name": "params",
          "type": "tuple"
        }
      ],
      "name": "get_deal_client_collateral",
      "outputs": [
        {
          "components": [
            {
              "internalType": "uint256",
              "name": "collateral",
              "type": "uint256"
            }
          ],
          "internalType": "struct MarketTypes.GetDealClientCollateralReturn",
          "name": "",
          "type": "tuple"
        }
      ],
      "stateMutability": "view",
      "type": "function"
    },
    {
      "inputs": [
        {
          "components": [
            {
              "internalType": "uint64",
              "name": "id",
              "type": "uint64"
            }
          ],
          "internalType": "struct MarketTypes.GetDealDataCommitmentParams",
          "name": "params",
          "type": "tuple"
        }
      ],
      "name": "get_deal_data_commitment",
      "outputs": [
        {
          "components": [
            {
              "internalType": "bytes",
              "name": "data",
              "type": "bytes"
            },
            {
              "internalType": "uint64",
              "name": "size",
              "type": "uint64"
            }
          ],
          "internalType": "struct MarketTypes.GetDealDataCommitmentReturn",
          "name": "",
          "type": "tuple"
        }
      ],
      "stateMutability": "view",
      "type": "function"
    },
    {
      "inputs": [
        {
          "components": [
            {
              "internalType": "uint64",
              "name": "id",
              "type": "uint64"
            }
          ],
          "internalType": "struct MarketTypes.GetDealLabelParams",
          "name": "params",
          "type": "tuple"
        }
      ],
      "name": "get_deal_label",
      "outputs": [
        {
          "components": [
            {
              "internalType": "string",
              "name": "label",
              "type": "string"
            }
          ],
          "internalType": "struct MarketTypes.GetDealLabelReturn",
          "name": "",
          "type": "tuple"
        }
      ],
      "stateMutability": "view",
      "type": "function"
    },
    {
      "inputs": [
        {
          "components": [
            {
              "internalType": "uint64",
              "name": "id",
              "type": "uint64"
            }
          ],
          "internalType": "struct MarketTypes.GetDealProviderParams",
          "name": "params",
          "type": "tuple"
        }
      ],
      "name": "get_deal_provider",
      "outputs": [
        {
          "components": [
            {
              "internalType": "string",
              "name": "provider",
              "type": "string"
            }
          ],
          "internalType": "struct MarketTypes.GetDealProviderReturn",
          "name": "",
          "type": "tuple"
        }
      ],
      "stateMutability": "view",
      "type": "function"
    },
    {
      "inputs": [
        {
          "components": [
            {
              "internalType": "uint64",
              "name": "id",
              "type": "uint64"
            }
          ],
          "internalType": "struct MarketTypes.GetDealProviderCollateralParams",
          "name": "params",
          "type": "tuple"
        }
      ],
      "name": "get_deal_provider_collateral",
      "outputs": [
        {
          "components": [
            {
              "internalType": "uint256",
              "name": "collateral",
              "type": "uint256"
            }
          ],
          "internalType": "struct MarketTypes.GetDealProviderCollateralReturn",
          "name": "",
          "type": "tuple"
        }
      ],
      "stateMutability": "view",
      "type": "function"
    },
    {
      "inputs": [
        {
          "components": [
            {
              "internalType": "uint64",
              "name": "id",
              "type": "uint64"
            }
          ],
          "internalType": "struct MarketTypes.GetDealTermParams",
          "name": "params",
          "type": "tuple"
        }
      ],
      "name": "get_deal_term",
      "outputs": [
        {
          "components": [
            {
              "internalType": "int64",
              "name": "start",
              "type": "int64"
            },
            {
              "internalType": "int64",
              "name": "end",
              "type": "int64"
            }
          ],
          "internalType": "struct MarketTypes.GetDealTermReturn",
          "name": "",
          "type": "tuple"
        }
      ],
      "stateMutability": "view",
      "type": "function"
    },
    {
      "inputs": [
        {
          "components": [
            {
              "internalType": "uint64",
              "name": "id",
              "type": "uint64"
            }
          ],
          "internalType": "struct MarketTypes.GetDealEpochPriceParams",
          "name": "params",
          "type": "tuple"
        }
      ],
      "name": "get_deal_total_price",
      "outputs": [
        {
          "components": [
            {
              "internalType": "uint256",
              "name": "price_per_epoch",
              "type": "uint256"
            }
          ],
          "internalType": "struct MarketTypes.GetDealEpochPriceReturn",
          "name": "",
          "type": "tuple"
        }
      ],
      "stateMutability": "view",
      "type": "function"
    },
    {
      "inputs": [
        {
          "components": [
            {
              "internalType": "uint64",
              "name": "id",
              "type": "uint64"
            }
          ],
          "internalType": "struct MarketTypes.GetDealVerifiedParams",
          "name": "params",
          "type": "tuple"
        }
      ],
      "name": "get_deal_verified",
      "outputs": [
        {
          "components": [
            {
              "internalType": "bool",
              "name": "verified",
              "type": "bool"
            }
          ],
          "internalType": "struct MarketTypes.GetDealVerifiedReturn",
          "name": "",
          "type": "tuple"
        }
      ],
      "stateMutability": "view",
      "type": "function"
    },
    {
      "inputs": [
        {
          "internalType": "bytes",
          "name": "raw_auth_params",
          "type": "bytes"
        },
        {
          "internalType": "address",
          "name": "callee",
          "type": "address"
        }
      ],
      "name": "publish_storage_deals",
      "outputs": [],
      "stateMutability": "nonpayable",
      "type": "function"
    },
    {
      "inputs": [
        {
          "components": [
            {
              "internalType": "string",
              "name": "provider_or_client",
              "type": "string"
            },
            {
              "internalType": "uint256",
              "name": "tokenAmount",
              "type": "uint256"
            }
          ],
          "internalType": "struct MarketTypes.WithdrawBalanceParams",
          "name": "params",
          "type": "tuple"
        }
      ],
      "name": "withdraw_balance",
      "outputs": [
        {
          "components": [
            {
              "internalType": "uint256",
              "name": "amount_withdrawn",
              "type": "uint256"
            }
          ],
          "internalType": "struct MarketTypes.WithdrawBalanceReturn",
          "name": "",
          "type": "tuple"
        }
      ],
      "stateMutability": "nonpayable",
      "type": "function"
    }
  ],
  "bytecode": "0x60806040523480156200001157600080fd5b50620000226200002860201b60201c565b62000580565b62000032620003da565b6043816000019067ffffffffffffffff16908167ffffffffffffffff16815250506040518060600160405280604081526020016200269a60409139816020018190525062800000816040019067ffffffffffffffff16908167ffffffffffffffff168152505060008160600190151590811515815250506040518060400160405280600681526020017f743031313039000000000000000000000000000000000000000000000000000081525081608001819052506040518060400160405280600681526020017f74303131313300000000000000000000000000000000000000000000000000008152508160a00181905250604051806060016040528060348152602001620026da603491398160c0018190525061629d8160e0019060070b908160070b815250506208517e81610100019060070b908160070b815250506501001d1bf80081610120018181525050600081610140018181525050600081610160018181525050600181610180019060070b908160070b815250506000816101a0019060070b908160070b815250508060016000836000015167ffffffffffffffff1667ffffffffffffffff16815260200190815260200160002060008201518160000160006101000a81548167ffffffffffffffff021916908367ffffffffffffffff16021790555060208201518160010190805190602001906200023b9291906200046b565b5060408201518160020160006101000a81548167ffffffffffffffff021916908367ffffffffffffffff16021790555060608201518160020160086101000a81548160ff0219169083151502179055506080820151816003019080519060200190620002a99291906200046b565b5060a0820151816004019080519060200190620002c89291906200046b565b5060c0820151816005019080519060200190620002e79291906200046b565b5060e08201518160060160006101000a81548167ffffffffffffffff021916908360070b67ffffffffffffffff1602179055506101008201518160060160086101000a81548167ffffffffffffffff021916908360070b67ffffffffffffffff16021790555061012082015181600701556101408201518160080155610160820151816009015561018082015181600a0160006101000a81548167ffffffffffffffff021916908360070b67ffffffffffffffff1602179055506101a082015181600a0160086101000a81548167ffffffffffffffff021916908360070b67ffffffffffffffff16021790555090505050565b604051806101c00160405280600067ffffffffffffffff16815260200160608152602001600067ffffffffffffffff168152602001600015158152602001606081526020016060815260200160608152602001600060070b8152602001600060070b8152602001600081526020016000815260200160008152602001600060070b8152602001600060070b81525090565b82805462000479906200051b565b90600052602060002090601f0160209004810192826200049d5760008555620004e9565b82601f10620004b857805160ff1916838001178555620004e9565b82800160010185558215620004e9579182015b82811115620004e8578251825591602001919060010190620004cb565b5b509050620004f89190620004fc565b5090565b5b8082111562000517576000816000905550600101620004fd565b5090565b600060028204905060018216806200053457607f821691505b602082108114156200054b576200054a62000551565b5b50919050565b7f4e487b7100000000000000000000000000000000000000000000000000000000600052602260045260246000fd5b61210a80620005906000396000f3fe6080604052600436106100dd5760003560e01c80638777b7c81161007f5780639f4b7c7d116100595780639f4b7c7d14610330578063ad36f1841461036d578063ebf66ef1146103aa578063f241560c146103c6576100dd565b80638777b7c8146102795780638b7f02fd146102b6578063991e04a4146102f3576100dd565b8063412a4b9a116100bb578063412a4b9a1461018557806355d95609146101c25780635c4ddef3146101ff57806365a9b4a01461023c576100dd565b806313178dc1146100e25780631a2811e71461011f578063344096421461015c575b600080fd5b3480156100ee57600080fd5b5061010960048036038101906101049190611747565b610403565b6040516101169190611cb7565b60405180910390f35b34801561012b57600080fd5b50610146600480360381019061014191906116a3565b6104e6565b6040516101539190611c44565b60405180910390f35b34801561016857600080fd5b50610183600480360381019061017e91906114d7565b61058b565b005b34801561019157600080fd5b506101ac60048036038101906101a79190611651565b6106d3565b6040516101b99190611c07565b60405180910390f35b3480156101ce57600080fd5b506101e960048036038101906101e491906116cc565b610778565b6040516101f69190611c5f565b60405180910390f35b34801561020b57600080fd5b506102266004803603810190610221919061171e565b6108a5565b6040516102339190611c9c565b60405180910390f35b34801561024857600080fd5b50610263600480360381019061025e919061152b565b610959565b6040516102709190611b72565b60405180910390f35b34801561028557600080fd5b506102a0600480360381019061029b91906115d6565b6109a1565b6040516102ad9190611ba8565b60405180910390f35b3480156102c257600080fd5b506102dd60048036038101906102d891906115ff565b610a46565b6040516102ea9190611bc3565b60405180910390f35b3480156102ff57600080fd5b5061031a60048036038101906103159190611628565b610b73565b6040516103279190611be5565b60405180910390f35b34801561033c57600080fd5b506103576004803603810190610352919061167a565b610c71565b6040516103649190611c22565b60405180910390f35b34801561037957600080fd5b50610394600480360381019061038f91906116f5565b610d9e565b6040516103a19190611c81565b60405180910390f35b6103c460048036038101906103bf919061156c565b610e97565b005b3480156103d257600080fd5b506103ed60048036038101906103e891906115ad565b610ed3565b6040516103fa9190611b8d565b60405180910390f35b61040b610fcc565b60008083600001516040516104209190611afd565b908152602001604051809103902054905082602001516000846000015160405161044a9190611afd565b908152602001604051809103902054106104a7578260200151600084600001516040516104779190611afd565b908152602001604051809103902060008282546104949190611e1f565b92505081905550826020015190506104cf565b60008084600001516040516104bc9190611afd565b9081526020016040518091039020819055505b604051806020016040528082815250915050919050565b6104ee610fdf565b600060016000846000015167ffffffffffffffff1667ffffffffffffffff16815260200190815260200160002060000160009054906101000a900467ffffffffffffffff1667ffffffffffffffff161161054757600080fd5b604051806020016040528060016000856000015167ffffffffffffffff1667ffffffffffffffff168152602001908152602001600020600801548152509050919050565b60008173ffffffffffffffffffffffffffffffffffffffff166000639d8b0678856040516024016105be93929190611b14565b6040516020818303038152906040527f868e10c4000000000000000000000000000000000000000000000000000000007bffffffffffffffffffffffffffffffffffffffffffffffffffffffff19166020820180517bffffffffffffffffffffffffffffffffffffffffffffffffffffffff83818316178352505050506040516106489190611ae6565b6000604051808303816000865af19150503d8060008114610685576040519150601f19603f3d011682016040523d82523d6000602084013e61068a565b606091505b50509050806106ce576040517f08c379a00000000000000000000000000000000000000000000000000000000081526004016106c590611b52565b60405180910390fd5b505050565b6106db610ff2565b600060016000846000015167ffffffffffffffff1667ffffffffffffffff16815260200190815260200160002060000160009054906101000a900467ffffffffffffffff1667ffffffffffffffff161161073457600080fd5b604051806020016040528060016000856000015167ffffffffffffffff1667ffffffffffffffff168152602001908152602001600020600701548152509050919050565b610780611005565b600060016000846000015167ffffffffffffffff1667ffffffffffffffff16815260200190815260200160002060000160009054906101000a900467ffffffffffffffff1667ffffffffffffffff16116107d957600080fd5b604051806020016040528060016000856000015167ffffffffffffffff1667ffffffffffffffff168152602001908152602001600020600401805461081d90611f3f565b80601f016020809104026020016040519081016040528092919081815260200182805461084990611f3f565b80156108965780601f1061086b57610100808354040283529160200191610896565b820191906000526020600020905b81548152906001019060200180831161087957829003601f168201915b50505050508152509050919050565b6108ad611018565b600060016000846000015167ffffffffffffffff1667ffffffffffffffff16815260200190815260200160002060000160009054906101000a900467ffffffffffffffff1667ffffffffffffffff161161090657600080fd5b604051806020016040528060016000856000015167ffffffffffffffff1667ffffffffffffffff16815260200190815260200160002060020160089054906101000a900460ff1615158152509050919050565b61096161102d565b600080836040516109729190611afd565b908152602001604051809103902054905060405180604001604052808281526020016000815250915050919050565b6109a9611047565b600060016000846000015167ffffffffffffffff1667ffffffffffffffff16815260200190815260200160002060000160009054906101000a900467ffffffffffffffff1667ffffffffffffffff1611610a0257600080fd5b604051806020016040528060016000856000015167ffffffffffffffff1667ffffffffffffffff168152602001908152602001600020600901548152509050919050565b610a4e61105a565b600060016000846000015167ffffffffffffffff1667ffffffffffffffff16815260200190815260200160002060000160009054906101000a900467ffffffffffffffff1667ffffffffffffffff1611610aa757600080fd5b604051806020016040528060016000856000015167ffffffffffffffff1667ffffffffffffffff1681526020019081526020016000206003018054610aeb90611f3f565b80601f0160208091040260200160405190810160405280929190818152602001828054610b1790611f3f565b8015610b645780601f10610b3957610100808354040283529160200191610b64565b820191906000526020600020905b815481529060010190602001808311610b4757829003601f168201915b50505050508152509050919050565b610b7b61106d565b600060016000846000015167ffffffffffffffff1667ffffffffffffffff16815260200190815260200160002060000160009054906101000a900467ffffffffffffffff1667ffffffffffffffff1611610bd457600080fd5b60405180604001604052806040518060400160405280600881526020017f3078313131313131000000000000000000000000000000000000000000000000815250815260200160016000856000015167ffffffffffffffff1667ffffffffffffffff16815260200190815260200160002060020160009054906101000a900467ffffffffffffffff1667ffffffffffffffff168152509050919050565b610c79611091565b600060016000846000015167ffffffffffffffff1667ffffffffffffffff16815260200190815260200160002060000160009054906101000a900467ffffffffffffffff1667ffffffffffffffff1611610cd257600080fd5b604051806020016040528060016000856000015167ffffffffffffffff1667ffffffffffffffff1681526020019081526020016000206005018054610d1690611f3f565b80601f0160208091040260200160405190810160405280929190818152602001828054610d4290611f3f565b8015610d8f5780601f10610d6457610100808354040283529160200191610d8f565b820191906000526020600020905b815481529060010190602001808311610d7257829003601f168201915b50505050508152509050919050565b610da66110a4565b600060016000846000015167ffffffffffffffff1667ffffffffffffffff16815260200190815260200160002060000160009054906101000a900467ffffffffffffffff1667ffffffffffffffff1611610dff57600080fd5b604051806040016040528060016000856000015167ffffffffffffffff1667ffffffffffffffff16815260200190815260200160002060060160009054906101000a900460070b60070b815260200160016000856000015167ffffffffffffffff1667ffffffffffffffff16815260200190815260200160002060060160089054906101000a900460070b60070b8152509050919050565b3460008260000151604051610eac9190611afd565b90815260200160405180910390206000828254610ec99190611dc9565b9250508190555050565b610edb6110c4565b600060016000846000015167ffffffffffffffff1667ffffffffffffffff16815260200190815260200160002060000160009054906101000a900467ffffffffffffffff1667ffffffffffffffff1611610f3457600080fd5b604051806040016040528060016000856000015167ffffffffffffffff1667ffffffffffffffff168152602001908152602001600020600a0160009054906101000a900460070b60070b815260200160016000856000015167ffffffffffffffff1667ffffffffffffffff168152602001908152602001600020600a0160089054906101000a900460070b60070b8152509050919050565b6040518060200160405280600081525090565b6040518060200160405280600081525090565b6040518060200160405280600081525090565b6040518060200160405280606081525090565b60405180602001604052806000151581525090565b604051806040016040528060008152602001600081525090565b6040518060200160405280600081525090565b6040518060200160405280606081525090565b604051806040016040528060608152602001600067ffffffffffffffff1681525090565b6040518060200160405280606081525090565b6040518060400160405280600060070b8152602001600060070b81525090565b6040518060400160405280600060070b8152602001600060070b81525090565b60006110f76110f284611cf7565b611cd2565b90508281526020810184848401111561110f57600080fd5b61111a848285611efd565b509392505050565b600061113561113084611d28565b611cd2565b90508281526020810184848401111561114d57600080fd5b611158848285611efd565b509392505050565b60008135905061116f8161208f565b92915050565b600082601f83011261118657600080fd5b81356111968482602086016110e4565b91505092915050565b600082601f8301126111b057600080fd5b81356111c0848260208601611122565b91505092915050565b6000602082840312156111db57600080fd5b6111e56020611cd2565b9050600082013567ffffffffffffffff81111561120157600080fd5b61120d8482850161119f565b60008301525092915050565b60006020828403121561122b57600080fd5b6112356020611cd2565b90506000611245848285016114c2565b60008301525092915050565b60006020828403121561126357600080fd5b61126d6020611cd2565b9050600061127d848285016114c2565b60008301525092915050565b60006020828403121561129b57600080fd5b6112a56020611cd2565b905060006112b5848285016114c2565b60008301525092915050565b6000602082840312156112d357600080fd5b6112dd6020611cd2565b905060006112ed848285016114c2565b60008301525092915050565b60006020828403121561130b57600080fd5b6113156020611cd2565b90506000611325848285016114c2565b60008301525092915050565b60006020828403121561134357600080fd5b61134d6020611cd2565b9050600061135d848285016114c2565b60008301525092915050565b60006020828403121561137b57600080fd5b6113856020611cd2565b90506000611395848285016114c2565b60008301525092915050565b6000602082840312156113b357600080fd5b6113bd6020611cd2565b905060006113cd848285016114c2565b60008301525092915050565b6000602082840312156113eb57600080fd5b6113f56020611cd2565b90506000611405848285016114c2565b60008301525092915050565b60006020828403121561142357600080fd5b61142d6020611cd2565b9050600061143d848285016114c2565b60008301525092915050565b60006040828403121561145b57600080fd5b6114656040611cd2565b9050600082013567ffffffffffffffff81111561148157600080fd5b61148d8482850161119f565b60008301525060206114a1848285016114ad565b60208301525092915050565b6000813590506114bc816120a6565b92915050565b6000813590506114d1816120bd565b92915050565b600080604083850312156114ea57600080fd5b600083013567ffffffffffffffff81111561150457600080fd5b61151085828601611175565b925050602061152185828601611160565b9150509250929050565b60006020828403121561153d57600080fd5b600082013567ffffffffffffffff81111561155757600080fd5b6115638482850161119f565b91505092915050565b60006020828403121561157e57600080fd5b600082013567ffffffffffffffff81111561159857600080fd5b6115a4848285016111c9565b91505092915050565b6000602082840312156115bf57600080fd5b60006115cd84828501611219565b91505092915050565b6000602082840312156115e857600080fd5b60006115f684828501611251565b91505092915050565b60006020828403121561161157600080fd5b600061161f84828501611289565b91505092915050565b60006020828403121561163a57600080fd5b6000611648848285016112c1565b91505092915050565b60006020828403121561166357600080fd5b6000611671848285016112f9565b91505092915050565b60006020828403121561168c57600080fd5b600061169a84828501611331565b91505092915050565b6000602082840312156116b557600080fd5b60006116c384828501611369565b91505092915050565b6000602082840312156116de57600080fd5b60006116ec848285016113a1565b91505092915050565b60006020828403121561170757600080fd5b6000611715848285016113d9565b91505092915050565b60006020828403121561173057600080fd5b600061173e84828501611411565b91505092915050565b60006020828403121561175957600080fd5b600082013567ffffffffffffffff81111561177357600080fd5b61177f84828501611449565b91505092915050565b61179181611e65565b82525050565b60006117a282611d59565b6117ac8185611d6f565b93506117bc818560208601611f0c565b6117c58161202f565b840191505092915050565b60006117db82611d59565b6117e58185611d80565b93506117f5818560208601611f0c565b6117fe8161202f565b840191505092915050565b600061181482611d59565b61181e8185611d91565b935061182e818560208601611f0c565b80840191505092915050565b61184381611e71565b82525050565b61185281611ed9565b82525050565b61186181611eeb565b82525050565b600061187282611d64565b61187c8185611d9c565b935061188c818560208601611f0c565b6118958161202f565b840191505092915050565b60006118ab82611d64565b6118b58185611dbe565b93506118c5818560208601611f0c565b80840191505092915050565b60006118de603083611dad565b91506118e982612040565b604082019050919050565b60408201600082015161190a6000850182611ac8565b50602082015161191d6020850182611ac8565b50505050565b604082016000820151611939600085018261183a565b50602082015161194c602085018261183a565b50505050565b6020820160008201516119686000850182611ac8565b50505050565b6000602083016000830151848203600086015261198b8282611867565b9150508091505092915050565b600060408301600083015184820360008601526119b58282611797565b91505060208301516119ca6020860182611ad7565b508091505092915050565b6020820160008201516119eb6000850182611ac8565b50505050565b60006020830160008301518482036000860152611a0e8282611867565b9150508091505092915050565b602082016000820151611a316000850182611ac8565b50505050565b60006020830160008301518482036000860152611a548282611867565b9150508091505092915050565b604082016000820151611a77600085018261183a565b506020820151611a8a602085018261183a565b50505050565b602082016000820151611aa66000850182611788565b50505050565b602082016000820151611ac26000850182611ac8565b50505050565b611ad181611e9e565b82525050565b611ae081611eb8565b82525050565b6000611af28284611809565b915081905092915050565b6000611b0982846118a0565b915081905092915050565b6000606082019050611b296000830186611849565b611b366020830185611858565b8181036040830152611b4881846117d0565b9050949350505050565b60006020820190508181036000830152611b6b816118d1565b9050919050565b6000604082019050611b8760008301846118f4565b92915050565b6000604082019050611ba26000830184611923565b92915050565b6000602082019050611bbd6000830184611952565b92915050565b60006020820190508181036000830152611bdd818461196e565b905092915050565b60006020820190508181036000830152611bff8184611998565b905092915050565b6000602082019050611c1c60008301846119d5565b92915050565b60006020820190508181036000830152611c3c81846119f1565b905092915050565b6000602082019050611c596000830184611a1b565b92915050565b60006020820190508181036000830152611c798184611a37565b905092915050565b6000604082019050611c966000830184611a61565b92915050565b6000602082019050611cb16000830184611a90565b92915050565b6000602082019050611ccc6000830184611aac565b92915050565b6000611cdc611ced565b9050611ce88282611f71565b919050565b6000604051905090565b600067ffffffffffffffff821115611d1257611d11612000565b5b611d1b8261202f565b9050602081019050919050565b600067ffffffffffffffff821115611d4357611d42612000565b5b611d4c8261202f565b9050602081019050919050565b600081519050919050565b600081519050919050565b600082825260208201905092915050565b600082825260208201905092915050565b600081905092915050565b600082825260208201905092915050565b600082825260208201905092915050565b600081905092915050565b6000611dd482611e9e565b9150611ddf83611e9e565b9250827fffffffffffffffffffffffffffffffffffffffffffffffffffffffffffffffff03821115611e1457611e13611fa2565b5b828201905092915050565b6000611e2a82611e9e565b9150611e3583611e9e565b925082821015611e4857611e47611fa2565b5b828203905092915050565b6000611e5e82611e7e565b9050919050565b60008115159050919050565b60008160070b9050919050565b600073ffffffffffffffffffffffffffffffffffffffff82169050919050565b6000819050919050565b600063ffffffff82169050919050565b600067ffffffffffffffff82169050919050565b600060ff82169050919050565b6000611ee482611ecc565b9050919050565b6000611ef682611ea8565b9050919050565b82818337600083830152505050565b60005b83811015611f2a578082015181840152602081019050611f0f565b83811115611f39576000848401525b50505050565b60006002820490506001821680611f5757607f821691505b60208210811415611f6b57611f6a611fd1565b5b50919050565b611f7a8261202f565b810181811067ffffffffffffffff82111715611f9957611f98612000565b5b80604052505050565b7f4e487b7100000000000000000000000000000000000000000000000000000000600052601160045260246000fd5b7f4e487b7100000000000000000000000000000000000000000000000000000000600052602260045260246000fd5b7f4e487b7100000000000000000000000000000000000000000000000000000000600052604160045260246000fd5b6000601f19601f8301169050919050565b7f636c69656e7420636f6e7472616374206661696c656420746f20617574686f7260008201527f697a65206465616c207075626c69736800000000000000000000000000000000602082015250565b61209881611e53565b81146120a357600080fd5b50565b6120af81611e9e565b81146120ba57600080fd5b50565b6120c681611eb8565b81146120d157600080fd5b5056fea2646970667358221220f1a59ac2ec0d6a814e51ec81cbf8bbbbd7fabb110c2a6c7ff37c88c97500b67564736f6c634300080400336261676136656134736561716c6b67366d737335717335366a7174616a673579637268706b6a326236366367646b756b6632716a6d6d7a7a3661796b737563696d41584367354149673859425862466a7464427931695a6a704459417752537430656c474c463547765471756c4569693156634d",
  "linkReferences": {},
  "deployedLinkReferences": {}
}