{"contracts/filecoinMockAPIs/MarketAPI.sol":{"MarketAPI":{"abi":[{"inputs":[],"stateMutability":"nonpayable","type":"constructor"},{"inputs":[{"components":[{"internalType":"string","name":"provider_or_client","type":"string"}],"internalType":"struct MarketTypes.AddBalanceParams","name":"params","type":"tuple"}],"name":"add_balance","outputs":[],"stateMutability":"payable","type":"function"},{"inputs":[{"internalType":"string","name":"addr","type":"string"}],"name":"get_balance","outputs":[{"components":[{"internalType":"uint256","name":"balance","type":"uint256"},{"internalType":"uint256","name":"locked","type":"uint256"}],"internalType":"struct MarketTypes.GetBalanceReturn","name":"","type":"tuple"}],"stateMutability":"view","type":"function"},{"inputs":[{"components":[{"internalType":"uint64","name":"id","type":"uint64"}],"internalType":"struct MarketTypes.GetDealActivationParams","name":"params","type":"tuple"}],"name":"get_deal_activation","outputs":[{"components":[{"internalType":"int64","name":"activated","type":"int64"},{"internalType":"int64","name":"terminated","type":"int64"}],"internalType":"struct MarketTypes.GetDealActivationReturn","name":"","type":"tuple"}],"stateMutability":"view","type":"function"},{"inputs":[{"components":[{"internalType":"uint64","name":"id","type":"uint64"}],"internalType":"struct MarketTypes.GetDealClientParams","name":"params","type":"tuple"}],"name":"get_deal_client","outputs":[{"components":[{"internalType":"string","name":"client","type":"string"}],"internalType":"struct MarketTypes.GetDealClientReturn","name":"","type":"tuple"}],"stateMutability":"view","type":"function"},{"inputs":[{"components":[{"internalType":"uint64","name":"id","type":"uint64"}],"internalType":"struct MarketTypes.GetDealClientCollateralParams","name":"params","type":"tuple"}],"name":"get_deal_client_collateral","outputs":[{"components":[{"internalType":"uint256","name":"collateral","type":"uint256"}],"internalType":"struct MarketTypes.GetDealClientCollateralReturn","name":"","type":"tuple"}],"stateMutability":"view","type":"function"},{"inputs":[{"components":[{"internalType":"uint64","name":"id","type":"uint64"}],"internalType":"struct MarketTypes.GetDealDataCommitmentParams","name":"params","type":"tuple"}],"name":"get_deal_data_commitment","outputs":[{"components":[{"internalType":"bytes","name":"data","type":"bytes"},{"internalType":"uint64","name":"size","type":"uint64"}],"internalType":"struct MarketTypes.GetDealDataCommitmentReturn","name":"","type":"tuple"}],"stateMutability":"view","type":"function"},{"inputs":[{"components":[{"internalType":"uint64","name":"id","type":"uint64"}],"internalType":"struct MarketTypes.GetDealLabelParams","name":"params","type":"tuple"}],"name":"get_deal_label","outputs":[{"components":[{"internalType":"string","name":"label","type":"string"}],"internalType":"struct MarketTypes.GetDealLabelReturn","name":"","type":"tuple"}],"stateMutability":"view","type":"function"},{"inputs":[{"components":[{"internalType":"uint64","name":"id","type":"uint64"}],"internalType":"struct MarketTypes.GetDealProviderParams","name":"params","type":"tuple"}],"name":"get_deal_provider","outputs":[{"components":[{"internalType":"string","name":"provider","type":"string"}],"internalType":"struct MarketTypes.GetDealProviderReturn","name":"","type":"tuple"}],"stateMutability":"view","type":"function"},{"inputs":[{"components":[{"internalType":"uint64","name":"id","type":"uint64"}],"internalType":"struct MarketTypes.GetDealProviderCollateralParams","name":"params","type":"tuple"}],"name":"get_deal_provider_collateral","outputs":[{"components":[{"internalType":"uint256","name":"collateral","type":"uint256"}],"internalType":"struct MarketTypes.GetDealProviderCollateralReturn","name":"","type":"tuple"}],"stateMutability":"view","type":"function"},{"inputs":[{"components":[{"internalType":"uint64","name":"id","type":"uint64"}],"internalType":"struct MarketTypes.GetDealTermParams","name":"params","type":"tuple"}],"name":"get_deal_term","outputs":[{"components":[{"internalType":"int64","name":"start","type":"int64"},{"internalType":"int64","name":"end","type":"int64"}],"internalType":"struct MarketTypes.GetDealTermReturn","name":"","type":"tuple"}],"stateMutability":"view","type":"function"},{"inputs":[{"components":[{"internalType":"uint64","name":"id","type":"uint64"}],"internalType":"struct MarketTypes.GetDealEpochPriceParams","name":"params","type":"tuple"}],"name":"get_deal_total_price","outputs":[{"components":[{"internalType":"uint256","name":"price_per_epoch","type":"uint256"}],"internalType":"struct MarketTypes.GetDealEpochPriceReturn","name":"","type":"tuple"}],"stateMutability":"view","type":"function"},{"inputs":[{"components":[{"internalType":"uint64","name":"id","type":"uint64"}],"internalType":"struct MarketTypes.GetDealVerifiedParams","name":"params","type":"tuple"}],"name":"get_deal_verified","outputs":[{"components":[{"internalType":"bool","name":"verified","type":"bool"}],"internalType":"struct MarketTypes.GetDealVerifiedReturn","name":"","type":"tuple"}],"stateMutability":"view","type":"function"},{"inputs":[{"internalType":"bytes","name":"raw_auth_params","type":"bytes"},{"internalType":"address","name":"callee","type":"address"}],"name":"publish_storage_deals","outputs":[],"stateMutability":"nonpayable","type":"function"},{"inputs":[{"components":[{"internalType":"string","name":"provider_or_client","type":"string"},{"internalType":"uint256","name":"tokenAmount","type":"uint256"}],"internalType":"struct MarketTypes.WithdrawBalanceParams","name":"params","type":"tuple"}],"name":"withdraw_balance","outputs":[{"components":[{"internalType":"uint256","name":"amount_withdrawn","type":"uint256"}],"internalType":"struct MarketTypes.WithdrawBalanceReturn","name":"","type":"tuple"}],"stateMutability":"nonpayable","type":"function"}],"evm":{"bytecode":{"linkReferences":{},"object":"60806040523480156200001157600080fd5b50620000226200002860201b60201c565b62000580565b62000032620003da565b6043816000019067ffffffffffffffff16908167ffffffffffffffff16815250506040518060600160405280604081526020016200269a60409139816020018190525062800000816040019067ffffffffffffffff16908167ffffffffffffffff168152505060008160600190151590811515815250506040518060400160405280600681526020017f743031313039000000000000000000000000000000000000000000000000000081525081608001819052506040518060400160405280600681526020017f74303131313300000000000000000000000000000000000000000000000000008152508160a00181905250604051806060016040528060348152602001620026da603491398160c0018190525061629d8160e0019060070b908160070b815250506208517e81610100019060070b908160070b815250506501001d1bf80081610120018181525050600081610140018181525050600081610160018181525050600181610180019060070b908160070b815250506000816101a0019060070b908160070b815250508060016000836000015167ffffffffffffffff1667ffffffffffffffff16815260200190815260200160002060008201518160000160006101000a81548167ffffffffffffffff021916908367ffffffffffffffff16021790555060208201518160010190805190602001906200023b9291906200046b565b5060408201518160020160006101000a81548167ffffffffffffffff021916908367ffffffffffffffff16021790555060608201518160020160086101000a81548160ff0219169083151502179055506080820151816003019080519060200190620002a99291906200046b565b5060a0820151816004019080519060200190620002c89291906200046b565b5060c0820151816005019080519060200190620002e79291906200046b565b5060e08201518160060160006101000a81548167ffffffffffffffff021916908360070b67ffffffffffffffff1602179055506101008201518160060160086101000a81548167ffffffffffffffff021916908360070b67ffffffffffffffff16021790555061012082015181600701556101408201518160080155610160820151816009015561018082015181600a0160006101000a81548167ffffffffffffffff021916908360070b67ffffffffffffffff1602179055506101a082015181600a0160086101000a81548167ffffffffffffffff021916908360070b67ffffffffffffffff16021790555090505050565b604051806101c00160405280600067ffffffffffffffff16815260200160608152602001600067ffffffffffffffff168152602001600015158152602001606081526020016060815260200160608152602001600060070b8152602001600060070b8152602001600081526020016000815260200160008152602001600060070b8152602001600060070b81525090565b82805462000479906200051b565b90600052602060002090601f0160209004810192826200049d5760008555620004e9565b82601f10620004b857805160ff1916838001178555620004e9565b82800160010185558215620004e9579182015b82811115620004e8578251825591602001919060010190620004cb565b5b509050620004f89190620004fc565b5090565b5b8082111562000517576000816000905550600101620004fd565b5090565b600060028204905060018216806200053457607f821691505b602082108114156200054b576200054a62000551565b5b50919050565b7f4e487b7100000000000000000000000000000000000000000000000000000000600052602260045260246000fd5b61210a80620005906000396000f3fe6080604052600436106100dd5760003560e01c80638777b7c81161007f5780639f4b7c7d116100595780639f4b7c7d14610330578063ad36f1841461036d578063ebf66ef1146103aa578063f241560c146103c6576100dd565b80638777b7c8146102795780638b7f02fd146102b6578063991e04a4146102f3576100dd565b8063412a4b9a116100bb578063412a4b9a1461018557806355d95609146101c25780635c4ddef3146101ff57806365a9b4a01461023c576100dd565b806313178dc1146100e25780631a2811e71461011f578063344096421461015c575b600080fd5b3480156100ee57600080fd5b5061010960048036038101906101049190611747565b610403565b6040516101169190611cb7565b60405180910390f35b34801561012b57600080fd5b50610146600480360381019061014191906116a3565b6104e6565b6040516101539190611c44565b60405180910390f35b34801561016857600080fd5b50610183600480360381019061017e91906114d7565b61058b565b005b34801561019157600080fd5b506101ac60048036038101906101a79190611651565b6106d3565b6040516101b99190611c07565b60405180910390f35b3480156101ce57600080fd5b506101e960048036038101906101e491906116cc565b610778565b6040516101f69190611c5f565b60405180910390f35b34801561020b57600080fd5b506102266004803603810190610221919061171e565b6108a5565b6040516102339190611c9c565b60405180910390f35b34801561024857600080fd5b50610263600480360381019061025e919061152b565b610959565b6040516102709190611b72565b60405180910390f35b34801561028557600080fd5b506102a0600480360381019061029b91906115d6565b6109a1565b6040516102ad9190611ba8565b60405180910390f35b3480156102c257600080fd5b506102dd60048036038101906102d891906115ff565b610a46565b6040516102ea9190611bc3565b60405180910390f35b3480156102ff57600080fd5b5061031a60048036038101906103159190611628565b610b73565b6040516103279190611be5565b60405180910390f35b34801561033c57600080fd5b506103576004803603810190610352919061167a565b610c71565b6040516103649190611c22565b60405180910390f35b34801561037957600080fd5b50610394600480360381019061038f91906116f5565b610d9e565b6040516103a19190611c81565b60405180910390f35b6103c460048036038101906103bf919061156c565b610e97565b005b3480156103d257600080fd5b506103ed60048036038101906103e891906115ad565b610ed3565b6040516103fa9190611b8d565b60405180910390f35b61040b610fcc565b60008083600001516040516104209190611afd565b908152602001604051809103902054905082602001516000846000015160405161044a9190611afd565b908152602001604051809103902054106104a7578260200151600084600001516040516104779190611afd565b908152602001604051809103902060008282546104949190611e1f565b92505081905550826020015190506104cf565b60008084600001516040516104bc9190611afd565b9081526020016040518091039020819055505b604051806020016040528082815250915050919050565b6104ee610fdf565b600060016000846000015167ffffffffffffffff1667ffffffffffffffff16815260200190815260200160002060000160009054906101000a900467ffffffffffffffff1667ffffffffffffffff161161054757600080fd5b604051806020016040528060016000856000015167ffffffffffffffff1667ffffffffffffffff168152602001908152602001600020600801548152509050919050565b60008173ffffffffffffffffffffffffffffffffffffffff166000639d8b0678856040516024016105be93929190611b14565b6040516020818303038152906040527f868e10c4000000000000000000000000000000000000000000000000000000007bffffffffffffffffffffffffffffffffffffffffffffffffffffffff19166020820180517bffffffffffffffffffffffffffffffffffffffffffffffffffffffff83818316178352505050506040516106489190611ae6565b6000604051808303816000865af19150503d8060008114610685576040519150601f19603f3d011682016040523d82523d6000602084013e61068a565b606091505b50509050806106ce576040517f08c379a00000000000000000000000000000000000000000000000000000000081526004016106c590611b52565b60405180910390fd5b505050565b6106db610ff2565b600060016000846000015167ffffffffffffffff1667ffffffffffffffff16815260200190815260200160002060000160009054906101000a900467ffffffffffffffff1667ffffffffffffffff161161073457600080fd5b604051806020016040528060016000856000015167ffffffffffffffff1667ffffffffffffffff168152602001908152602001600020600701548152509050919050565b610780611005565b600060016000846000015167ffffffffffffffff1667ffffffffffffffff16815260200190815260200160002060000160009054906101000a900467ffffffffffffffff1667ffffffffffffffff16116107d957600080fd5b604051806020016040528060016000856000015167ffffffffffffffff1667ffffffffffffffff168152602001908152602001600020600401805461081d90611f3f565b80601f016020809104026020016040519081016040528092919081815260200182805461084990611f3f565b80156108965780601f1061086b57610100808354040283529160200191610896565b820191906000526020600020905b81548152906001019060200180831161087957829003601f168201915b50505050508152509050919050565b6108ad611018565b600060016000846000015167ffffffffffffffff1667ffffffffffffffff16815260200190815260200160002060000160009054906101000a900467ffffffffffffffff1667ffffffffffffffff161161090657600080fd5b604051806020016040528060016000856000015167ffffffffffffffff1667ffffffffffffffff16815260200190815260200160002060020160089054906101000a900460ff1615158152509050919050565b61096161102d565b600080836040516109729190611afd565b908152602001604051809103902054905060405180604001604052808281526020016000815250915050919050565b6109a9611047565b600060016000846000015167ffffffffffffffff1667ffffffffffffffff16815260200190815260200160002060000160009054906101000a900467ffffffffffffffff1667ffffffffffffffff1611610a0257600080fd5b604051806020016040528060016000856000015167ffffffffffffffff1667ffffffffffffffff168152602001908152602001600020600901548152509050919050565b610a4e61105a565b600060016000846000015167ffffffffffffffff1667ffffffffffffffff16815260200190815260200160002060000160009054906101000a900467ffffffffffffffff1667ffffffffffffffff1611610aa757600080fd5b604051806020016040528060016000856000015167ffffffffffffffff1667ffffffffffffffff1681526020019081526020016000206003018054610aeb90611f3f565b80601f0160208091040260200160405190810160405280929190818152602001828054610b1790611f3f565b8015610b645780601f10610b3957610100808354040283529160200191610b64565b820191906000526020600020905b815481529060010190602001808311610b4757829003601f168201915b50505050508152509050919050565b610b7b61106d565b600060016000846000015167ffffffffffffffff1667ffffffffffffffff16815260200190815260200160002060000160009054906101000a900467ffffffffffffffff1667ffffffffffffffff1611610bd457600080fd5b60405180604001604052806040518060400160405280600881526020017f3078313131313131000000000000000000000000000000000000000000000000815250815260200160016000856000015167ffffffffffffffff1667ffffffffffffffff16815260200190815260200160002060020160009054906101000a900467ffffffffffffffff1667ffffffffffffffff168152509050919050565b610c79611091565b600060016000846000015167ffffffffffffffff1667ffffffffffffffff16815260200190815260200160002060000160009054906101000a900467ffffffffffffffff1667ffffffffffffffff1611610cd257600080fd5b604051806020016040528060016000856000015167ffffffffffffffff1667ffffffffffffffff1681526020019081526020016000206005018054610d1690611f3f565b80601f0160208091040260200160405190810160405280929190818152602001828054610d4290611f3f565b8015610d8f5780601f10610d6457610100808354040283529160200191610d8f565b820191906000526020600020905b815481529060010190602001808311610d7257829003601f168201915b50505050508152509050919050565b610da66110a4565b600060016000846000015167ffffffffffffffff1667ffffffffffffffff16815260200190815260200160002060000160009054906101000a900467ffffffffffffffff1667ffffffffffffffff1611610dff57600080fd5b604051806040016040528060016000856000015167ffffffffffffffff1667ffffffffffffffff16815260200190815260200160002060060160009054906101000a900460070b60070b815260200160016000856000015167ffffffffffffffff1667ffffffffffffffff16815260200190815260200160002060060160089054906101000a900460070b60070b8152509050919050565b3460008260000151604051610eac9190611afd565b90815260200160405180910390206000828254610ec99190611dc9565b9250508190555050565b610edb6110c4565b600060016000846000015167ffffffffffffffff1667ffffffffffffffff16815260200190815260200160002060000160009054906101000a900467ffffffffffffffff1667ffffffffffffffff1611610f3457600080fd5b604051806040016040528060016000856000015167ffffffffffffffff1667ffffffffffffffff168152602001908152602001600020600a0160009054906101000a900460070b60070b815260200160016000856000015167ffffffffffffffff1667ffffffffffffffff168152602001908152602001600020600a0160089054906101000a900460070b60070b8152509050919050565b6040518060200160405280600081525090565b6040518060200160405280600081525090565b6040518060200160405280600081525090565b6040518060200160405280606081525090565b60405180602001604052806000151581525090565b604051806040016040528060008152602001600081525090565b6040518060200160405280600081525090565b6040518060200160405280606081525090565b604051806040016040528060608152602001600067ffffffffffffffff1681525090565b6040518060200160405280606081525090565b6040518060400160405280600060070b8152602001600060070b81525090565b6040518060400160405280600060070b8152602001600060070b81525090565b60006110f76110f284611cf7565b611cd2565b90508281526020810184848401111561110f57600080fd5b61111a848285611efd565b509392505050565b600061113561113084611d28565b611cd2565b90508281526020810184848401111561114d57600080fd5b611158848285611efd565b509392505050565b60008135905061116f8161208f565b92915050565b600082601f83011261118657600080fd5b81356111968482602086016110e4565b91505092915050565b600082601f8301126111b057600080fd5b81356111c0848260208601611122565b91505092915050565b6000602082840312156111db57600080fd5b6111e56020611cd2565b9050600082013567ffffffffffffffff81111561120157600080fd5b61120d8482850161119f565b60008301525092915050565b60006020828403121561122b57600080fd5b6112356020611cd2565b90506000611245848285016114c2565b60008301525092915050565b60006020828403121561126357600080fd5b61126d6020611cd2565b9050600061127d848285016114c2565b60008301525092915050565b60006020828403121561129b57600080fd5b6112a56020611cd2565b905060006112b5848285016114c2565b60008301525092915050565b6000602082840312156112d357600080fd5b6112dd6020611cd2565b905060006112ed848285016114c2565b60008301525092915050565b60006020828403121561130b57600080fd5b6113156020611cd2565b90506000611325848285016114c2565b60008301525092915050565b60006020828403121561134357600080fd5b61134d6020611cd2565b9050600061135d848285016114c2565b60008301525092915050565b60006020828403121561137b57600080fd5b6113856020611cd2565b90506000611395848285016114c2565b60008301525092915050565b6000602082840312156113b357600080fd5b6113bd6020611cd2565b905060006113cd848285016114c2565b60008301525092915050565b6000602082840312156113eb57600080fd5b6113f56020611cd2565b90506000611405848285016114c2565b60008301525092915050565b60006020828403121561142357600080fd5b61142d6020611cd2565b9050600061143d848285016114c2565b60008301525092915050565b60006040828403121561145b57600080fd5b6114656040611cd2565b9050600082013567ffffffffffffffff81111561148157600080fd5b61148d8482850161119f565b60008301525060206114a1848285016114ad565b60208301525092915050565b6000813590506114bc816120a6565b92915050565b6000813590506114d1816120bd565b92915050565b600080604083850312156114ea57600080fd5b600083013567ffffffffffffffff81111561150457600080fd5b61151085828601611175565b925050602061152185828601611160565b9150509250929050565b60006020828403121561153d57600080fd5b600082013567ffffffffffffffff81111561155757600080fd5b6115638482850161119f565b91505092915050565b60006020828403121561157e57600080fd5b600082013567ffffffffffffffff81111561159857600080fd5b6115a4848285016111c9565b91505092915050565b6000602082840312156115bf57600080fd5b60006115cd84828501611219565b91505092915050565b6000602082840312156115e857600080fd5b60006115f684828501611251565b91505092915050565b60006020828403121561161157600080fd5b600061161f84828501611289565b91505092915050565b60006020828403121561163a57600080fd5b6000611648848285016112c1565b91505092915050565b60006020828403121561166357600080fd5b6000611671848285016112f9565b91505092915050565b60006020828403121561168c57600080fd5b600061169a84828501611331565b91505092915050565b6000602082840312156116b557600080fd5b60006116c384828501611369565b91505092915050565b6000602082840312156116de57600080fd5b60006116ec848285016113a1565b91505092915050565b60006020828403121561170757600080fd5b6000611715848285016113d9565b91505092915050565b60006020828403121561173057600080fd5b600061173e84828501611411565b91505092915050565b60006020828403121561175957600080fd5b600082013567ffffffffffffffff81111561177357600080fd5b61177f84828501611449565b91505092915050565b61179181611e65565b82525050565b60006117a282611d59565b6117ac8185611d6f565b93506117bc818560208601611f0c565b6117c58161202f565b840191505092915050565b60006117db82611d59565b6117e58185611d80565b93506117f5818560208601611f0c565b6117fe8161202f565b840191505092915050565b600061181482611d59565b61181e8185611d91565b935061182e818560208601611f0c565b80840191505092915050565b61184381611e71565b82525050565b61185281611ed9565b82525050565b61186181611eeb565b82525050565b600061187282611d64565b61187c8185611d9c565b935061188c818560208601611f0c565b6118958161202f565b840191505092915050565b60006118ab82611d64565b6118b58185611dbe565b93506118c5818560208601611f0c565b80840191505092915050565b60006118de603083611dad565b91506118e982612040565b604082019050919050565b60408201600082015161190a6000850182611ac8565b50602082015161191d6020850182611ac8565b50505050565b604082016000820151611939600085018261183a565b50602082015161194c602085018261183a565b50505050565b6020820160008201516119686000850182611ac8565b50505050565b6000602083016000830151848203600086015261198b8282611867565b9150508091505092915050565b600060408301600083015184820360008601526119b58282611797565b91505060208301516119ca6020860182611ad7565b508091505092915050565b6020820160008201516119eb6000850182611ac8565b50505050565b60006020830160008301518482036000860152611a0e8282611867565b9150508091505092915050565b602082016000820151611a316000850182611ac8565b50505050565b60006020830160008301518482036000860152611a548282611867565b9150508091505092915050565b604082016000820151611a77600085018261183a565b506020820151611a8a602085018261183a565b50505050565b602082016000820151611aa66000850182611788565b50505050565b602082016000820151611ac26000850182611ac8565b50505050565b611ad181611e9e565b82525050565b611ae081611eb8565b82525050565b6000611af28284611809565b915081905092915050565b6000611b0982846118a0565b915081905092915050565b6000606082019050611b296000830186611849565b611b366020830185611858565b8181036040830152611b4881846117d0565b9050949350505050565b60006020820190508181036000830152611b6b816118d1565b9050919050565b6000604082019050611b8760008301846118f4565b92915050565b6000604082019050611ba26000830184611923565b92915050565b6000602082019050611bbd6000830184611952565b92915050565b60006020820190508181036000830152611bdd818461196e565b905092915050565b60006020820190508181036000830152611bff8184611998565b905092915050565b6000602082019050611c1c60008301846119d5565b92915050565b60006020820190508181036000830152611c3c81846119f1565b905092915050565b6000602082019050611c596000830184611a1b565b92915050565b60006020820190508181036000830152611c798184611a37565b905092915050565b6000604082019050611c966000830184611a61565b92915050565b6000602082019050611cb16000830184611a90565b92915050565b6000602082019050611ccc6000830184611aac565b92915050565b6000611cdc611ced565b9050611ce88282611f71565b919050565b6000604051905090565b600067ffffffffffffffff821115611d1257611d11612000565b5b611d1b8261202f565b9050602081019050919050565b600067ffffffffffffffff821115611d4357611d42612000565b5b611d4c8261202f565b9050602081019050919050565b600081519050919050565b600081519050919050565b600082825260208201905092915050565b600082825260208201905092915050565b600081905092915050565b600082825260208201905092915050565b600082825260208201905092915050565b600081905092915050565b6000611dd482611e9e565b9150611ddf83611e9e565b9250827fffffffffffffffffffffffffffffffffffffffffffffffffffffffffffffffff03821115611e1457611e13611fa2565b5b828201905092915050565b6000611e2a82611e9e565b9150611e3583611e9e565b925082821015611e4857611e47611fa2565b5b828203905092915050565b6000611e5e82611e7e565b9050919050565b60008115159050919050565b60008160070b9050919050565b600073ffffffffffffffffffffffffffffffffffffffff82169050919050565b6000819050919050565b600063ffffffff82169050919050565b600067ffffffffffffffff82169050919050565b600060ff82169050919050565b6000611ee482611ecc565b9050919050565b6000611ef682611ea8565b9050919050565b82818337600083830152505050565b60005b83811015611f2a578082015181840152602081019050611f0f565b83811115611f39576000848401525b50505050565b60006002820490506001821680611f5757607f821691505b60208210811415611f6b57611f6a611fd1565b5b50919050565b611f7a8261202f565b810181811067ffffffffffffffff82111715611f9957611f98612000565b5b80604052505050565b7f4e487b7100000000000000000000000000000000000000000000000000000000600052601160045260246000fd5b7f4e487b7100000000000000000000000000000000000000000000000000000000600052602260045260246000fd5b7f4e487b7100000000000000000000000000000000000000000000000000000000600052604160045260246000fd5b6000601f19601f8301169050919050565b7f636c69656e7420636f6e7472616374206661696c656420746f20617574686f7260008201527f697a65206465616c207075626c69736800000000000000000000000000000000602082015250565b61209881611e53565b81146120a357600080fd5b50565b6120af81611e9e565b81146120ba57600080fd5b50565b6120c681611eb8565b81146120d157600080fd5b5056fea2646970667358221220f1a59ac2ec0d6a814e51ec81cbf8bbbbd7fabb110c2a6c7ff37c88c97500b67564736f6c634300080400336261676136656134736561716c6b67366d737335717335366a7174616a673579637268706b6a326236366367646b756b6632716a6d6d7a7a3661796b737563696d41584367354149673859425862466a7464427931695a6a704459417752537430656c474c463547765471756c4569693156634d","opcodes":"PUSH1 0x80 PUSH1 0x40 MSTORE CALLVALUE DUP1 ISZERO PUSH3 0x11 JUMPI PUSH1 0x0 DUP1 REVERT JUMPDEST POP PUSH3 0x22 PUSH3 0x28 PUSH1 0x20 SHL PUSH1 0x20 SHR JUMP JUMPDEST PUSH3 0x580 JUMP JUMPDEST PUSH3 0x32 PUSH3 0x3DA JUMP JUMPDEST PUSH1 0x43 DUP2 PUSH1 0x0 ADD SWAP1 PUSH8 0xFFFFFFFFFFFFFFFF AND SWAP1 DUP2 PUSH8 0xFFFFFFFFFFFFFFFF AND DUP2 MSTORE POP POP PUSH1 0x40 MLOAD DUP1 PUSH1 0x60 ADD PUSH1 0x40 MSTORE DUP1 PUSH1 0x40 DUP2 MSTORE PUSH1 0x20 ADD PUSH3 0x269A PUSH1 0x40 SWAP2 CODECOPY DUP2 PUSH1 0x20 ADD DUP2 SWAP1 MSTORE POP PUSH3 0x800000 DUP2 PUSH1 0x40 ADD SWAP1 PUSH8 0xFFFFFFFFFFFFFFFF AND SWAP1 DUP2 PUSH8 0xFFFFFFFFFFFFFFFF AND DUP2 MSTORE POP POP PUSH1 0x0 DUP2 PUSH1 0x60 ADD SWAP1 ISZERO ISZERO SWAP1 DUP2 ISZERO ISZERO DUP2 MSTORE POP POP PUSH1 0x40 MLOAD DUP1 PUSH1 0x40 ADD PUSH1 0x40 MSTORE DUP1 PUSH1 0x6 DUP2 MSTORE PUSH1 0x20 ADD PUSH32 0x7430313130390000000000000000000000000000000000000000000000000000 DUP2 MSTORE POP DUP2 PUSH1 0x80 ADD DUP2 SWAP1 MSTORE POP PUSH1 0x40 MLOAD DUP1 PUSH1 0x40 ADD PUSH1 0x40 MSTORE DUP1 PUSH1 0x6 DUP2 MSTORE PUSH1 0x20 ADD PUSH32 0x7430313131330000000000000000000000000000000000000000000000000000 DUP2 MSTORE POP DUP2 PUSH1 0xA0 ADD DUP2 SWAP1 MSTORE POP PUSH1 0x40 MLOAD DUP1 PUSH1 0x60 ADD PUSH1 0x40 MSTORE DUP1 PUSH1 0x34 DUP2 MSTORE PUSH1 0x20 ADD PUSH3 0x26DA PUSH1 0x34 SWAP2 CODECOPY DUP2 PUSH1 0xC0 ADD DUP2 SWAP1 MSTORE POP PUSH2 0x629D DUP2 PUSH1 0xE0 ADD SWAP1 PUSH1 0x7 SIGNEXTEND SWAP1 DUP2 PUSH1 0x7 SIGNEXTEND DUP2 MSTORE POP POP PUSH3 0x8517E DUP2 PUSH2 0x100 ADD SWAP1 PUSH1 0x7 SIGNEXTEND SWAP1 DUP2 PUSH1 0x7 SIGNEXTEND DUP2 MSTORE POP POP PUSH6 0x1001D1BF800 DUP2 PUSH2 0x120 ADD DUP2 DUP2 MSTORE POP POP PUSH1 0x0 DUP2 PUSH2 0x140 ADD DUP2 DUP2 MSTORE POP POP PUSH1 0x0 DUP2 PUSH2 0x160 ADD DUP2 DUP2 MSTORE POP POP PUSH1 0x1 DUP2 PUSH2 0x180 ADD SWAP1 PUSH1 0x7 SIGNEXTEND SWAP1 DUP2 PUSH1 0x7 SIGNEXTEND DUP2 MSTORE POP POP PUSH1 0x0 DUP2 PUSH2 0x1A0 ADD SWAP1 PUSH1 0x7 SIGNEXTEND SWAP1 DUP2 PUSH1 0x7 SIGNEXTEND DUP2 MSTORE POP POP DUP1 PUSH1 0x1 PUSH1 0x0 DUP4 PUSH1 0x0 ADD MLOAD PUSH8 0xFFFFFFFFFFFFFFFF AND PUSH8 0xFFFFFFFFFFFFFFFF AND DUP2 MSTORE PUSH1 0x20 ADD SWAP1 DUP2 MSTORE PUSH1 0x20 ADD PUSH1 0x0 KECCAK256 PUSH1 0x0 DUP3 ADD MLOAD DUP2 PUSH1 0x0 ADD PUSH1 0x0 PUSH2 0x100 EXP DUP2 SLOAD DUP2 PUSH8 0xFFFFFFFFFFFFFFFF MUL NOT AND SWAP1 DUP4 PUSH8 0xFFFFFFFFFFFFFFFF AND MUL OR SWAP1 SSTORE POP PUSH1 0x20 DUP3 ADD MLOAD DUP2 PUSH1 0x1 ADD SWAP1 DUP1 MLOAD SWAP1 PUSH1 0x20 ADD SWAP1 PUSH3 0x23B SWAP3 SWAP2 SWAP1 PUSH3 0x46B JUMP JUMPDEST POP PUSH1 0x40 DUP3 ADD MLOAD DUP2 PUSH1 0x2 ADD PUSH1 0x0 PUSH2 0x100 EXP DUP2 SLOAD DUP2 PUSH8 0xFFFFFFFFFFFFFFFF MUL NOT AND SWAP1 DUP4 PUSH8 0xFFFFFFFFFFFFFFFF AND MUL OR SWAP1 SSTORE POP PUSH1 0x60 DUP3 ADD MLOAD DUP2 PUSH1 0x2 ADD PUSH1 0x8 PUSH2 0x100 EXP DUP2 SLOAD DUP2 PUSH1 0xFF MUL NOT AND SWAP1 DUP4 ISZERO ISZERO MUL OR SWAP1 SSTORE POP PUSH1 0x80 DUP3 ADD MLOAD DUP2 PUSH1 0x3 ADD SWAP1 DUP1 MLOAD SWAP1 PUSH1 0x20 ADD SWAP1 PUSH3 0x2A9 SWAP3 SWAP2 SWAP1 PUSH3 0x46B JUMP JUMPDEST POP PUSH1 0xA0 DUP3 ADD MLOAD DUP2 PUSH1 0x4 ADD SWAP1 DUP1 MLOAD SWAP1 PUSH1 0x20 ADD SWAP1 PUSH3 0x2C8 SWAP3 SWAP2 SWAP1 PUSH3 0x46B JUMP JUMPDEST POP PUSH1 0xC0 DUP3 ADD MLOAD DUP2 PUSH1 0x5 ADD SWAP1 DUP1 MLOAD SWAP1 PUSH1 0x20 ADD SWAP1 PUSH3 0x2E7 SWAP3 SWAP2 SWAP1 PUSH3 0x46B JUMP JUMPDEST POP PUSH1 0xE0 DUP3 ADD MLOAD DUP2 PUSH1 0x6 ADD PUSH1 0x0 PUSH2 0x100 EXP DUP2 SLOAD DUP2 PUSH8 0xFFFFFFFFFFFFFFFF MUL NOT AND SWAP1 DUP4 PUSH1 0x7 SIGNEXTEND PUSH8 0xFFFFFFFFFFFFFFFF AND MUL OR SWAP1 SSTORE POP PUSH2 0x100 DUP3 ADD MLOAD DUP2 PUSH1 0x6 ADD PUSH1 0x8 PUSH2 0x100 EXP DUP2 SLOAD DUP2 PUSH8 0xFFFFFFFFFFFFFFFF MUL NOT AND SWAP1 DUP4 PUSH1 0x7 SIGNEXTEND PUSH8 0xFFFFFFFFFFFFFFFF AND MUL OR SWAP1 SSTORE POP PUSH2 0x120 DUP3 ADD MLOAD DUP2 PUSH1 0x7 ADD SSTORE PUSH2 0x140 DUP3 ADD MLOAD DUP2 PUSH1 0x8 ADD SSTORE PUSH2 0x160 DUP3 ADD MLOAD DUP2 PUSH1 0x9 ADD SSTORE PUSH2 0x180 DUP3 ADD MLOAD DUP2 PUSH1 0xA ADD PUSH1 0x0 PUSH2 0x100 EXP DUP2 SLOAD DUP2 PUSH8 0xFFFFFFFFFFFFFFFF MUL NOT AND SWAP1 DUP4 PUSH1 0x7 SIGNEXTEND PUSH8 0xFFFFFFFFFFFFFFFF AND MUL OR SWAP1 SSTORE POP PUSH2 0x1A0 DUP3 ADD MLOAD DUP2 PUSH1 0xA ADD PUSH1 0x8 PUSH2 0x100 EXP DUP2 SLOAD DUP2 PUSH8 0xFFFFFFFFFFFFFFFF MUL NOT AND SWAP1 DUP4 PUSH1 0x7 SIGNEXTEND PUSH8 0xFFFFFFFFFFFFFFFF AND MUL OR SWAP1 SSTORE POP SWAP1 POP POP POP JUMP JUMPDEST PUSH1 0x40 MLOAD DUP1 PUSH2 0x1C0 ADD PUSH1 0x40 MSTORE DUP1 PUSH1 0x0 PUSH8 0xFFFFFFFFFFFFFFFF AND DUP2 MSTORE PUSH1 0x20 ADD PUSH1 0x60 DUP2 MSTORE PUSH1 0x20 ADD PUSH1 0x0 PUSH8 0xFFFFFFFFFFFFFFFF AND DUP2 MSTORE PUSH1 0x20 ADD PUSH1 0x0 ISZERO ISZERO DUP2 MSTORE PUSH1 0x20 ADD PUSH1 0x60 DUP2 MSTORE PUSH1 0x20 ADD PUSH1 0x60 DUP2 MSTORE PUSH1 0x20 ADD PUSH1 0x60 DUP2 MSTORE PUSH1 0x20 ADD PUSH1 0x0 PUSH1 0x7 SIGNEXTEND DUP2 MSTORE PUSH1 0x20 ADD PUSH1 0x0 PUSH1 0x7 SIGNEXTEND DUP2 MSTORE PUSH1 0x20 ADD PUSH1 0x0 DUP2 MSTORE PUSH1 0x20 ADD PUSH1 0x0 DUP2 MSTORE PUSH1 0x20 ADD PUSH1 0x0 DUP2 MSTORE PUSH1 0x20 ADD PUSH1 0x0 PUSH1 0x7 SIGNEXTEND DUP2 MSTORE PUSH1 0x20 ADD PUSH1 0x0 PUSH1 0x7 SIGNEXTEND DUP2 MSTORE POP SWAP1 JUMP JUMPDEST DUP3 DUP1 SLOAD PUSH3 0x479 SWAP1 PUSH3 0x51B JUMP JUMPDEST SWAP1 PUSH1 0x0 MSTORE PUSH1 0x20 PUSH1 0x0 KECCAK256 SWAP1 PUSH1 0x1F ADD PUSH1 0x20 SWAP1 DIV DUP2 ADD SWAP3 DUP3 PUSH3 0x49D JUMPI PUSH1 0x0 DUP6 SSTORE PUSH3 0x4E9 JUMP JUMPDEST DUP3 PUSH1 0x1F LT PUSH3 0x4B8 JUMPI DUP1 MLOAD PUSH1 0xFF NOT AND DUP4 DUP1 ADD OR DUP6 SSTORE PUSH3 0x4E9 JUMP JUMPDEST DUP3 DUP1 ADD PUSH1 0x1 ADD DUP6 SSTORE DUP3 ISZERO PUSH3 0x4E9 JUMPI SWAP2 DUP3 ADD JUMPDEST DUP3 DUP2 GT ISZERO PUSH3 0x4E8 JUMPI DUP3 MLOAD DUP3 SSTORE SWAP2 PUSH1 0x20 ADD SWAP2 SWAP1 PUSH1 0x1 ADD SWAP1 PUSH3 0x4CB JUMP JUMPDEST JUMPDEST POP SWAP1 POP PUSH3 0x4F8 SWAP2 SWAP1 PUSH3 0x4FC JUMP JUMPDEST POP SWAP1 JUMP JUMPDEST JUMPDEST DUP1 DUP3 GT ISZERO PUSH3 0x517 JUMPI PUSH1 0x0 DUP2 PUSH1 0x0 SWAP1 SSTORE POP PUSH1 0x1 ADD PUSH3 0x4FD JUMP JUMPDEST POP SWAP1 JUMP JUMPDEST PUSH1 0x0 PUSH1 0x2 DUP3 DIV SWAP1 POP PUSH1 0x1 DUP3 AND DUP1 PUSH3 0x534 JUMPI PUSH1 0x7F DUP3 AND SWAP2 POP JUMPDEST PUSH1 0x20 DUP3 LT DUP2 EQ ISZERO PUSH3 0x54B JUMPI PUSH3 0x54A PUSH3 0x551 JUMP JUMPDEST JUMPDEST POP SWAP2 SWAP1 POP JUMP JUMPDEST PUSH32 0x4E487B7100000000000000000000000000000000000000000000000000000000 PUSH1 0x0 MSTORE PUSH1 0x22 PUSH1 0x4 MSTORE PUSH1 0x24 PUSH1 0x0 REVERT JUMPDEST PUSH2 0x210A DUP1 PUSH3 0x590 PUSH1 0x0 CODECOPY PUSH1 0x0 RETURN INVALID PUSH1 0x80 PUSH1 0x40 MSTORE PUSH1 0x4 CALLDATASIZE LT PUSH2 0xDD JUMPI PUSH1 0x0 CALLDATALOAD PUSH1 0xE0 SHR DUP1 PUSH4 0x8777B7C8 GT PUSH2 0x7F JUMPI DUP1 PUSH4 0x9F4B7C7D GT PUSH2 0x59 JUMPI DUP1 PUSH4 0x9F4B7C7D EQ PUSH2 0x330 JUMPI DUP1 PUSH4 0xAD36F184 EQ PUSH2 0x36D JUMPI DUP1 PUSH4 0xEBF66EF1 EQ PUSH2 0x3AA JUMPI DUP1 PUSH4 0xF241560C EQ PUSH2 0x3C6 JUMPI PUSH2 0xDD JUMP JUMPDEST DUP1 PUSH4 0x8777B7C8 EQ PUSH2 0x279 JUMPI DUP1 PUSH4 0x8B7F02FD EQ PUSH2 0x2B6 JUMPI DUP1 PUSH4 0x991E04A4 EQ PUSH2 0x2F3 JUMPI PUSH2 0xDD JUMP JUMPDEST DUP1 PUSH4 0x412A4B9A GT PUSH2 0xBB JUMPI DUP1 PUSH4 0x412A4B9A EQ PUSH2 0x185 JUMPI DUP1 PUSH4 0x55D95609 EQ PUSH2 0x1C2 JUMPI DUP1 PUSH4 0x5C4DDEF3 EQ PUSH2 0x1FF JUMPI DUP1 PUSH4 0x65A9B4A0 EQ PUSH2 0x23C JUMPI PUSH2 0xDD JUMP JUMPDEST DUP1 PUSH4 0x13178DC1 EQ PUSH2 0xE2 JUMPI DUP1 PUSH4 0x1A2811E7 EQ PUSH2 0x11F JUMPI DUP1 PUSH4 0x34409642 EQ PUSH2 0x15C JUMPI JUMPDEST PUSH1 0x0 DUP1 REVERT JUMPDEST CALLVALUE DUP1 ISZERO PUSH2 0xEE JUMPI PUSH1 0x0 DUP1 REVERT JUMPDEST POP PUSH2 0x109 PUSH1 0x4 DUP1 CALLDATASIZE SUB DUP2 ADD SWAP1 PUSH2 0x104 SWAP2 SWAP1 PUSH2 0x1747 JUMP JUMPDEST PUSH2 0x403 JUMP JUMPDEST PUSH1 0x40 MLOAD PUSH2 0x116 SWAP2 SWAP1 PUSH2 0x1CB7 JUMP JUMPDEST PUSH1 0x40 MLOAD DUP1 SWAP2 SUB SWAP1 RETURN JUMPDEST CALLVALUE DUP1 ISZERO PUSH2 0x12B JUMPI PUSH1 0x0 DUP1 REVERT JUMPDEST POP PUSH2 0x146 PUSH1 0x4 DUP1 CALLDATASIZE SUB DUP2 ADD SWAP1 PUSH2 0x141 SWAP2 SWAP1 PUSH2 0x16A3 JUMP JUMPDEST PUSH2 0x4E6 JUMP JUMPDEST PUSH1 0x40 MLOAD PUSH2 0x153 SWAP2 SWAP1 PUSH2 0x1C44 JUMP JUMPDEST PUSH1 0x40 MLOAD DUP1 SWAP2 SUB SWAP1 RETURN JUMPDEST CALLVALUE DUP1 ISZERO PUSH2 0x168 JUMPI PUSH1 0x0 DUP1 REVERT JUMPDEST POP PUSH2 0x183 PUSH1 0x4 DUP1 CALLDATASIZE SUB DUP2 ADD SWAP1 PUSH2 0x17E SWAP2 SWAP1 PUSH2 0x14D7 JUMP JUMPDEST PUSH2 0x58B JUMP JUMPDEST STOP JUMPDEST CALLVALUE DUP1 ISZERO PUSH2 0x191 JUMPI PUSH1 0x0 DUP1 REVERT JUMPDEST POP PUSH2 0x1AC PUSH1 0x4 DUP1 CALLDATASIZE SUB DUP2 ADD SWAP1 PUSH2 0x1A7 SWAP2 SWAP1 PUSH2 0x1651 JUMP JUMPDEST PUSH2 0x6D3 JUMP JUMPDEST PUSH1 0x40 MLOAD PUSH2 0x1B9 SWAP2 SWAP1 PUSH2 0x1C07 JUMP JUMPDEST PUSH1 0x40 MLOAD DUP1 SWAP2 SUB SWAP1 RETURN JUMPDEST CALLVALUE DUP1 ISZERO PUSH2 0x1CE JUMPI PUSH1 0x0 DUP1 REVERT JUMPDEST POP PUSH2 0x1E9 PUSH1 0x4 DUP1 CALLDATASIZE SUB DUP2 ADD SWAP1 PUSH2 0x1E4 SWAP2 SWAP1 PUSH2 0x16CC JUMP JUMPDEST PUSH2 0x778 JUMP JUMPDEST PUSH1 0x40 MLOAD PUSH2 0x1F6 SWAP2 SWAP1 PUSH2 0x1C5F JUMP JUMPDEST PUSH1 0x40 MLOAD DUP1 SWAP2 SUB SWAP1 RETURN JUMPDEST CALLVALUE DUP1 ISZERO PUSH2 0x20B JUMPI PUSH1 0x0 DUP1 REVERT JUMPDEST POP PUSH2 0x226 PUSH1 0x4 DUP1 CALLDATASIZE SUB DUP2 ADD SWAP1 PUSH2 0x221 SWAP2 SWAP1 PUSH2 0x171E JUMP JUMPDEST PUSH2 0x8A5 JUMP JUMPDEST PUSH1 0x40 MLOAD PUSH2 0x233 SWAP2 SWAP1 PUSH2 0x1C9C JUMP JUMPDEST PUSH1 0x40 MLOAD DUP1 SWAP2 SUB SWAP1 RETURN JUMPDEST CALLVALUE DUP1 ISZERO PUSH2 0x248 JUMPI PUSH1 0x0 DUP1 REVERT JUMPDEST POP PUSH2 0x263 PUSH1 0x4 DUP1 CALLDATASIZE SUB DUP2 ADD SWAP1 PUSH2 0x25E SWAP2 SWAP1 PUSH2 0x152B JUMP JUMPDEST PUSH2 0x959 JUMP JUMPDEST PUSH1 0x40 MLOAD PUSH2 0x270 SWAP2 SWAP1 PUSH2 0x1B72 JUMP JUMPDEST PUSH1 0x40 MLOAD DUP1 SWAP2 SUB SWAP1 RETURN JUMPDEST CALLVALUE DUP1 ISZERO PUSH2 0x285 JUMPI PUSH1 0x0 DUP1 REVERT JUMPDEST POP PUSH2 0x2A0 PUSH1 0x4 DUP1 CALLDATASIZE SUB DUP2 ADD SWAP1 PUSH2 0x29B SWAP2 SWAP1 PUSH2 0x15D6 JUMP JUMPDEST PUSH2 0x9A1 JUMP JUMPDEST PUSH1 0x40 MLOAD PUSH2 0x2AD SWAP2 SWAP1 PUSH2 0x1BA8 JUMP JUMPDEST PUSH1 0x40 MLOAD DUP1 SWAP2 SUB SWAP1 RETURN JUMPDEST CALLVALUE DUP1 ISZERO PUSH2 0x2C2 JUMPI PUSH1 0x0 DUP1 REVERT JUMPDEST POP PUSH2 0x2DD PUSH1 0x4 DUP1 CALLDATASIZE SUB DUP2 ADD SWAP1 PUSH2 0x2D8 SWAP2 SWAP1 PUSH2 0x15FF JUMP JUMPDEST PUSH2 0xA46 JUMP JUMPDEST PUSH1 0x40 MLOAD PUSH2 0x2EA SWAP2 SWAP1 PUSH2 0x1BC3 JUMP JUMPDEST PUSH1 0x40 MLOAD DUP1 SWAP2 SUB SWAP1 RETURN JUMPDEST CALLVALUE DUP1 ISZERO PUSH2 0x2FF JUMPI PUSH1 0x0 DUP1 REVERT JUMPDEST POP PUSH2 0x31A PUSH1 0x4 DUP1 CALLDATASIZE SUB DUP2 ADD SWAP1 PUSH2 0x315 SWAP2 SWAP1 PUSH2 0x1628 JUMP JUMPDEST PUSH2 0xB73 JUMP JUMPDEST PUSH1 0x40 MLOAD PUSH2 0x327 SWAP2 SWAP1 PUSH2 0x1BE5 JUMP JUMPDEST PUSH1 0x40 MLOAD DUP1 SWAP2 SUB SWAP1 RETURN JUMPDEST CALLVALUE DUP1 ISZERO PUSH2 0x33C JUMPI PUSH1 0x0 DUP1 REVERT JUMPDEST POP PUSH2 0x357 PUSH1 0x4 DUP1 CALLDATASIZE SUB DUP2 ADD SWAP1 PUSH2 0x352 SWAP2 SWAP1 PUSH2 0x167A JUMP JUMPDEST PUSH2 0xC71 JUMP JUMPDEST PUSH1 0x40 MLOAD PUSH2 0x364 SWAP2 SWAP1 PUSH2 0x1C22 JUMP JUMPDEST PUSH1 0x40 MLOAD DUP1 SWAP2 SUB SWAP1 RETURN JUMPDEST CALLVALUE DUP1 ISZERO PUSH2 0x379 JUMPI PUSH1 0x0 DUP1 REVERT JUMPDEST POP PUSH2 0x394 PUSH1 0x4 DUP1 CALLDATASIZE SUB DUP2 ADD SWAP1 PUSH2 0x38F SWAP2 SWAP1 PUSH2 0x16F5 JUMP JUMPDEST PUSH2 0xD9E JUMP JUMPDEST PUSH1 0x40 MLOAD PUSH2 0x3A1 SWAP2 SWAP1 PUSH2 0x1C81 JUMP JUMPDEST PUSH1 0x40 MLOAD DUP1 SWAP2 SUB SWAP1 RETURN JUMPDEST PUSH2 0x3C4 PUSH1 0x4 DUP1 CALLDATASIZE SUB DUP2 ADD SWAP1 PUSH2 0x3BF SWAP2 SWAP1 PUSH2 0x156C JUMP JUMPDEST PUSH2 0xE97 JUMP JUMPDEST STOP JUMPDEST CALLVALUE DUP1 ISZERO PUSH2 0x3D2 JUMPI PUSH1 0x0 DUP1 REVERT JUMPDEST POP PUSH2 0x3ED PUSH1 0x4 DUP1 CALLDATASIZE SUB DUP2 ADD SWAP1 PUSH2 0x3E8 SWAP2 SWAP1 PUSH2 0x15AD JUMP JUMPDEST PUSH2 0xED3 JUMP JUMPDEST PUSH1 0x40 MLOAD PUSH2 0x3FA SWAP2 SWAP1 PUSH2 0x1B8D JUMP JUMPDEST PUSH1 0x40 MLOAD DUP1 SWAP2 SUB SWAP1 RETURN JUMPDEST PUSH2 0x40B PUSH2 0xFCC JUMP JUMPDEST PUSH1 0x0 DUP1 DUP4 PUSH1 0x0 ADD MLOAD PUSH1 0x40 MLOAD PUSH2 0x420 SWAP2 SWAP1 PUSH2 0x1AFD JUMP JUMPDEST SWAP1 DUP2 MSTORE PUSH1 0x20 ADD PUSH1 0x40 MLOAD DUP1 SWAP2 SUB SWAP1 KECCAK256 SLOAD SWAP1 POP DUP3 PUSH1 0x20 ADD MLOAD PUSH1 0x0 DUP5 PUSH1 0x0 ADD MLOAD PUSH1 0x40 MLOAD PUSH2 0x44A SWAP2 SWAP1 PUSH2 0x1AFD JUMP JUMPDEST SWAP1 DUP2 MSTORE PUSH1 0x20 ADD PUSH1 0x40 MLOAD DUP1 SWAP2 SUB SWAP1 KECCAK256 SLOAD LT PUSH2 0x4A7 JUMPI DUP3 PUSH1 0x20 ADD MLOAD PUSH1 0x0 DUP5 PUSH1 0x0 ADD MLOAD PUSH1 0x40 MLOAD PUSH2 0x477 SWAP2 SWAP1 PUSH2 0x1AFD JUMP JUMPDEST SWAP1 DUP2 MSTORE PUSH1 0x20 ADD PUSH1 0x40 MLOAD DUP1 SWAP2 SUB SWAP1 KECCAK256 PUSH1 0x0 DUP3 DUP3 SLOAD PUSH2 0x494 SWAP2 SWAP1 PUSH2 0x1E1F JUMP JUMPDEST SWAP3 POP POP DUP2 SWAP1 SSTORE POP DUP3 PUSH1 0x20 ADD MLOAD SWAP1 POP PUSH2 0x4CF JUMP JUMPDEST PUSH1 0x0 DUP1 DUP5 PUSH1 0x0 ADD MLOAD PUSH1 0x40 MLOAD PUSH2 0x4BC SWAP2 SWAP1 PUSH2 0x1AFD JUMP JUMPDEST SWAP1 DUP2 MSTORE PUSH1 0x20 ADD PUSH1 0x40 MLOAD DUP1 SWAP2 SUB SWAP1 KECCAK256 DUP2 SWAP1 SSTORE POP JUMPDEST PUSH1 0x40 MLOAD DUP1 PUSH1 0x20 ADD PUSH1 0x40 MSTORE DUP1 DUP3 DUP2 MSTORE POP SWAP2 POP POP SWAP2 SWAP1 POP JUMP JUMPDEST PUSH2 0x4EE PUSH2 0xFDF JUMP JUMPDEST PUSH1 0x0 PUSH1 0x1 PUSH1 0x0 DUP5 PUSH1 0x0 ADD MLOAD PUSH8 0xFFFFFFFFFFFFFFFF AND PUSH8 0xFFFFFFFFFFFFFFFF AND DUP2 MSTORE PUSH1 0x20 ADD SWAP1 DUP2 MSTORE PUSH1 0x20 ADD PUSH1 0x0 KECCAK256 PUSH1 0x0 ADD PUSH1 0x0 SWAP1 SLOAD SWAP1 PUSH2 0x100 EXP SWAP1 DIV PUSH8 0xFFFFFFFFFFFFFFFF AND PUSH8 0xFFFFFFFFFFFFFFFF AND GT PUSH2 0x547 JUMPI PUSH1 0x0 DUP1 REVERT JUMPDEST PUSH1 0x40 MLOAD DUP1 PUSH1 0x20 ADD PUSH1 0x40 MSTORE DUP1 PUSH1 0x1 PUSH1 0x0 DUP6 PUSH1 0x0 ADD MLOAD PUSH8 0xFFFFFFFFFFFFFFFF AND PUSH8 0xFFFFFFFFFFFFFFFF AND DUP2 MSTORE PUSH1 0x20 ADD SWAP1 DUP2 MSTORE PUSH1 0x20 ADD PUSH1 0x0 KECCAK256 PUSH1 0x8 ADD SLOAD DUP2 MSTORE POP SWAP1 POP SWAP2 SWAP1 POP JUMP JUMPDEST PUSH1 0x0 DUP2 PUSH20 0xFFFFFFFFFFFFFFFFFFFFFFFFFFFFFFFFFFFFFFFF AND PUSH1 0x0 PUSH4 0x9D8B0678 DUP6 PUSH1 0x40 MLOAD PUSH1 0x24 ADD PUSH2 0x5BE SWAP4 SWAP3 SWAP2 SWAP1 PUSH2 0x1B14 JUMP JUMPDEST PUSH1 0x40 MLOAD PUSH1 0x20 DUP2 DUP4 SUB SUB DUP2 MSTORE SWAP1 PUSH1 0x40 MSTORE PUSH32 0x868E10C400000000000000000000000000000000000000000000000000000000 PUSH28 0xFFFFFFFFFFFFFFFFFFFFFFFFFFFFFFFFFFFFFFFFFFFFFFFFFFFFFFFF NOT AND PUSH1 0x20 DUP3 ADD DUP1 MLOAD PUSH28 0xFFFFFFFFFFFFFFFFFFFFFFFFFFFFFFFFFFFFFFFFFFFFFFFFFFFFFFFF DUP4 DUP2 DUP4 AND OR DUP4 MSTORE POP POP POP POP PUSH1 0x40 MLOAD PUSH2 0x648 SWAP2 SWAP1 PUSH2 0x1AE6 JUMP JUMPDEST PUSH1 0x0 PUSH1 0x40 MLOAD DUP1 DUP4 SUB DUP2 PUSH1 0x0 DUP7 GAS CALL SWAP2 POP POP RETURNDATASIZE DUP1 PUSH1 0x0 DUP2 EQ PUSH2 0x685 JUMPI PUSH1 0x40 MLOAD SWAP2 POP PUSH1 0x1F NOT PUSH1 0x3F RETURNDATASIZE ADD AND DUP3 ADD PUSH1 0x40 MSTORE RETURNDATASIZE DUP3 MSTORE RETURNDATASIZE PUSH1 0x0 PUSH1 0x20 DUP5 ADD RETURNDATACOPY PUSH2 0x68A JUMP JUMPDEST PUSH1 0x60 SWAP2 POP JUMPDEST POP POP SWAP1 POP DUP1 PUSH2 0x6CE JUMPI PUSH1 0x40 MLOAD PUSH32 0x8C379A000000000000000000000000000000000000000000000000000000000 DUP2 MSTORE PUSH1 0x4 ADD PUSH2 0x6C5 SWAP1 PUSH2 0x1B52 JUMP JUMPDEST PUSH1 0x40 MLOAD DUP1 SWAP2 SUB SWAP1 REVERT JUMPDEST POP POP POP JUMP JUMPDEST PUSH2 0x6DB PUSH2 0xFF2 JUMP JUMPDEST PUSH1 0x0 PUSH1 0x1 PUSH1 0x0 DUP5 PUSH1 0x0 ADD MLOAD PUSH8 0xFFFFFFFFFFFFFFFF AND PUSH8 0xFFFFFFFFFFFFFFFF AND DUP2 MSTORE PUSH1 0x20 ADD SWAP1 DUP2 MSTORE PUSH1 0x20 ADD PUSH1 0x0 KECCAK256 PUSH1 0x0 ADD PUSH1 0x0 SWAP1 SLOAD SWAP1 PUSH2 0x100 EXP SWAP1 DIV PUSH8 0xFFFFFFFFFFFFFFFF AND PUSH8 0xFFFFFFFFFFFFFFFF AND GT PUSH2 0x734 JUMPI PUSH1 0x0 DUP1 REVERT JUMPDEST PUSH1 0x40 MLOAD DUP1 PUSH1 0x20 ADD PUSH1 0x40 MSTORE DUP1 PUSH1 0x1 PUSH1 0x0 DUP6 PUSH1 0x0 ADD MLOAD PUSH8 0xFFFFFFFFFFFFFFFF AND PUSH8 0xFFFFFFFFFFFFFFFF AND DUP2 MSTORE PUSH1 0x20 ADD SWAP1 DUP2 MSTORE PUSH1 0x20 ADD PUSH1 0x0 KECCAK256 PUSH1 0x7 ADD SLOAD DUP2 MSTORE POP SWAP1 POP SWAP2 SWAP1 POP JUMP JUMPDEST PUSH2 0x780 PUSH2 0x1005 JUMP JUMPDEST PUSH1 0x0 PUSH1 0x1 PUSH1 0x0 DUP5 PUSH1 0x0 ADD MLOAD PUSH8 0xFFFFFFFFFFFFFFFF AND PUSH8 0xFFFFFFFFFFFFFFFF AND DUP2 MSTORE PUSH1 0x20 ADD SWAP1 DUP2 MSTORE PUSH1 0x20 ADD PUSH1 0x0 KECCAK256 PUSH1 0x0 ADD PUSH1 0x0 SWAP1 SLOAD SWAP1 PUSH2 0x100 EXP SWAP1 DIV PUSH8 0xFFFFFFFFFFFFFFFF AND PUSH8 0xFFFFFFFFFFFFFFFF AND GT PUSH2 0x7D9 JUMPI PUSH1 0x0 DUP1 REVERT JUMPDEST PUSH1 0x40 MLOAD DUP1 PUSH1 0x20 ADD PUSH1 0x40 MSTORE DUP1 PUSH1 0x1 PUSH1 0x0 DUP6 PUSH1 0x0 ADD MLOAD PUSH8 0xFFFFFFFFFFFFFFFF AND PUSH8 0xFFFFFFFFFFFFFFFF AND DUP2 MSTORE PUSH1 0x20 ADD SWAP1 DUP2 MSTORE PUSH1 0x20 ADD PUSH1 0x0 KECCAK256 PUSH1 0x4 ADD DUP1 SLOAD PUSH2 0x81D SWAP1 PUSH2 0x1F3F JUMP JUMPDEST DUP1 PUSH1 0x1F ADD PUSH1 0x20 DUP1 SWAP2 DIV MUL PUSH1 0x20 ADD PUSH1 0x40 MLOAD SWAP1 DUP2 ADD PUSH1 0x40 MSTORE DUP1 SWAP3 SWAP2 SWAP1 DUP2 DUP2 MSTORE PUSH1 0x20 ADD DUP3 DUP1 SLOAD PUSH2 0x849 SWAP1 PUSH2 0x1F3F JUMP JUMPDEST DUP1 ISZERO PUSH2 0x896 JUMPI DUP1 PUSH1 0x1F LT PUSH2 0x86B JUMPI PUSH2 0x100 DUP1 DUP4 SLOAD DIV MUL DUP4 MSTORE SWAP2 PUSH1 0x20 ADD SWAP2 PUSH2 0x896 JUMP JUMPDEST DUP3 ADD SWAP2 SWAP1 PUSH1 0x0 MSTORE PUSH1 0x20 PUSH1 0x0 KECCAK256 SWAP1 JUMPDEST DUP2 SLOAD DUP2 MSTORE SWAP1 PUSH1 0x1 ADD SWAP1 PUSH1 0x20 ADD DUP1 DUP4 GT PUSH2 0x879 JUMPI DUP3 SWAP1 SUB PUSH1 0x1F AND DUP3 ADD SWAP2 JUMPDEST POP POP POP POP POP DUP2 MSTORE POP SWAP1 POP SWAP2 SWAP1 POP JUMP JUMPDEST PUSH2 0x8AD PUSH2 0x1018 JUMP JUMPDEST PUSH1 0x0 PUSH1 0x1 PUSH1 0x0 DUP5 PUSH1 0x0 ADD MLOAD PUSH8 0xFFFFFFFFFFFFFFFF AND PUSH8 0xFFFFFFFFFFFFFFFF AND DUP2 MSTORE PUSH1 0x20 ADD SWAP1 DUP2 MSTORE PUSH1 0x20 ADD PUSH1 0x0 KECCAK256 PUSH1 0x0 ADD PUSH1 0x0 SWAP1 SLOAD SWAP1 PUSH2 0x100 EXP SWAP1 DIV PUSH8 0xFFFFFFFFFFFFFFFF AND PUSH8 0xFFFFFFFFFFFFFFFF AND GT PUSH2 0x906 JUMPI PUSH1 0x0 DUP1 REVERT JUMPDEST PUSH1 0x40 MLOAD DUP1 PUSH1 0x20 ADD PUSH1 0x40 MSTORE DUP1 PUSH1 0x1 PUSH1 0x0 DUP6 PUSH1 0x0 ADD MLOAD PUSH8 0xFFFFFFFFFFFFFFFF AND PUSH8 0xFFFFFFFFFFFFFFFF AND DUP2 MSTORE PUSH1 0x20 ADD SWAP1 DUP2 MSTORE PUSH1 0x20 ADD PUSH1 0x0 KECCAK256 PUSH1 0x2 ADD PUSH1 0x8 SWAP1 SLOAD SWAP1 PUSH2 0x100 EXP SWAP1 DIV PUSH1 0xFF AND ISZERO ISZERO DUP2 MSTORE POP SWAP1 POP SWAP2 SWAP1 POP JUMP JUMPDEST PUSH2 0x961 PUSH2 0x102D JUMP JUMPDEST PUSH1 0x0 DUP1 DUP4 PUSH1 0x40 MLOAD PUSH2 0x972 SWAP2 SWAP1 PUSH2 0x1AFD JUMP JUMPDEST SWAP1 DUP2 MSTORE PUSH1 0x20 ADD PUSH1 0x40 MLOAD DUP1 SWAP2 SUB SWAP1 KECCAK256 SLOAD SWAP1 POP PUSH1 0x40 MLOAD DUP1 PUSH1 0x40 ADD PUSH1 0x40 MSTORE DUP1 DUP3 DUP2 MSTORE PUSH1 0x20 ADD PUSH1 0x0 DUP2 MSTORE POP SWAP2 POP POP SWAP2 SWAP1 POP JUMP JUMPDEST PUSH2 0x9A9 PUSH2 0x1047 JUMP JUMPDEST PUSH1 0x0 PUSH1 0x1 PUSH1 0x0 DUP5 PUSH1 0x0 ADD MLOAD PUSH8 0xFFFFFFFFFFFFFFFF AND PUSH8 0xFFFFFFFFFFFFFFFF AND DUP2 MSTORE PUSH1 0x20 ADD SWAP1 DUP2 MSTORE PUSH1 0x20 ADD PUSH1 0x0 KECCAK256 PUSH1 0x0 ADD PUSH1 0x0 SWAP1 SLOAD SWAP1 PUSH2 0x100 EXP SWAP1 DIV PUSH8 0xFFFFFFFFFFFFFFFF AND PUSH8 0xFFFFFFFFFFFFFFFF AND GT PUSH2 0xA02 JUMPI PUSH1 0x0 DUP1 REVERT JUMPDEST PUSH1 0x40 MLOAD DUP1 PUSH1 0x20 ADD PUSH1 0x40 MSTORE DUP1 PUSH1 0x1 PUSH1 0x0 DUP6 PUSH1 0x0 ADD MLOAD PUSH8 0xFFFFFFFFFFFFFFFF AND PUSH8 0xFFFFFFFFFFFFFFFF AND DUP2 MSTORE PUSH1 0x20 ADD SWAP1 DUP2 MSTORE PUSH1 0x20 ADD PUSH1 0x0 KECCAK256 PUSH1 0x9 ADD SLOAD DUP2 MSTORE POP SWAP1 POP SWAP2 SWAP1 POP JUMP JUMPDEST PUSH2 0xA4E PUSH2 0x105A JUMP JUMPDEST PUSH1 0x0 PUSH1 0x1 PUSH1 0x0 DUP5 PUSH1 0x0 ADD MLOAD PUSH8 0xFFFFFFFFFFFFFFFF AND PUSH8 0xFFFFFFFFFFFFFFFF AND DUP2 MSTORE PUSH1 0x20 ADD SWAP1 DUP2 MSTORE PUSH1 0x20 ADD PUSH1 0x0 KECCAK256 PUSH1 0x0 ADD PUSH1 0x0 SWAP1 SLOAD SWAP1 PUSH2 0x100 EXP SWAP1 DIV PUSH8 0xFFFFFFFFFFFFFFFF AND PUSH8 0xFFFFFFFFFFFFFFFF AND GT PUSH2 0xAA7 JUMPI PUSH1 0x0 DUP1 REVERT JUMPDEST PUSH1 0x40 MLOAD DUP1 PUSH1 0x20 ADD PUSH1 0x40 MSTORE DUP1 PUSH1 0x1 PUSH1 0x0 DUP6 PUSH1 0x0 ADD MLOAD PUSH8 0xFFFFFFFFFFFFFFFF AND PUSH8 0xFFFFFFFFFFFFFFFF AND DUP2 MSTORE PUSH1 0x20 ADD SWAP1 DUP2 MSTORE PUSH1 0x20 ADD PUSH1 0x0 KECCAK256 PUSH1 0x3 ADD DUP1 SLOAD PUSH2 0xAEB SWAP1 PUSH2 0x1F3F JUMP JUMPDEST DUP1 PUSH1 0x1F ADD PUSH1 0x20 DUP1 SWAP2 DIV MUL PUSH1 0x20 ADD PUSH1 0x40 MLOAD SWAP1 DUP2 ADD PUSH1 0x40 MSTORE DUP1 SWAP3 SWAP2 SWAP1 DUP2 DUP2 MSTORE PUSH1 0x20 ADD DUP3 DUP1 SLOAD PUSH2 0xB17 SWAP1 PUSH2 0x1F3F JUMP JUMPDEST DUP1 ISZERO PUSH2 0xB64 JUMPI DUP1 PUSH1 0x1F LT PUSH2 0xB39 JUMPI PUSH2 0x100 DUP1 DUP4 SLOAD DIV MUL DUP4 MSTORE SWAP2 PUSH1 0x20 ADD SWAP2 PUSH2 0xB64 JUMP JUMPDEST DUP3 ADD SWAP2 SWAP1 PUSH1 0x0 MSTORE PUSH1 0x20 PUSH1 0x0 KECCAK256 SWAP1 JUMPDEST DUP2 SLOAD DUP2 MSTORE SWAP1 PUSH1 0x1 ADD SWAP1 PUSH1 0x20 ADD DUP1 DUP4 GT PUSH2 0xB47 JUMPI DUP3 SWAP1 SUB PUSH1 0x1F AND DUP3 ADD SWAP2 JUMPDEST POP POP POP POP POP DUP2 MSTORE POP SWAP1 POP SWAP2 SWAP1 POP JUMP JUMPDEST PUSH2 0xB7B PUSH2 0x106D JUMP JUMPDEST PUSH1 0x0 PUSH1 0x1 PUSH1 0x0 DUP5 PUSH1 0x0 ADD MLOAD PUSH8 0xFFFFFFFFFFFFFFFF AND PUSH8 0xFFFFFFFFFFFFFFFF AND DUP2 MSTORE PUSH1 0x20 ADD SWAP1 DUP2 MSTORE PUSH1 0x20 ADD PUSH1 0x0 KECCAK256 PUSH1 0x0 ADD PUSH1 0x0 SWAP1 SLOAD SWAP1 PUSH2 0x100 EXP SWAP1 DIV PUSH8 0xFFFFFFFFFFFFFFFF AND PUSH8 0xFFFFFFFFFFFFFFFF AND GT PUSH2 0xBD4 JUMPI PUSH1 0x0 DUP1 REVERT JUMPDEST PUSH1 0x40 MLOAD DUP1 PUSH1 0x40 ADD PUSH1 0x40 MSTORE DUP1 PUSH1 0x40 MLOAD DUP1 PUSH1 0x40 ADD PUSH1 0x40 MSTORE DUP1 PUSH1 0x8 DUP2 MSTORE PUSH1 0x20 ADD PUSH32 0x3078313131313131000000000000000000000000000000000000000000000000 DUP2 MSTORE POP DUP2 MSTORE PUSH1 0x20 ADD PUSH1 0x1 PUSH1 0x0 DUP6 PUSH1 0x0 ADD MLOAD PUSH8 0xFFFFFFFFFFFFFFFF AND PUSH8 0xFFFFFFFFFFFFFFFF AND DUP2 MSTORE PUSH1 0x20 ADD SWAP1 DUP2 MSTORE PUSH1 0x20 ADD PUSH1 0x0 KECCAK256 PUSH1 0x2 ADD PUSH1 0x0 SWAP1 SLOAD SWAP1 PUSH2 0x100 EXP SWAP1 DIV PUSH8 0xFFFFFFFFFFFFFFFF AND PUSH8 0xFFFFFFFFFFFFFFFF AND DUP2 MSTORE POP SWAP1 POP SWAP2 SWAP1 POP JUMP JUMPDEST PUSH2 0xC79 PUSH2 0x1091 JUMP JUMPDEST PUSH1 0x0 PUSH1 0x1 PUSH1 0x0 DUP5 PUSH1 0x0 ADD MLOAD PUSH8 0xFFFFFFFFFFFFFFFF AND PUSH8 0xFFFFFFFFFFFFFFFF AND DUP2 MSTORE PUSH1 0x20 ADD SWAP1 DUP2 MSTORE PUSH1 0x20 ADD PUSH1 0x0 KECCAK256 PUSH1 0x0 ADD PUSH1 0x0 SWAP1 SLOAD SWAP1 PUSH2 0x100 EXP SWAP1 DIV PUSH8 0xFFFFFFFFFFFFFFFF AND PUSH8 0xFFFFFFFFFFFFFFFF AND GT PUSH2 0xCD2 JUMPI PUSH1 0x0 DUP1 REVERT JUMPDEST PUSH1 0x40 MLOAD DUP1 PUSH1 0x20 ADD PUSH1 0x40 MSTORE DUP1 PUSH1 0x1 PUSH1 0x0 DUP6 PUSH1 0x0 ADD MLOAD PUSH8 0xFFFFFFFFFFFFFFFF AND PUSH8 0xFFFFFFFFFFFFFFFF AND DUP2 MSTORE PUSH1 0x20 ADD SWAP1 DUP2 MSTORE PUSH1 0x20 ADD PUSH1 0x0 KECCAK256 PUSH1 0x5 ADD DUP1 SLOAD PUSH2 0xD16 SWAP1 PUSH2 0x1F3F JUMP JUMPDEST DUP1 PUSH1 0x1F ADD PUSH1 0x20 DUP1 SWAP2 DIV MUL PUSH1 0x20 ADD PUSH1 0x40 MLOAD SWAP1 DUP2 ADD PUSH1 0x40 MSTORE DUP1 SWAP3 SWAP2 SWAP1 DUP2 DUP2 MSTORE PUSH1 0x20 ADD DUP3 DUP1 SLOAD PUSH2 0xD42 SWAP1 PUSH2 0x1F3F JUMP JUMPDEST DUP1 ISZERO PUSH2 0xD8F JUMPI DUP1 PUSH1 0x1F LT PUSH2 0xD64 JUMPI PUSH2 0x100 DUP1 DUP4 SLOAD DIV MUL DUP4 MSTORE SWAP2 PUSH1 0x20 ADD SWAP2 PUSH2 0xD8F JUMP JUMPDEST DUP3 ADD SWAP2 SWAP1 PUSH1 0x0 MSTORE PUSH1 0x20 PUSH1 0x0 KECCAK256 SWAP1 JUMPDEST DUP2 SLOAD DUP2 MSTORE SWAP1 PUSH1 0x1 ADD SWAP1 PUSH1 0x20 ADD DUP1 DUP4 GT PUSH2 0xD72 JUMPI DUP3 SWAP1 SUB PUSH1 0x1F AND DUP3 ADD SWAP2 JUMPDEST POP POP POP POP POP DUP2 MSTORE POP SWAP1 POP SWAP2 SWAP1 POP JUMP JUMPDEST PUSH2 0xDA6 PUSH2 0x10A4 JUMP JUMPDEST PUSH1 0x0 PUSH1 0x1 PUSH1 0x0 DUP5 PUSH1 0x0 ADD MLOAD PUSH8 0xFFFFFFFFFFFFFFFF AND PUSH8 0xFFFFFFFFFFFFFFFF AND DUP2 MSTORE PUSH1 0x20 ADD SWAP1 DUP2 MSTORE PUSH1 0x20 ADD PUSH1 0x0 KECCAK256 PUSH1 0x0 ADD PUSH1 0x0 SWAP1 SLOAD SWAP1 PUSH2 0x100 EXP SWAP1 DIV PUSH8 0xFFFFFFFFFFFFFFFF AND PUSH8 0xFFFFFFFFFFFFFFFF AND GT PUSH2 0xDFF JUMPI PUSH1 0x0 DUP1 REVERT JUMPDEST PUSH1 0x40 MLOAD DUP1 PUSH1 0x40 ADD PUSH1 0x40 MSTORE DUP1 PUSH1 0x1 PUSH1 0x0 DUP6 PUSH1 0x0 ADD MLOAD PUSH8 0xFFFFFFFFFFFFFFFF AND PUSH8 0xFFFFFFFFFFFFFFFF AND DUP2 MSTORE PUSH1 0x20 ADD SWAP1 DUP2 MSTORE PUSH1 0x20 ADD PUSH1 0x0 KECCAK256 PUSH1 0x6 ADD PUSH1 0x0 SWAP1 SLOAD SWAP1 PUSH2 0x100 EXP SWAP1 DIV PUSH1 0x7 SIGNEXTEND PUSH1 0x7 SIGNEXTEND DUP2 MSTORE PUSH1 0x20 ADD PUSH1 0x1 PUSH1 0x0 DUP6 PUSH1 0x0 ADD MLOAD PUSH8 0xFFFFFFFFFFFFFFFF AND PUSH8 0xFFFFFFFFFFFFFFFF AND DUP2 MSTORE PUSH1 0x20 ADD SWAP1 DUP2 MSTORE PUSH1 0x20 ADD PUSH1 0x0 KECCAK256 PUSH1 0x6 ADD PUSH1 0x8 SWAP1 SLOAD SWAP1 PUSH2 0x100 EXP SWAP1 DIV PUSH1 0x7 SIGNEXTEND PUSH1 0x7 SIGNEXTEND DUP2 MSTORE POP SWAP1 POP SWAP2 SWAP1 POP JUMP JUMPDEST CALLVALUE PUSH1 0x0 DUP3 PUSH1 0x0 ADD MLOAD PUSH1 0x40 MLOAD PUSH2 0xEAC SWAP2 SWAP1 PUSH2 0x1AFD JUMP JUMPDEST SWAP1 DUP2 MSTORE PUSH1 0x20 ADD PUSH1 0x40 MLOAD DUP1 SWAP2 SUB SWAP1 KECCAK256 PUSH1 0x0 DUP3 DUP3 SLOAD PUSH2 0xEC9 SWAP2 SWAP1 PUSH2 0x1DC9 JUMP JUMPDEST SWAP3 POP POP DUP2 SWAP1 SSTORE POP POP JUMP JUMPDEST PUSH2 0xEDB PUSH2 0x10C4 JUMP JUMPDEST PUSH1 0x0 PUSH1 0x1 PUSH1 0x0 DUP5 PUSH1 0x0 ADD MLOAD PUSH8 0xFFFFFFFFFFFFFFFF AND PUSH8 0xFFFFFFFFFFFFFFFF AND DUP2 MSTORE PUSH1 0x20 ADD SWAP1 DUP2 MSTORE PUSH1 0x20 ADD PUSH1 0x0 KECCAK256 PUSH1 0x0 ADD PUSH1 0x0 SWAP1 SLOAD SWAP1 PUSH2 0x100 EXP SWAP1 DIV PUSH8 0xFFFFFFFFFFFFFFFF AND PUSH8 0xFFFFFFFFFFFFFFFF AND GT PUSH2 0xF34 JUMPI PUSH1 0x0 DUP1 REVERT JUMPDEST PUSH1 0x40 MLOAD DUP1 PUSH1 0x40 ADD PUSH1 0x40 MSTORE DUP1 PUSH1 0x1 PUSH1 0x0 DUP6 PUSH1 0x0 ADD MLOAD PUSH8 0xFFFFFFFFFFFFFFFF AND PUSH8 0xFFFFFFFFFFFFFFFF AND DUP2 MSTORE PUSH1 0x20 ADD SWAP1 DUP2 MSTORE PUSH1 0x20 ADD PUSH1 0x0 KECCAK256 PUSH1 0xA ADD PUSH1 0x0 SWAP1 SLOAD SWAP1 PUSH2 0x100 EXP SWAP1 DIV PUSH1 0x7 SIGNEXTEND PUSH1 0x7 SIGNEXTEND DUP2 MSTORE PUSH1 0x20 ADD PUSH1 0x1 PUSH1 0x0 DUP6 PUSH1 0x0 ADD MLOAD PUSH8 0xFFFFFFFFFFFFFFFF AND PUSH8 0xFFFFFFFFFFFFFFFF AND DUP2 MSTORE PUSH1 0x20 ADD SWAP1 DUP2 MSTORE PUSH1 0x20 ADD PUSH1 0x0 KECCAK256 PUSH1 0xA ADD PUSH1 0x8 SWAP1 SLOAD SWAP1 PUSH2 0x100 EXP SWAP1 DIV PUSH1 0x7 SIGNEXTEND PUSH1 0x7 SIGNEXTEND DUP2 MSTORE POP SWAP1 POP SWAP2 SWAP1 POP JUMP JUMPDEST PUSH1 0x40 MLOAD DUP1 PUSH1 0x20 ADD PUSH1 0x40 MSTORE DUP1 PUSH1 0x0 DUP2 MSTORE POP SWAP1 JUMP JUMPDEST PUSH1 0x40 MLOAD DUP1 PUSH1 0x20 ADD PUSH1 0x40 MSTORE DUP1 PUSH1 0x0 DUP2 MSTORE POP SWAP1 JUMP JUMPDEST PUSH1 0x40 MLOAD DUP1 PUSH1 0x20 ADD PUSH1 0x40 MSTORE DUP1 PUSH1 0x0 DUP2 MSTORE POP SWAP1 JUMP JUMPDEST PUSH1 0x40 MLOAD DUP1 PUSH1 0x20 ADD PUSH1 0x40 MSTORE DUP1 PUSH1 0x60 DUP2 MSTORE POP SWAP1 JUMP JUMPDEST PUSH1 0x40 MLOAD DUP1 PUSH1 0x20 ADD PUSH1 0x40 MSTORE DUP1 PUSH1 0x0 ISZERO ISZERO DUP2 MSTORE POP SWAP1 JUMP JUMPDEST PUSH1 0x40 MLOAD DUP1 PUSH1 0x40 ADD PUSH1 0x40 MSTORE DUP1 PUSH1 0x0 DUP2 MSTORE PUSH1 0x20 ADD PUSH1 0x0 DUP2 MSTORE POP SWAP1 JUMP JUMPDEST PUSH1 0x40 MLOAD DUP1 PUSH1 0x20 ADD PUSH1 0x40 MSTORE DUP1 PUSH1 0x0 DUP2 MSTORE POP SWAP1 JUMP JUMPDEST PUSH1 0x40 MLOAD DUP1 PUSH1 0x20 ADD PUSH1 0x40 MSTORE DUP1 PUSH1 0x60 DUP2 MSTORE POP SWAP1 JUMP JUMPDEST PUSH1 0x40 MLOAD DUP1 PUSH1 0x40 ADD PUSH1 0x40 MSTORE DUP1 PUSH1 0x60 DUP2 MSTORE PUSH1 0x20 ADD PUSH1 0x0 PUSH8 0xFFFFFFFFFFFFFFFF AND DUP2 MSTORE POP SWAP1 JUMP JUMPDEST PUSH1 0x40 MLOAD DUP1 PUSH1 0x20 ADD PUSH1 0x40 MSTORE DUP1 PUSH1 0x60 DUP2 MSTORE POP SWAP1 JUMP JUMPDEST PUSH1 0x40 MLOAD DUP1 PUSH1 0x40 ADD PUSH1 0x40 MSTORE DUP1 PUSH1 0x0 PUSH1 0x7 SIGNEXTEND DUP2 MSTORE PUSH1 0x20 ADD PUSH1 0x0 PUSH1 0x7 SIGNEXTEND DUP2 MSTORE POP SWAP1 JUMP JUMPDEST PUSH1 0x40 MLOAD DUP1 PUSH1 0x40 ADD PUSH1 0x40 MSTORE DUP1 PUSH1 0x0 PUSH1 0x7 SIGNEXTEND DUP2 MSTORE PUSH1 0x20 ADD PUSH1 0x0 PUSH1 0x7 SIGNEXTEND DUP2 MSTORE POP SWAP1 JUMP JUMPDEST PUSH1 0x0 PUSH2 0x10F7 PUSH2 0x10F2 DUP5 PUSH2 0x1CF7 JUMP JUMPDEST PUSH2 0x1CD2 JUMP JUMPDEST SWAP1 POP DUP3 DUP2 MSTORE PUSH1 0x20 DUP2 ADD DUP5 DUP5 DUP5 ADD GT ISZERO PUSH2 0x110F JUMPI PUSH1 0x0 DUP1 REVERT JUMPDEST PUSH2 0x111A DUP5 DUP3 DUP6 PUSH2 0x1EFD JUMP JUMPDEST POP SWAP4 SWAP3 POP POP POP JUMP JUMPDEST PUSH1 0x0 PUSH2 0x1135 PUSH2 0x1130 DUP5 PUSH2 0x1D28 JUMP JUMPDEST PUSH2 0x1CD2 JUMP JUMPDEST SWAP1 POP DUP3 DUP2 MSTORE PUSH1 0x20 DUP2 ADD DUP5 DUP5 DUP5 ADD GT ISZERO PUSH2 0x114D JUMPI PUSH1 0x0 DUP1 REVERT JUMPDEST PUSH2 0x1158 DUP5 DUP3 DUP6 PUSH2 0x1EFD JUMP JUMPDEST POP SWAP4 SWAP3 POP POP POP JUMP JUMPDEST PUSH1 0x0 DUP2 CALLDATALOAD SWAP1 POP PUSH2 0x116F DUP2 PUSH2 0x208F JUMP JUMPDEST SWAP3 SWAP2 POP POP JUMP JUMPDEST PUSH1 0x0 DUP3 PUSH1 0x1F DUP4 ADD SLT PUSH2 0x1186 JUMPI PUSH1 0x0 DUP1 REVERT JUMPDEST DUP2 CALLDATALOAD PUSH2 0x1196 DUP5 DUP3 PUSH1 0x20 DUP7 ADD PUSH2 0x10E4 JUMP JUMPDEST SWAP2 POP POP SWAP3 SWAP2 POP POP JUMP JUMPDEST PUSH1 0x0 DUP3 PUSH1 0x1F DUP4 ADD SLT PUSH2 0x11B0 JUMPI PUSH1 0x0 DUP1 REVERT JUMPDEST DUP2 CALLDATALOAD PUSH2 0x11C0 DUP5 DUP3 PUSH1 0x20 DUP7 ADD PUSH2 0x1122 JUMP JUMPDEST SWAP2 POP POP SWAP3 SWAP2 POP POP JUMP JUMPDEST PUSH1 0x0 PUSH1 0x20 DUP3 DUP5 SUB SLT ISZERO PUSH2 0x11DB JUMPI PUSH1 0x0 DUP1 REVERT JUMPDEST PUSH2 0x11E5 PUSH1 0x20 PUSH2 0x1CD2 JUMP JUMPDEST SWAP1 POP PUSH1 0x0 DUP3 ADD CALLDATALOAD PUSH8 0xFFFFFFFFFFFFFFFF DUP2 GT ISZERO PUSH2 0x1201 JUMPI PUSH1 0x0 DUP1 REVERT JUMPDEST PUSH2 0x120D DUP5 DUP3 DUP6 ADD PUSH2 0x119F JUMP JUMPDEST PUSH1 0x0 DUP4 ADD MSTORE POP SWAP3 SWAP2 POP POP JUMP JUMPDEST PUSH1 0x0 PUSH1 0x20 DUP3 DUP5 SUB SLT ISZERO PUSH2 0x122B JUMPI PUSH1 0x0 DUP1 REVERT JUMPDEST PUSH2 0x1235 PUSH1 0x20 PUSH2 0x1CD2 JUMP JUMPDEST SWAP1 POP PUSH1 0x0 PUSH2 0x1245 DUP5 DUP3 DUP6 ADD PUSH2 0x14C2 JUMP JUMPDEST PUSH1 0x0 DUP4 ADD MSTORE POP SWAP3 SWAP2 POP POP JUMP JUMPDEST PUSH1 0x0 PUSH1 0x20 DUP3 DUP5 SUB SLT ISZERO PUSH2 0x1263 JUMPI PUSH1 0x0 DUP1 REVERT JUMPDEST PUSH2 0x126D PUSH1 0x20 PUSH2 0x1CD2 JUMP JUMPDEST SWAP1 POP PUSH1 0x0 PUSH2 0x127D DUP5 DUP3 DUP6 ADD PUSH2 0x14C2 JUMP JUMPDEST PUSH1 0x0 DUP4 ADD MSTORE POP SWAP3 SWAP2 POP POP JUMP JUMPDEST PUSH1 0x0 PUSH1 0x20 DUP3 DUP5 SUB SLT ISZERO PUSH2 0x129B JUMPI PUSH1 0x0 DUP1 REVERT JUMPDEST PUSH2 0x12A5 PUSH1 0x20 PUSH2 0x1CD2 JUMP JUMPDEST SWAP1 POP PUSH1 0x0 PUSH2 0x12B5 DUP5 DUP3 DUP6 ADD PUSH2 0x14C2 JUMP JUMPDEST PUSH1 0x0 DUP4 ADD MSTORE POP SWAP3 SWAP2 POP POP JUMP JUMPDEST PUSH1 0x0 PUSH1 0x20 DUP3 DUP5 SUB SLT ISZERO PUSH2 0x12D3 JUMPI PUSH1 0x0 DUP1 REVERT JUMPDEST PUSH2 0x12DD PUSH1 0x20 PUSH2 0x1CD2 JUMP JUMPDEST SWAP1 POP PUSH1 0x0 PUSH2 0x12ED DUP5 DUP3 DUP6 ADD PUSH2 0x14C2 JUMP JUMPDEST PUSH1 0x0 DUP4 ADD MSTORE POP SWAP3 SWAP2 POP POP JUMP JUMPDEST PUSH1 0x0 PUSH1 0x20 DUP3 DUP5 SUB SLT ISZERO PUSH2 0x130B JUMPI PUSH1 0x0 DUP1 REVERT JUMPDEST PUSH2 0x1315 PUSH1 0x20 PUSH2 0x1CD2 JUMP JUMPDEST SWAP1 POP PUSH1 0x0 PUSH2 0x1325 DUP5 DUP3 DUP6 ADD PUSH2 0x14C2 JUMP JUMPDEST PUSH1 0x0 DUP4 ADD MSTORE POP SWAP3 SWAP2 POP POP JUMP JUMPDEST PUSH1 0x0 PUSH1 0x20 DUP3 DUP5 SUB SLT ISZERO PUSH2 0x1343 JUMPI PUSH1 0x0 DUP1 REVERT JUMPDEST PUSH2 0x134D PUSH1 0x20 PUSH2 0x1CD2 JUMP JUMPDEST SWAP1 POP PUSH1 0x0 PUSH2 0x135D DUP5 DUP3 DUP6 ADD PUSH2 0x14C2 JUMP JUMPDEST PUSH1 0x0 DUP4 ADD MSTORE POP SWAP3 SWAP2 POP POP JUMP JUMPDEST PUSH1 0x0 PUSH1 0x20 DUP3 DUP5 SUB SLT ISZERO PUSH2 0x137B JUMPI PUSH1 0x0 DUP1 REVERT JUMPDEST PUSH2 0x1385 PUSH1 0x20 PUSH2 0x1CD2 JUMP JUMPDEST SWAP1 POP PUSH1 0x0 PUSH2 0x1395 DUP5 DUP3 DUP6 ADD PUSH2 0x14C2 JUMP JUMPDEST PUSH1 0x0 DUP4 ADD MSTORE POP SWAP3 SWAP2 POP POP JUMP JUMPDEST PUSH1 0x0 PUSH1 0x20 DUP3 DUP5 SUB SLT ISZERO PUSH2 0x13B3 JUMPI PUSH1 0x0 DUP1 REVERT JUMPDEST PUSH2 0x13BD PUSH1 0x20 PUSH2 0x1CD2 JUMP JUMPDEST SWAP1 POP PUSH1 0x0 PUSH2 0x13CD DUP5 DUP3 DUP6 ADD PUSH2 0x14C2 JUMP JUMPDEST PUSH1 0x0 DUP4 ADD MSTORE POP SWAP3 SWAP2 POP POP JUMP JUMPDEST PUSH1 0x0 PUSH1 0x20 DUP3 DUP5 SUB SLT ISZERO PUSH2 0x13EB JUMPI PUSH1 0x0 DUP1 REVERT JUMPDEST PUSH2 0x13F5 PUSH1 0x20 PUSH2 0x1CD2 JUMP JUMPDEST SWAP1 POP PUSH1 0x0 PUSH2 0x1405 DUP5 DUP3 DUP6 ADD PUSH2 0x14C2 JUMP JUMPDEST PUSH1 0x0 DUP4 ADD MSTORE POP SWAP3 SWAP2 POP POP JUMP JUMPDEST PUSH1 0x0 PUSH1 0x20 DUP3 DUP5 SUB SLT ISZERO PUSH2 0x1423 JUMPI PUSH1 0x0 DUP1 REVERT JUMPDEST PUSH2 0x142D PUSH1 0x20 PUSH2 0x1CD2 JUMP JUMPDEST SWAP1 POP PUSH1 0x0 PUSH2 0x143D DUP5 DUP3 DUP6 ADD PUSH2 0x14C2 JUMP JUMPDEST PUSH1 0x0 DUP4 ADD MSTORE POP SWAP3 SWAP2 POP POP JUMP JUMPDEST PUSH1 0x0 PUSH1 0x40 DUP3 DUP5 SUB SLT ISZERO PUSH2 0x145B JUMPI PUSH1 0x0 DUP1 REVERT JUMPDEST PUSH2 0x1465 PUSH1 0x40 PUSH2 0x1CD2 JUMP JUMPDEST SWAP1 POP PUSH1 0x0 DUP3 ADD CALLDATALOAD PUSH8 0xFFFFFFFFFFFFFFFF DUP2 GT ISZERO PUSH2 0x1481 JUMPI PUSH1 0x0 DUP1 REVERT JUMPDEST PUSH2 0x148D DUP5 DUP3 DUP6 ADD PUSH2 0x119F JUMP JUMPDEST PUSH1 0x0 DUP4 ADD MSTORE POP PUSH1 0x20 PUSH2 0x14A1 DUP5 DUP3 DUP6 ADD PUSH2 0x14AD JUMP JUMPDEST PUSH1 0x20 DUP4 ADD MSTORE POP SWAP3 SWAP2 POP POP JUMP JUMPDEST PUSH1 0x0 DUP2 CALLDATALOAD SWAP1 POP PUSH2 0x14BC DUP2 PUSH2 0x20A6 JUMP JUMPDEST SWAP3 SWAP2 POP POP JUMP JUMPDEST PUSH1 0x0 DUP2 CALLDATALOAD SWAP1 POP PUSH2 0x14D1 DUP2 PUSH2 0x20BD JUMP JUMPDEST SWAP3 SWAP2 POP POP JUMP JUMPDEST PUSH1 0x0 DUP1 PUSH1 0x40 DUP4 DUP6 SUB SLT ISZERO PUSH2 0x14EA JUMPI PUSH1 0x0 DUP1 REVERT JUMPDEST PUSH1 0x0 DUP4 ADD CALLDATALOAD PUSH8 0xFFFFFFFFFFFFFFFF DUP2 GT ISZERO PUSH2 0x1504 JUMPI PUSH1 0x0 DUP1 REVERT JUMPDEST PUSH2 0x1510 DUP6 DUP3 DUP7 ADD PUSH2 0x1175 JUMP JUMPDEST SWAP3 POP POP PUSH1 0x20 PUSH2 0x1521 DUP6 DUP3 DUP7 ADD PUSH2 0x1160 JUMP JUMPDEST SWAP2 POP POP SWAP3 POP SWAP3 SWAP1 POP JUMP JUMPDEST PUSH1 0x0 PUSH1 0x20 DUP3 DUP5 SUB SLT ISZERO PUSH2 0x153D JUMPI PUSH1 0x0 DUP1 REVERT JUMPDEST PUSH1 0x0 DUP3 ADD CALLDATALOAD PUSH8 0xFFFFFFFFFFFFFFFF DUP2 GT ISZERO PUSH2 0x1557 JUMPI PUSH1 0x0 DUP1 REVERT JUMPDEST PUSH2 0x1563 DUP5 DUP3 DUP6 ADD PUSH2 0x119F JUMP JUMPDEST SWAP2 POP POP SWAP3 SWAP2 POP POP JUMP JUMPDEST PUSH1 0x0 PUSH1 0x20 DUP3 DUP5 SUB SLT ISZERO PUSH2 0x157E JUMPI PUSH1 0x0 DUP1 REVERT JUMPDEST PUSH1 0x0 DUP3 ADD CALLDATALOAD PUSH8 0xFFFFFFFFFFFFFFFF DUP2 GT ISZERO PUSH2 0x1598 JUMPI PUSH1 0x0 DUP1 REVERT JUMPDEST PUSH2 0x15A4 DUP5 DUP3 DUP6 ADD PUSH2 0x11C9 JUMP JUMPDEST SWAP2 POP POP SWAP3 SWAP2 POP POP JUMP JUMPDEST PUSH1 0x0 PUSH1 0x20 DUP3 DUP5 SUB SLT ISZERO PUSH2 0x15BF JUMPI PUSH1 0x0 DUP1 REVERT JUMPDEST PUSH1 0x0 PUSH2 0x15CD DUP5 DUP3 DUP6 ADD PUSH2 0x1219 JUMP JUMPDEST SWAP2 POP POP SWAP3 SWAP2 POP POP JUMP JUMPDEST PUSH1 0x0 PUSH1 0x20 DUP3 DUP5 SUB SLT ISZERO PUSH2 0x15E8 JUMPI PUSH1 0x0 DUP1 REVERT JUMPDEST PUSH1 0x0 PUSH2 0x15F6 DUP5 DUP3 DUP6 ADD PUSH2 0x1251 JUMP JUMPDEST SWAP2 POP POP SWAP3 SWAP2 POP POP JUMP JUMPDEST PUSH1 0x0 PUSH1 0x20 DUP3 DUP5 SUB SLT ISZERO PUSH2 0x1611 JUMPI PUSH1 0x0 DUP1 REVERT JUMPDEST PUSH1 0x0 PUSH2 0x161F DUP5 DUP3 DUP6 ADD PUSH2 0x1289 JUMP JUMPDEST SWAP2 POP POP SWAP3 SWAP2 POP POP JUMP JUMPDEST PUSH1 0x0 PUSH1 0x20 DUP3 DUP5 SUB SLT ISZERO PUSH2 0x163A JUMPI PUSH1 0x0 DUP1 REVERT JUMPDEST PUSH1 0x0 PUSH2 0x1648 DUP5 DUP3 DUP6 ADD PUSH2 0x12C1 JUMP JUMPDEST SWAP2 POP POP SWAP3 SWAP2 POP POP JUMP JUMPDEST PUSH1 0x0 PUSH1 0x20 DUP3 DUP5 SUB SLT ISZERO PUSH2 0x1663 JUMPI PUSH1 0x0 DUP1 REVERT JUMPDEST PUSH1 0x0 PUSH2 0x1671 DUP5 DUP3 DUP6 ADD PUSH2 0x12F9 JUMP JUMPDEST SWAP2 POP POP SWAP3 SWAP2 POP POP JUMP JUMPDEST PUSH1 0x0 PUSH1 0x20 DUP3 DUP5 SUB SLT ISZERO PUSH2 0x168C JUMPI PUSH1 0x0 DUP1 REVERT JUMPDEST PUSH1 0x0 PUSH2 0x169A DUP5 DUP3 DUP6 ADD PUSH2 0x1331 JUMP JUMPDEST SWAP2 POP POP SWAP3 SWAP2 POP POP JUMP JUMPDEST PUSH1 0x0 PUSH1 0x20 DUP3 DUP5 SUB SLT ISZERO PUSH2 0x16B5 JUMPI PUSH1 0x0 DUP1 REVERT JUMPDEST PUSH1 0x0 PUSH2 0x16C3 DUP5 DUP3 DUP6 ADD PUSH2 0x1369 JUMP JUMPDEST SWAP2 POP POP SWAP3 SWAP2 POP POP JUMP JUMPDEST PUSH1 0x0 PUSH1 0x20 DUP3 DUP5 SUB SLT ISZERO PUSH2 0x16DE JUMPI PUSH1 0x0 DUP1 REVERT JUMPDEST PUSH1 0x0 PUSH2 0x16EC DUP5 DUP3 DUP6 ADD PUSH2 0x13A1 JUMP JUMPDEST SWAP2 POP POP SWAP3 SWAP2 POP POP JUMP JUMPDEST PUSH1 0x0 PUSH1 0x20 DUP3 DUP5 SUB SLT ISZERO PUSH2 0x1707 JUMPI PUSH1 0x0 DUP1 REVERT JUMPDEST PUSH1 0x0 PUSH2 0x1715 DUP5 DUP3 DUP6 ADD PUSH2 0x13D9 JUMP JUMPDEST SWAP2 POP POP SWAP3 SWAP2 POP POP JUMP JUMPDEST PUSH1 0x0 PUSH1 0x20 DUP3 DUP5 SUB SLT ISZERO PUSH2 0x1730 JUMPI PUSH1 0x0 DUP1 REVERT JUMPDEST PUSH1 0x0 PUSH2 0x173E DUP5 DUP3 DUP6 ADD PUSH2 0x1411 JUMP JUMPDEST SWAP2 POP POP SWAP3 SWAP2 POP POP JUMP JUMPDEST PUSH1 0x0 PUSH1 0x20 DUP3 DUP5 SUB SLT ISZERO PUSH2 0x1759 JUMPI PUSH1 0x0 DUP1 REVERT JUMPDEST PUSH1 0x0 DUP3 ADD CALLDATALOAD PUSH8 0xFFFFFFFFFFFFFFFF DUP2 GT ISZERO PUSH2 0x1773 JUMPI PUSH1 0x0 DUP1 REVERT JUMPDEST PUSH2 0x177F DUP5 DUP3 DUP6 ADD PUSH2 0x1449 JUMP JUMPDEST SWAP2 POP POP SWAP3 SWAP2 POP POP JUMP JUMPDEST PUSH2 0x1791 DUP2 PUSH2 0x1E65 JUMP JUMPDEST DUP3 MSTORE POP POP JUMP JUMPDEST PUSH1 0x0 PUSH2 0x17A2 DUP3 PUSH2 0x1D59 JUMP JUMPDEST PUSH2 0x17AC DUP2 DUP6 PUSH2 0x1D6F JUMP JUMPDEST SWAP4 POP PUSH2 0x17BC DUP2 DUP6 PUSH1 0x20 DUP7 ADD PUSH2 0x1F0C JUMP JUMPDEST PUSH2 0x17C5 DUP2 PUSH2 0x202F JUMP JUMPDEST DUP5 ADD SWAP2 POP POP SWAP3 SWAP2 POP POP JUMP JUMPDEST PUSH1 0x0 PUSH2 0x17DB DUP3 PUSH2 0x1D59 JUMP JUMPDEST PUSH2 0x17E5 DUP2 DUP6 PUSH2 0x1D80 JUMP JUMPDEST SWAP4 POP PUSH2 0x17F5 DUP2 DUP6 PUSH1 0x20 DUP7 ADD PUSH2 0x1F0C JUMP JUMPDEST PUSH2 0x17FE DUP2 PUSH2 0x202F JUMP JUMPDEST DUP5 ADD SWAP2 POP POP SWAP3 SWAP2 POP POP JUMP JUMPDEST PUSH1 0x0 PUSH2 0x1814 DUP3 PUSH2 0x1D59 JUMP JUMPDEST PUSH2 0x181E DUP2 DUP6 PUSH2 0x1D91 JUMP JUMPDEST SWAP4 POP PUSH2 0x182E DUP2 DUP6 PUSH1 0x20 DUP7 ADD PUSH2 0x1F0C JUMP JUMPDEST DUP1 DUP5 ADD SWAP2 POP POP SWAP3 SWAP2 POP POP JUMP JUMPDEST PUSH2 0x1843 DUP2 PUSH2 0x1E71 JUMP JUMPDEST DUP3 MSTORE POP POP JUMP JUMPDEST PUSH2 0x1852 DUP2 PUSH2 0x1ED9 JUMP JUMPDEST DUP3 MSTORE POP POP JUMP JUMPDEST PUSH2 0x1861 DUP2 PUSH2 0x1EEB JUMP JUMPDEST DUP3 MSTORE POP POP JUMP JUMPDEST PUSH1 0x0 PUSH2 0x1872 DUP3 PUSH2 0x1D64 JUMP JUMPDEST PUSH2 0x187C DUP2 DUP6 PUSH2 0x1D9C JUMP JUMPDEST SWAP4 POP PUSH2 0x188C DUP2 DUP6 PUSH1 0x20 DUP7 ADD PUSH2 0x1F0C JUMP JUMPDEST PUSH2 0x1895 DUP2 PUSH2 0x202F JUMP JUMPDEST DUP5 ADD SWAP2 POP POP SWAP3 SWAP2 POP POP JUMP JUMPDEST PUSH1 0x0 PUSH2 0x18AB DUP3 PUSH2 0x1D64 JUMP JUMPDEST PUSH2 0x18B5 DUP2 DUP6 PUSH2 0x1DBE JUMP JUMPDEST SWAP4 POP PUSH2 0x18C5 DUP2 DUP6 PUSH1 0x20 DUP7 ADD PUSH2 0x1F0C JUMP JUMPDEST DUP1 DUP5 ADD SWAP2 POP POP SWAP3 SWAP2 POP POP JUMP JUMPDEST PUSH1 0x0 PUSH2 0x18DE PUSH1 0x30 DUP4 PUSH2 0x1DAD JUMP JUMPDEST SWAP2 POP PUSH2 0x18E9 DUP3 PUSH2 0x2040 JUMP JUMPDEST PUSH1 0x40 DUP3 ADD SWAP1 POP SWAP2 SWAP1 POP JUMP JUMPDEST PUSH1 0x40 DUP3 ADD PUSH1 0x0 DUP3 ADD MLOAD PUSH2 0x190A PUSH1 0x0 DUP6 ADD DUP3 PUSH2 0x1AC8 JUMP JUMPDEST POP PUSH1 0x20 DUP3 ADD MLOAD PUSH2 0x191D PUSH1 0x20 DUP6 ADD DUP3 PUSH2 0x1AC8 JUMP JUMPDEST POP POP POP POP JUMP JUMPDEST PUSH1 0x40 DUP3 ADD PUSH1 0x0 DUP3 ADD MLOAD PUSH2 0x1939 PUSH1 0x0 DUP6 ADD DUP3 PUSH2 0x183A JUMP JUMPDEST POP PUSH1 0x20 DUP3 ADD MLOAD PUSH2 0x194C PUSH1 0x20 DUP6 ADD DUP3 PUSH2 0x183A JUMP JUMPDEST POP POP POP POP JUMP JUMPDEST PUSH1 0x20 DUP3 ADD PUSH1 0x0 DUP3 ADD MLOAD PUSH2 0x1968 PUSH1 0x0 DUP6 ADD DUP3 PUSH2 0x1AC8 JUMP JUMPDEST POP POP POP POP JUMP JUMPDEST PUSH1 0x0 PUSH1 0x20 DUP4 ADD PUSH1 0x0 DUP4 ADD MLOAD DUP5 DUP3 SUB PUSH1 0x0 DUP7 ADD MSTORE PUSH2 0x198B DUP3 DUP3 PUSH2 0x1867 JUMP JUMPDEST SWAP2 POP POP DUP1 SWAP2 POP POP SWAP3 SWAP2 POP POP JUMP JUMPDEST PUSH1 0x0 PUSH1 0x40 DUP4 ADD PUSH1 0x0 DUP4 ADD MLOAD DUP5 DUP3 SUB PUSH1 0x0 DUP7 ADD MSTORE PUSH2 0x19B5 DUP3 DUP3 PUSH2 0x1797 JUMP JUMPDEST SWAP2 POP POP PUSH1 0x20 DUP4 ADD MLOAD PUSH2 0x19CA PUSH1 0x20 DUP7 ADD DUP3 PUSH2 0x1AD7 JUMP JUMPDEST POP DUP1 SWAP2 POP POP SWAP3 SWAP2 POP POP JUMP JUMPDEST PUSH1 0x20 DUP3 ADD PUSH1 0x0 DUP3 ADD MLOAD PUSH2 0x19EB PUSH1 0x0 DUP6 ADD DUP3 PUSH2 0x1AC8 JUMP JUMPDEST POP POP POP POP JUMP JUMPDEST PUSH1 0x0 PUSH1 0x20 DUP4 ADD PUSH1 0x0 DUP4 ADD MLOAD DUP5 DUP3 SUB PUSH1 0x0 DUP7 ADD MSTORE PUSH2 0x1A0E DUP3 DUP3 PUSH2 0x1867 JUMP JUMPDEST SWAP2 POP POP DUP1 SWAP2 POP POP SWAP3 SWAP2 POP POP JUMP JUMPDEST PUSH1 0x20 DUP3 ADD PUSH1 0x0 DUP3 ADD MLOAD PUSH2 0x1A31 PUSH1 0x0 DUP6 ADD DUP3 PUSH2 0x1AC8 JUMP JUMPDEST POP POP POP POP JUMP JUMPDEST PUSH1 0x0 PUSH1 0x20 DUP4 ADD PUSH1 0x0 DUP4 ADD MLOAD DUP5 DUP3 SUB PUSH1 0x0 DUP7 ADD MSTORE PUSH2 0x1A54 DUP3 DUP3 PUSH2 0x1867 JUMP JUMPDEST SWAP2 POP POP DUP1 SWAP2 POP POP SWAP3 SWAP2 POP POP JUMP JUMPDEST PUSH1 0x40 DUP3 ADD PUSH1 0x0 DUP3 ADD MLOAD PUSH2 0x1A77 PUSH1 0x0 DUP6 ADD DUP3 PUSH2 0x183A JUMP JUMPDEST POP PUSH1 0x20 DUP3 ADD MLOAD PUSH2 0x1A8A PUSH1 0x20 DUP6 ADD DUP3 PUSH2 0x183A JUMP JUMPDEST POP POP POP POP JUMP JUMPDEST PUSH1 0x20 DUP3 ADD PUSH1 0x0 DUP3 ADD MLOAD PUSH2 0x1AA6 PUSH1 0x0 DUP6 ADD DUP3 PUSH2 0x1788 JUMP JUMPDEST POP POP POP POP JUMP JUMPDEST PUSH1 0x20 DUP3 ADD PUSH1 0x0 DUP3 ADD MLOAD PUSH2 0x1AC2 PUSH1 0x0 DUP6 ADD DUP3 PUSH2 0x1AC8 JUMP JUMPDEST POP POP POP POP JUMP JUMPDEST PUSH2 0x1AD1 DUP2 PUSH2 0x1E9E JUMP JUMPDEST DUP3 MSTORE POP POP JUMP JUMPDEST PUSH2 0x1AE0 DUP2 PUSH2 0x1EB8 JUMP JUMPDEST DUP3 MSTORE POP POP JUMP JUMPDEST PUSH1 0x0 PUSH2 0x1AF2 DUP3 DUP5 PUSH2 0x1809 JUMP JUMPDEST SWAP2 POP DUP2 SWAP1 POP SWAP3 SWAP2 POP POP JUMP JUMPDEST PUSH1 0x0 PUSH2 0x1B09 DUP3 DUP5 PUSH2 0x18A0 JUMP JUMPDEST SWAP2 POP DUP2 SWAP1 POP SWAP3 SWAP2 POP POP JUMP JUMPDEST PUSH1 0x0 PUSH1 0x60 DUP3 ADD SWAP1 POP PUSH2 0x1B29 PUSH1 0x0 DUP4 ADD DUP7 PUSH2 0x1849 JUMP JUMPDEST PUSH2 0x1B36 PUSH1 0x20 DUP4 ADD DUP6 PUSH2 0x1858 JUMP JUMPDEST DUP2 DUP2 SUB PUSH1 0x40 DUP4 ADD MSTORE PUSH2 0x1B48 DUP2 DUP5 PUSH2 0x17D0 JUMP JUMPDEST SWAP1 POP SWAP5 SWAP4 POP POP POP POP JUMP JUMPDEST PUSH1 0x0 PUSH1 0x20 DUP3 ADD SWAP1 POP DUP2 DUP2 SUB PUSH1 0x0 DUP4 ADD MSTORE PUSH2 0x1B6B DUP2 PUSH2 0x18D1 JUMP JUMPDEST SWAP1 POP SWAP2 SWAP1 POP JUMP JUMPDEST PUSH1 0x0 PUSH1 0x40 DUP3 ADD SWAP1 POP PUSH2 0x1B87 PUSH1 0x0 DUP4 ADD DUP5 PUSH2 0x18F4 JUMP JUMPDEST SWAP3 SWAP2 POP POP JUMP JUMPDEST PUSH1 0x0 PUSH1 0x40 DUP3 ADD SWAP1 POP PUSH2 0x1BA2 PUSH1 0x0 DUP4 ADD DUP5 PUSH2 0x1923 JUMP JUMPDEST SWAP3 SWAP2 POP POP JUMP JUMPDEST PUSH1 0x0 PUSH1 0x20 DUP3 ADD SWAP1 POP PUSH2 0x1BBD PUSH1 0x0 DUP4 ADD DUP5 PUSH2 0x1952 JUMP JUMPDEST SWAP3 SWAP2 POP POP JUMP JUMPDEST PUSH1 0x0 PUSH1 0x20 DUP3 ADD SWAP1 POP DUP2 DUP2 SUB PUSH1 0x0 DUP4 ADD MSTORE PUSH2 0x1BDD DUP2 DUP5 PUSH2 0x196E JUMP JUMPDEST SWAP1 POP SWAP3 SWAP2 POP POP JUMP JUMPDEST PUSH1 0x0 PUSH1 0x20 DUP3 ADD SWAP1 POP DUP2 DUP2 SUB PUSH1 0x0 DUP4 ADD MSTORE PUSH2 0x1BFF DUP2 DUP5 PUSH2 0x1998 JUMP JUMPDEST SWAP1 POP SWAP3 SWAP2 POP POP JUMP JUMPDEST PUSH1 0x0 PUSH1 0x20 DUP3 ADD SWAP1 POP PUSH2 0x1C1C PUSH1 0x0 DUP4 ADD DUP5 PUSH2 0x19D5 JUMP JUMPDEST SWAP3 SWAP2 POP POP JUMP JUMPDEST PUSH1 0x0 PUSH1 0x20 DUP3 ADD SWAP1 POP DUP2 DUP2 SUB PUSH1 0x0 DUP4 ADD MSTORE PUSH2 0x1C3C DUP2 DUP5 PUSH2 0x19F1 JUMP JUMPDEST SWAP1 POP SWAP3 SWAP2 POP POP JUMP JUMPDEST PUSH1 0x0 PUSH1 0x20 DUP3 ADD SWAP1 POP PUSH2 0x1C59 PUSH1 0x0 DUP4 ADD DUP5 PUSH2 0x1A1B JUMP JUMPDEST SWAP3 SWAP2 POP POP JUMP JUMPDEST PUSH1 0x0 PUSH1 0x20 DUP3 ADD SWAP1 POP DUP2 DUP2 SUB PUSH1 0x0 DUP4 ADD MSTORE PUSH2 0x1C79 DUP2 DUP5 PUSH2 0x1A37 JUMP JUMPDEST SWAP1 POP SWAP3 SWAP2 POP POP JUMP JUMPDEST PUSH1 0x0 PUSH1 0x40 DUP3 ADD SWAP1 POP PUSH2 0x1C96 PUSH1 0x0 DUP4 ADD DUP5 PUSH2 0x1A61 JUMP JUMPDEST SWAP3 SWAP2 POP POP JUMP JUMPDEST PUSH1 0x0 PUSH1 0x20 DUP3 ADD SWAP1 POP PUSH2 0x1CB1 PUSH1 0x0 DUP4 ADD DUP5 PUSH2 0x1A90 JUMP JUMPDEST SWAP3 SWAP2 POP POP JUMP JUMPDEST PUSH1 0x0 PUSH1 0x20 DUP3 ADD SWAP1 POP PUSH2 0x1CCC PUSH1 0x0 DUP4 ADD DUP5 PUSH2 0x1AAC JUMP JUMPDEST SWAP3 SWAP2 POP POP JUMP JUMPDEST PUSH1 0x0 PUSH2 0x1CDC PUSH2 0x1CED JUMP JUMPDEST SWAP1 POP PUSH2 0x1CE8 DUP3 DUP3 PUSH2 0x1F71 JUMP JUMPDEST SWAP2 SWAP1 POP JUMP JUMPDEST PUSH1 0x0 PUSH1 0x40 MLOAD SWAP1 POP SWAP1 JUMP JUMPDEST PUSH1 0x0 PUSH8 0xFFFFFFFFFFFFFFFF DUP3 GT ISZERO PUSH2 0x1D12 JUMPI PUSH2 0x1D11 PUSH2 0x2000 JUMP JUMPDEST JUMPDEST PUSH2 0x1D1B DUP3 PUSH2 0x202F JUMP JUMPDEST SWAP1 POP PUSH1 0x20 DUP2 ADD SWAP1 POP SWAP2 SWAP1 POP JUMP JUMPDEST PUSH1 0x0 PUSH8 0xFFFFFFFFFFFFFFFF DUP3 GT ISZERO PUSH2 0x1D43 JUMPI PUSH2 0x1D42 PUSH2 0x2000 JUMP JUMPDEST JUMPDEST PUSH2 0x1D4C DUP3 PUSH2 0x202F JUMP JUMPDEST SWAP1 POP PUSH1 0x20 DUP2 ADD SWAP1 POP SWAP2 SWAP1 POP JUMP JUMPDEST PUSH1 0x0 DUP2 MLOAD SWAP1 POP SWAP2 SWAP1 POP JUMP JUMPDEST PUSH1 0x0 DUP2 MLOAD SWAP1 POP SWAP2 SWAP1 POP JUMP JUMPDEST PUSH1 0x0 DUP3 DUP3 MSTORE PUSH1 0x20 DUP3 ADD SWAP1 POP SWAP3 SWAP2 POP POP JUMP JUMPDEST PUSH1 0x0 DUP3 DUP3 MSTORE PUSH1 0x20 DUP3 ADD SWAP1 POP SWAP3 SWAP2 POP POP JUMP JUMPDEST PUSH1 0x0 DUP2 SWAP1 POP SWAP3 SWAP2 POP POP JUMP JUMPDEST PUSH1 0x0 DUP3 DUP3 MSTORE PUSH1 0x20 DUP3 ADD SWAP1 POP SWAP3 SWAP2 POP POP JUMP JUMPDEST PUSH1 0x0 DUP3 DUP3 MSTORE PUSH1 0x20 DUP3 ADD SWAP1 POP SWAP3 SWAP2 POP POP JUMP JUMPDEST PUSH1 0x0 DUP2 SWAP1 POP SWAP3 SWAP2 POP POP JUMP JUMPDEST PUSH1 0x0 PUSH2 0x1DD4 DUP3 PUSH2 0x1E9E JUMP JUMPDEST SWAP2 POP PUSH2 0x1DDF DUP4 PUSH2 0x1E9E JUMP JUMPDEST SWAP3 POP DUP3 PUSH32 0xFFFFFFFFFFFFFFFFFFFFFFFFFFFFFFFFFFFFFFFFFFFFFFFFFFFFFFFFFFFFFFFF SUB DUP3 GT ISZERO PUSH2 0x1E14 JUMPI PUSH2 0x1E13 PUSH2 0x1FA2 JUMP JUMPDEST JUMPDEST DUP3 DUP3 ADD SWAP1 POP SWAP3 SWAP2 POP POP JUMP JUMPDEST PUSH1 0x0 PUSH2 0x1E2A DUP3 PUSH2 0x1E9E JUMP JUMPDEST SWAP2 POP PUSH2 0x1E35 DUP4 PUSH2 0x1E9E JUMP JUMPDEST SWAP3 POP DUP3 DUP3 LT ISZERO PUSH2 0x1E48 JUMPI PUSH2 0x1E47 PUSH2 0x1FA2 JUMP JUMPDEST JUMPDEST DUP3 DUP3 SUB SWAP1 POP SWAP3 SWAP2 POP POP JUMP JUMPDEST PUSH1 0x0 PUSH2 0x1E5E DUP3 PUSH2 0x1E7E JUMP JUMPDEST SWAP1 POP SWAP2 SWAP1 POP JUMP JUMPDEST PUSH1 0x0 DUP2 ISZERO ISZERO SWAP1 POP SWAP2 SWAP1 POP JUMP JUMPDEST PUSH1 0x0 DUP2 PUSH1 0x7 SIGNEXTEND SWAP1 POP SWAP2 SWAP1 POP JUMP JUMPDEST PUSH1 0x0 PUSH20 0xFFFFFFFFFFFFFFFFFFFFFFFFFFFFFFFFFFFFFFFF DUP3 AND SWAP1 POP SWAP2 SWAP1 POP JUMP JUMPDEST PUSH1 0x0 DUP2 SWAP1 POP SWAP2 SWAP1 POP JUMP JUMPDEST PUSH1 0x0 PUSH4 0xFFFFFFFF DUP3 AND SWAP1 POP SWAP2 SWAP1 POP JUMP JUMPDEST PUSH1 0x0 PUSH8 0xFFFFFFFFFFFFFFFF DUP3 AND SWAP1 POP SWAP2 SWAP1 POP JUMP JUMPDEST PUSH1 0x0 PUSH1 0xFF DUP3 AND SWAP1 POP SWAP2 SWAP1 POP JUMP JUMPDEST PUSH1 0x0 PUSH2 0x1EE4 DUP3 PUSH2 0x1ECC JUMP JUMPDEST SWAP1 POP SWAP2 SWAP1 POP JUMP JUMPDEST PUSH1 0x0 PUSH2 0x1EF6 DUP3 PUSH2 0x1EA8 JUMP JUMPDEST SWAP1 POP SWAP2 SWAP1 POP JUMP JUMPDEST DUP3 DUP2 DUP4 CALLDATACOPY PUSH1 0x0 DUP4 DUP4 ADD MSTORE POP POP POP JUMP JUMPDEST PUSH1 0x0 JUMPDEST DUP4 DUP2 LT ISZERO PUSH2 0x1F2A JUMPI DUP1 DUP3 ADD MLOAD DUP2 DUP5 ADD MSTORE PUSH1 0x20 DUP2 ADD SWAP1 POP PUSH2 0x1F0F JUMP JUMPDEST DUP4 DUP2 GT ISZERO PUSH2 0x1F39 JUMPI PUSH1 0x0 DUP5 DUP5 ADD MSTORE JUMPDEST POP POP POP POP JUMP JUMPDEST PUSH1 0x0 PUSH1 0x2 DUP3 DIV SWAP1 POP PUSH1 0x1 DUP3 AND DUP1 PUSH2 0x1F57 JUMPI PUSH1 0x7F DUP3 AND SWAP2 POP JUMPDEST PUSH1 0x20 DUP3 LT DUP2 EQ ISZERO PUSH2 0x1F6B JUMPI PUSH2 0x1F6A PUSH2 0x1FD1 JUMP JUMPDEST JUMPDEST POP SWAP2 SWAP1 POP JUMP JUMPDEST PUSH2 0x1F7A DUP3 PUSH2 0x202F JUMP JUMPDEST DUP2 ADD DUP2 DUP2 LT PUSH8 0xFFFFFFFFFFFFFFFF DUP3 GT OR ISZERO PUSH2 0x1F99 JUMPI PUSH2 0x1F98 PUSH2 0x2000 JUMP JUMPDEST JUMPDEST DUP1 PUSH1 0x40 MSTORE POP POP POP JUMP JUMPDEST PUSH32 0x4E487B7100000000000000000000000000000000000000000000000000000000 PUSH1 0x0 MSTORE PUSH1 0x11 PUSH1 0x4 MSTORE PUSH1 0x24 PUSH1 0x0 REVERT JUMPDEST PUSH32 0x4E487B7100000000000000000000000000000000000000000000000000000000 PUSH1 0x0 MSTORE PUSH1 0x22 PUSH1 0x4 MSTORE PUSH1 0x24 PUSH1 0x0 REVERT JUMPDEST PUSH32 0x4E487B7100000000000000000000000000000000000000000000000000000000 PUSH1 0x0 MSTORE PUSH1 0x41 PUSH1 0x4 MSTORE PUSH1 0x24 PUSH1 0x0 REVERT JUMPDEST PUSH1 0x0 PUSH1 0x1F NOT PUSH1 0x1F DUP4 ADD AND SWAP1 POP SWAP2 SWAP1 POP JUMP JUMPDEST PUSH32 0x636C69656E7420636F6E7472616374206661696C656420746F20617574686F72 PUSH1 0x0 DUP3 ADD MSTORE PUSH32 0x697A65206465616C207075626C69736800000000000000000000000000000000 PUSH1 0x20 DUP3 ADD MSTORE POP JUMP JUMPDEST PUSH2 0x2098 DUP2 PUSH2 0x1E53 JUMP JUMPDEST DUP2 EQ PUSH2 0x20A3 JUMPI PUSH1 0x0 DUP1 REVERT JUMPDEST POP JUMP JUMPDEST PUSH2 0x20AF DUP2 PUSH2 0x1E9E JUMP JUMPDEST DUP2 EQ PUSH2 0x20BA JUMPI PUSH1 0x0 DUP1 REVERT JUMPDEST POP JUMP JUMPDEST PUSH2 0x20C6 DUP2 PUSH2 0x1EB8 JUMP JUMPDEST DUP2 EQ PUSH2 0x20D1 JUMPI PUSH1 0x0 DUP1 REVERT JUMPDEST POP JUMP INVALID LOG2 PUSH5 0x6970667358 0x22 SLT KECCAK256 CALL 0xA5 SWAP11 0xC2 0xEC 0xD PUSH11 0x814E51EC81CBF8BBBBD7FA 0xBB GT 0xC 0x2A PUSH13 0x7FF37C88C97500B67564736F6C PUSH4 0x43000804 STOP CALLER PUSH3 0x616761 CALLDATASIZE PUSH6 0x613473656171 PUSH13 0x6B67366D737335717335366A71 PUSH21 0x616A673579637268706B6A326236366367646B756B PUSH7 0x32716A6D6D7A7A CALLDATASIZE PUSH2 0x796B PUSH20 0x7563696D41584367354149673859425862466A74 PUSH5 0x427931695A PUSH11 0x704459417752537430656C SELFBALANCE 0x4C CHAINID CALLDATALOAD SELFBALANCE PUSH23 0x5471756C4569693156634D000000000000000000000000 "},"methodIdentifiers":{"add_balance((string))":"ebf66ef1","get_balance(string)":"65a9b4a0","get_deal_activation((uint64))":"f241560c","get_deal_client((uint64))":"8b7f02fd","get_deal_client_collateral((uint64))":"8777b7c8","get_deal_data_commitment((uint64))":"991e04a4","get_deal_label((uint64))":"9f4b7c7d","get_deal_provider((uint64))":"55d95609","get_deal_provider_collateral((uint64))":"1a2811e7","get_deal_term((uint64))":"ad36f184","get_deal_total_price((uint64))":"412a4b9a","get_deal_verified((uint64))":"5c4ddef3","publish_storage_deals(bytes,address)":"34409642","withdraw_balance((string,uint256))":"13178dc1"}}}}}