{
  "_format": "hh-sol-artifact-1",
  "contractName": "MinerAPI",
  "sourceName": "contracts/filecoinMockAPIs/MinerAPI.sol",
  "abi": [
    {
      "inputs": [
        {
          "internalType": "string",
          "name": "_owner",
          "type": "string"
        }
      ],
      "stateMutability": "nonpayable",
      "type": "constructor"
    },
    {
      "inputs": [
        {
          "components": [
            {
              "internalType": "string",
              "name": "new_beneficiary",
              "type": "string"
            },
            {
              "internalType": "int256",
              "name": "new_quota",
              "type": "int256"
            },
            {
              "internalType": "uint64",
              "name": "new_expiration",
              "type": "uint64"
            }
          ],
          "internalType": "struct MinerTypes.ChangeBeneficiaryParams",
          "name": "params",
          "type": "tuple"
        }
      ],
      "name": "change_beneficiary",
      "outputs": [],
      "stateMutability": "nonpayable",
      "type": "function"
    },
    {
      "inputs": [
        {
          "internalType": "string",
          "name": "addr",
          "type": "string"
        }
      ],
      "name": "change_owner_address",
      "outputs": [],
      "stateMutability": "nonpayable",
      "type": "function"
    },
    {
      "inputs": [],
      "name": "get_available_balance",
      "outputs": [
        {
          "components": [
            {
              "internalType": "int256",
              "name": "available_balance",
              "type": "int256"
            }
          ],
          "internalType": "struct MinerTypes.GetAvailableBalanceReturn",
          "name": "",
          "type": "tuple"
        }
      ],
      "stateMutability": "pure",
      "type": "function"
    },
    {
      "inputs": [],
      "name": "get_beneficiary",
      "outputs": [
        {
          "components": [
            {
              "components": [
                {
                  "internalType": "string",
                  "name": "beneficiary",
                  "type": "string"
                },
                {
                  "components": [
                    {
                      "internalType": "int256",
                      "name": "quota",
                      "type": "int256"
                    },
                    {
                      "internalType": "int256",
                      "name": "used_quota",
                      "type": "int256"
                    },
                    {
                      "internalType": "uint64",
                      "name": "expiration",
                      "type": "uint64"
                    }
                  ],
                  "internalType": "struct CommonTypes.BeneficiaryTerm",
                  "name": "term",
                  "type": "tuple"
                }
              ],
              "internalType": "struct CommonTypes.ActiveBeneficiary",
              "name": "active",
              "type": "tuple"
            },
            {
              "components": [
                {
                  "internalType": "bytes",
                  "name": "new_beneficiary",
                  "type": "bytes"
                },
                {
                  "internalType": "int256",
                  "name": "new_quota",
                  "type": "int256"
                },
                {
                  "internalType": "uint64",
                  "name": "new_expiration",
                  "type": "uint64"
                },
                {
                  "internalType": "bool",
                  "name": "approved_by_beneficiary",
                  "type": "bool"
                },
                {
                  "internalType": "bool",
                  "name": "approved_by_nominee",
                  "type": "bool"
                }
              ],
              "internalType": "struct CommonTypes.PendingBeneficiaryChange",
              "name": "proposed",
              "type": "tuple"
            }
          ],
          "internalType": "struct MinerTypes.GetBeneficiaryReturn",
          "name": "",
          "type": "tuple"
        }
      ],
      "stateMutability": "view",
      "type": "function"
    },
    {
      "inputs": [],
      "name": "get_owner",
      "outputs": [
        {
          "components": [
            {
              "internalType": "string",
              "name": "owner",
              "type": "string"
            }
          ],
          "internalType": "struct MinerTypes.GetOwnerReturn",
          "name": "",
          "type": "tuple"
        }
      ],
      "stateMutability": "view",
      "type": "function"
    },
    {
      "inputs": [],
      "name": "get_sector_size",
      "outputs": [
        {
          "components": [
            {
              "internalType": "uint64",
              "name": "sector_size",
              "type": "uint64"
            }
          ],
          "internalType": "struct MinerTypes.GetSectorSizeReturn",
          "name": "",
          "type": "tuple"
        }
      ],
      "stateMutability": "view",
      "type": "function"
    },
    {
      "inputs": [],
      "name": "get_vesting_funds",
      "outputs": [
        {
          "components": [
            {
              "components": [
                {
                  "internalType": "int64",
                  "name": "epoch",
                  "type": "int64"
                },
                {
                  "internalType": "int256",
                  "name": "amount",
                  "type": "int256"
                }
              ],
              "internalType": "struct CommonTypes.VestingFunds[]",
              "name": "vesting_funds",
              "type": "tuple[]"
            }
          ],
          "internalType": "struct MinerTypes.GetVestingFundsReturn",
          "name": "",
          "type": "tuple"
        }
      ],
      "stateMutability": "pure",
      "type": "function"
    },
    {
      "inputs": [
        {
          "components": [
            {
              "internalType": "string",
              "name": "addr",
              "type": "string"
            }
          ],
          "internalType": "struct MinerTypes.IsControllingAddressParam",
          "name": "params",
          "type": "tuple"
        }
      ],
      "name": "is_controlling_address",
      "outputs": [
        {
          "components": [
            {
              "internalType": "bool",
              "name": "is_controlling",
              "type": "bool"
            }
          ],
          "internalType": "struct MinerTypes.IsControllingAddressReturn",
          "name": "",
          "type": "tuple"
        }
      ],
      "stateMutability": "pure",
      "type": "function"
    },
    {
      "inputs": [
        {
          "internalType": "string",
          "name": "addr",
          "type": "string"
        }
      ],
      "name": "mock_set_owner",
      "outputs": [],
      "stateMutability": "nonpayable",
      "type": "function"
    }
  ],
  "bytecode": "0x60806040526000600160006101000a81548160ff0219169083151502179055503480156200002c57600080fd5b506040516200187f3803806200187f833981810160405281019062000052919062000506565b80600090805190602001906200006a929190620003e4565b5061080060066000806004811115620000ac577f4e487b7100000000000000000000000000000000000000000000000000000000600052602160045260246000fd5b6004811115620000e5577f4e487b7100000000000000000000000000000000000000000000000000000000600052602160045260246000fd5b815260200190815260200160002060006101000a81548167ffffffffffffffff021916908367ffffffffffffffff1602179055506280000060066000600160048111156200015c577f4e487b7100000000000000000000000000000000000000000000000000000000600052602160045260246000fd5b600481111562000195577f4e487b7100000000000000000000000000000000000000000000000000000000600052602160045260246000fd5b815260200190815260200160002060006101000a81548167ffffffffffffffff021916908367ffffffffffffffff160217905550632000000060066000600260048111156200020d577f4e487b7100000000000000000000000000000000000000000000000000000000600052602160045260246000fd5b600481111562000246577f4e487b7100000000000000000000000000000000000000000000000000000000600052602160045260246000fd5b815260200190815260200160002060006101000a81548167ffffffffffffffff021916908367ffffffffffffffff1602179055506408000000006006600060036004811115620002bf577f4e487b7100000000000000000000000000000000000000000000000000000000600052602160045260246000fd5b6004811115620002f8577f4e487b7100000000000000000000000000000000000000000000000000000000600052602160045260246000fd5b815260200190815260200160002060006101000a81548167ffffffffffffffff021916908367ffffffffffffffff1602179055506410000000006006600060048081111562000370577f4e487b7100000000000000000000000000000000000000000000000000000000600052602160045260246000fd5b6004811115620003a9577f4e487b7100000000000000000000000000000000000000000000000000000000600052602160045260246000fd5b815260200190815260200160002060006101000a81548167ffffffffffffffff021916908367ffffffffffffffff16021790555050620006bb565b828054620003f290620005e0565b90600052602060002090601f01602090048101928262000416576000855562000462565b82601f106200043157805160ff191683800117855562000462565b8280016001018555821562000462579182015b828111156200046157825182559160200191906001019062000444565b5b50905062000471919062000475565b5090565b5b808211156200049057600081600090555060010162000476565b5090565b6000620004ab620004a58462000574565b6200054b565b905082815260208101848484011115620004c457600080fd5b620004d1848285620005aa565b509392505050565b600082601f830112620004eb57600080fd5b8151620004fd84826020860162000494565b91505092915050565b6000602082840312156200051957600080fd5b600082015167ffffffffffffffff8111156200053457600080fd5b6200054284828501620004d9565b91505092915050565b6000620005576200056a565b905062000565828262000616565b919050565b6000604051905090565b600067ffffffffffffffff8211156200059257620005916200067b565b5b6200059d82620006aa565b9050602081019050919050565b60005b83811015620005ca578082015181840152602081019050620005ad565b83811115620005da576000848401525b50505050565b60006002820490506001821680620005f957607f821691505b6020821081141562000610576200060f6200064c565b5b50919050565b6200062182620006aa565b810181811067ffffffffffffffff821117156200064357620006426200067b565b5b80604052505050565b7f4e487b7100000000000000000000000000000000000000000000000000000000600052602260045260246000fd5b7f4e487b7100000000000000000000000000000000000000000000000000000000600052604160045260246000fd5b6000601f19601f8301169050919050565b6111b480620006cb6000396000f3fe608060405234801561001057600080fd5b50600436106100935760003560e01c806381ab68dd1161006657806381ab68dd1461010e578063a9b494a11461012a578063d9fc907e14610148578063e8d3863314610166578063f5cd020c1461019657610093565b80630ac298dc14610098578063207f2cec146100b6578063214c471c146100d257806359cf9e17146100f0575b600080fd5b6100a06101b2565b6040516100ad9190610ec4565b60405180910390f35b6100d060048036038101906100cb9190610a90565b610273565b005b6100da61028d565b6040516100e79190610f01565b60405180910390f35b6100f8610393565b6040516101059190610e87565b60405180910390f35b61012860048036038101906101239190610ad1565b6103b9565b005b61013261050e565b60405161013f9190610ee6565b60405180910390f35b6101506105cc565b60405161015d9190610ea2565b60405180910390f35b610180600480360381019061017b9190610b12565b610708565b60405161018d9190610f23565b60405180910390f35b6101b060048036038101906101ab9190610a90565b610729565b005b6101ba61075d565b60008080546101c89061107e565b905014156101d557600080fd5b6040518060200160405280600080546101ed9061107e565b80601f01602080910402602001604051908101604052809291908181526020018280546102199061107e565b80156102665780601f1061023b57610100808354040283529160200191610266565b820191906000526020600020905b81548152906001019060200180831161024957829003601f168201915b5050505050815250905090565b8060009080519060200190610289929190610770565b5050565b6102956107f6565b6000600167ffffffffffffffff8111156102d8577f4e487b7100000000000000000000000000000000000000000000000000000000600052604160045260246000fd5b60405190808252806020026020018201604052801561031157816020015b6102fe610809565b8152602001906001900390816102f65790505b5090506040518060400160405280636373840960070b8152602001686c6b935b8bbd40000081525081600081518110610373577f4e487b7100000000000000000000000000000000000000000000000000000000600052603260045260246000fd5b602002602001018190525060405180602001604052808281525091505090565b61039b610826565b604051806020016040528069021e19e0c9bab2400000815250905090565b600160009054906101000a900460ff166104a857600060405180606001604052808360200151815260200160008152602001836040015167ffffffffffffffff1681525090506040518060400160405280836000015181526020018281525060026000820151816000019080519060200190610436929190610770565b50602082015181600101600082015181600001556020820151816001015560408201518160020160006101000a81548167ffffffffffffffff021916908367ffffffffffffffff160217905550505090505060018060006101000a81548160ff0219169083151502179055505061050b565b8060000151600260000190805190602001906104c5929190610770565b5080602001516002600101600001819055508060400151600260010160020160006101000a81548167ffffffffffffffff021916908367ffffffffffffffff1602179055505b50565b610516610839565b6040518060200160405280600660006001600481111561055f577f4e487b7100000000000000000000000000000000000000000000000000000000600052602160045260246000fd5b6004811115610597577f4e487b7100000000000000000000000000000000000000000000000000000000600052602160045260246000fd5b815260200190815260200160002060009054906101000a900467ffffffffffffffff1667ffffffffffffffff16815250905090565b6105d4610856565b600160009054906101000a900460ff166105ed57600080fd5b6105f561087c565b6040518060400160405280600260405180604001604052908160008201805461061d9061107e565b80601f01602080910402602001604051908101604052809291908181526020018280546106499061107e565b80156106965780601f1061066b57610100808354040283529160200191610696565b820191906000526020600020905b81548152906001019060200180831161067957829003601f168201915b505050505081526020016001820160405180606001604052908160008201548152602001600182015481526020016002820160009054906101000a900467ffffffffffffffff1667ffffffffffffffff1667ffffffffffffffff16815250508152505081526020018281525091505090565b6107106108b9565b6040518060200160405280600015158152509050919050565b60008080546107379061107e565b90501461074357600080fd5b8060009080519060200190610759929190610770565b5050565b6040518060200160405280606081525090565b82805461077c9061107e565b90600052602060002090601f01602090048101928261079e57600085556107e5565b82601f106107b757805160ff19168380011785556107e5565b828001600101855582156107e5579182015b828111156107e45782518255916020019190600101906107c9565b5b5090506107f291906108ce565b5090565b6040518060200160405280606081525090565b6040518060400160405280600060070b8152602001600081525090565b6040518060200160405280600081525090565b6040518060200160405280600067ffffffffffffffff1681525090565b60405180604001604052806108696108eb565b815260200161087661087c565b81525090565b6040518060a001604052806060815260200160008152602001600067ffffffffffffffff1681526020016000151581526020016000151581525090565b60405180602001604052806000151581525090565b5b808211156108e75760008160009055506001016108cf565b5090565b60405180604001604052806060815260200161090561090b565b81525090565b60405180606001604052806000815260200160008152602001600067ffffffffffffffff1681525090565b600061094961094484610f63565b610f3e565b90508281526020810184848401111561096157600080fd5b61096c84828561103c565b509392505050565b60008135905061098381611150565b92915050565b600082601f83011261099a57600080fd5b81356109aa848260208601610936565b91505092915050565b6000606082840312156109c557600080fd5b6109cf6060610f3e565b9050600082013567ffffffffffffffff8111156109eb57600080fd5b6109f784828501610989565b6000830152506020610a0b84828501610974565b6020830152506040610a1f84828501610a7b565b60408301525092915050565b600060208284031215610a3d57600080fd5b610a476020610f3e565b9050600082013567ffffffffffffffff811115610a6357600080fd5b610a6f84828501610989565b60008301525092915050565b600081359050610a8a81611167565b92915050565b600060208284031215610aa257600080fd5b600082013567ffffffffffffffff811115610abc57600080fd5b610ac884828501610989565b91505092915050565b600060208284031215610ae357600080fd5b600082013567ffffffffffffffff811115610afd57600080fd5b610b09848285016109b3565b91505092915050565b600060208284031215610b2457600080fd5b600082013567ffffffffffffffff811115610b3e57600080fd5b610b4a84828501610a2b565b91505092915050565b6000610b5f8383610e49565b60408301905092915050565b6000610b7682610fa4565b610b808185610fd2565b9350610b8b83610f94565b8060005b83811015610bbc578151610ba38882610b53565b9750610bae83610fc5565b925050600181019050610b8f565b5085935050505092915050565b610bd281611005565b82525050565b6000610be382610faf565b610bed8185610fe3565b9350610bfd81856020860161104b565b610c068161113f565b840191505092915050565b610c1a81611011565b82525050565b610c298161101b565b82525050565b6000610c3a82610fba565b610c448185610ff4565b9350610c5481856020860161104b565b610c5d8161113f565b840191505092915050565b60006080830160008301518482036000860152610c858282610c2f565b9150506020830151610c9a6020860182610ca5565b508091505092915050565b606082016000820151610cbb6000850182610c11565b506020820151610cce6020850182610c11565b506040820151610ce16040850182610e78565b50505050565b602082016000820151610cfd6000850182610c11565b50505050565b60006040830160008301518482036000860152610d208282610c68565b91505060208301518482036020860152610d3a8282610dd3565b9150508091505092915050565b60006020830160008301518482036000860152610d648282610c2f565b9150508091505092915050565b602082016000820151610d876000850182610e78565b50505050565b60006020830160008301518482036000860152610daa8282610b6b565b9150508091505092915050565b602082016000820151610dcd6000850182610bc9565b50505050565b600060a0830160008301518482036000860152610df08282610bd8565b9150506020830151610e056020860182610c11565b506040830151610e186040860182610e78565b506060830151610e2b6060860182610bc9565b506080830151610e3e6080860182610bc9565b508091505092915050565b604082016000820151610e5f6000850182610c20565b506020820151610e726020850182610c11565b50505050565b610e8181611028565b82525050565b6000602082019050610e9c6000830184610ce7565b92915050565b60006020820190508181036000830152610ebc8184610d03565b905092915050565b60006020820190508181036000830152610ede8184610d47565b905092915050565b6000602082019050610efb6000830184610d71565b92915050565b60006020820190508181036000830152610f1b8184610d8d565b905092915050565b6000602082019050610f386000830184610db7565b92915050565b6000610f48610f59565b9050610f5482826110b0565b919050565b6000604051905090565b600067ffffffffffffffff821115610f7e57610f7d611110565b5b610f878261113f565b9050602081019050919050565b6000819050602082019050919050565b600081519050919050565b600081519050919050565b600081519050919050565b6000602082019050919050565b600082825260208201905092915050565b600082825260208201905092915050565b600082825260208201905092915050565b60008115159050919050565b6000819050919050565b60008160070b9050919050565b600067ffffffffffffffff82169050919050565b82818337600083830152505050565b60005b8381101561106957808201518184015260208101905061104e565b83811115611078576000848401525b50505050565b6000600282049050600182168061109657607f821691505b602082108114156110aa576110a96110e1565b5b50919050565b6110b98261113f565b810181811067ffffffffffffffff821117156110d8576110d7611110565b5b80604052505050565b7f4e487b7100000000000000000000000000000000000000000000000000000000600052602260045260246000fd5b7f4e487b7100000000000000000000000000000000000000000000000000000000600052604160045260246000fd5b6000601f19601f8301169050919050565b61115981611011565b811461116457600080fd5b50565b61117081611028565b811461117b57600080fd5b5056fea2646970667358221220c5198fb6d507ff17edad5de41481c93569cde467f92006130e4a3cf38690158464736f6c63430008040033",
  "linkReferences": {},
  "deployedLinkReferences": {}
}