{
  "_format": "hh-sol-artifact-1",
  "contractName": "PeerReview",
  "sourceName": "contracts/PeerReview.sol",
  "abi": [
    {
      "inputs": [],
      "stateMutability": "nonpayable",
      "type": "constructor"
    },
    {
      "anonymous": false,
      "inputs": [
        {
          "indexed": true,
          "internalType": "address",
          "name": "owner",
          "type": "address"
        },
        {
          "indexed": true,
          "internalType": "address",
          "name": "approved",
          "type": "address"
        },
        {
          "indexed": true,
          "internalType": "uint256",
          "name": "tokenId",
          "type": "uint256"
        }
      ],
      "name": "Approval",
      "type": "event"
    },
    {
      "anonymous": false,
      "inputs": [
        {
          "indexed": true,
          "internalType": "address",
          "name": "owner",
          "type": "address"
        },
        {
          "indexed": true,
          "internalType": "address",
          "name": "operator",
          "type": "address"
        },
        {
          "indexed": false,
          "internalType": "bool",
          "name": "approved",
          "type": "bool"
        }
      ],
      "name": "ApprovalForAll",
      "type": "event"
    },
    {
      "anonymous": false,
      "inputs": [
        {
          "indexed": true,
          "internalType": "address",
          "name": "from",
          "type": "address"
        },
        {
          "indexed": true,
          "internalType": "address",
          "name": "to",
          "type": "address"
        },
        {
          "indexed": true,
          "internalType": "uint256",
          "name": "tokenId",
          "type": "uint256"
        }
      ],
      "name": "Transfer",
      "type": "event"
    },
    {
      "inputs": [
        {
          "internalType": "address",
          "name": "",
          "type": "address"
        }
      ],
      "name": "addressToDaoMember",
      "outputs": [
        {
          "internalType": "address",
          "name": "_address",
          "type": "address"
        },
        {
          "internalType": "bool",
          "name": "isMember",
          "type": "bool"
        },
        {
          "internalType": "uint256",
          "name": "nftId",
          "type": "uint256"
        },
        {
          "internalType": "uint256",
          "name": "returnAmount",
          "type": "uint256"
        }
      ],
      "stateMutability": "view",
      "type": "function"
    },
    {
      "inputs": [
        {
          "internalType": "address",
          "name": "",
          "type": "address"
        }
      ],
      "name": "addressToJournalMember",
      "outputs": [
        {
          "internalType": "address",
          "name": "_address",
          "type": "address"
        },
        {
          "internalType": "bool",
          "name": "isMember",
          "type": "bool"
        },
        {
          "internalType": "uint256",
          "name": "nftId",
          "type": "uint256"
        },
        {
          "internalType": "uint256",
          "name": "returnAmount",
          "type": "uint256"
        }
      ],
      "stateMutability": "view",
      "type": "function"
    },
    {
      "inputs": [
        {
          "internalType": "uint256",
          "name": "journalId",
          "type": "uint256"
        }
      ],
      "name": "allowProposal",
      "outputs": [
        {
          "internalType": "uint256",
          "name": "",
          "type": "uint256"
        }
      ],
      "stateMutability": "nonpayable",
      "type": "function"
    },
    {
      "inputs": [
        {
          "internalType": "address",
          "name": "to",
          "type": "address"
        },
        {
          "internalType": "uint256",
          "name": "tokenId",
          "type": "uint256"
        }
      ],
      "name": "approve",
      "outputs": [],
      "stateMutability": "nonpayable",
      "type": "function"
    },
    {
      "inputs": [
        {
          "internalType": "address",
          "name": "owner",
          "type": "address"
        }
      ],
      "name": "balanceOf",
      "outputs": [
        {
          "internalType": "uint256",
          "name": "",
          "type": "uint256"
        }
      ],
      "stateMutability": "view",
      "type": "function"
    },
    {
      "inputs": [
        {
          "internalType": "address",
          "name": "_user",
          "type": "address"
        },
        {
          "internalType": "string",
          "name": "_reason",
          "type": "string"
        }
      ],
      "name": "createPenalty",
      "outputs": [
        {
          "internalType": "uint256",
          "name": "",
          "type": "uint256"
        }
      ],
      "stateMutability": "nonpayable",
      "type": "function"
    },
    {
      "inputs": [
        {
          "internalType": "string",
          "name": "_cid",
          "type": "string"
        },
        {
          "internalType": "uint256",
          "name": "_size",
          "type": "uint256"
        },
        {
          "internalType": "string",
          "name": "_name",
          "type": "string"
        }
      ],
      "name": "createProposal",
      "outputs": [
        {
          "internalType": "uint256",
          "name": "",
          "type": "uint256"
        }
      ],
      "stateMutability": "payable",
      "type": "function"
    },
    {
      "inputs": [
        {
          "internalType": "uint256",
          "name": "",
          "type": "uint256"
        }
      ],
      "name": "daoMembersTracking",
      "outputs": [
        {
          "internalType": "address",
          "name": "",
          "type": "address"
        }
      ],
      "stateMutability": "view",
      "type": "function"
    },
    {
      "inputs": [
        {
          "internalType": "uint256",
          "name": "proposalId",
          "type": "uint256"
        }
      ],
      "name": "downvote",
      "outputs": [],
      "stateMutability": "nonpayable",
      "type": "function"
    },
    {
      "inputs": [
        {
          "internalType": "uint256",
          "name": "penaltyProposalId",
          "type": "uint256"
        }
      ],
      "name": "downvotePenalty",
      "outputs": [],
      "stateMutability": "nonpayable",
      "type": "function"
    },
    {
      "inputs": [
        {
          "internalType": "uint256",
          "name": "proposalId",
          "type": "uint256"
        }
      ],
      "name": "execute",
      "outputs": [
        {
          "internalType": "bool",
          "name": "",
          "type": "bool"
        }
      ],
      "stateMutability": "nonpayable",
      "type": "function"
    },
    {
      "inputs": [
        {
          "internalType": "uint256",
          "name": "penaltyProposalId",
          "type": "uint256"
        }
      ],
      "name": "executePenalty",
      "outputs": [],
      "stateMutability": "nonpayable",
      "type": "function"
    },
    {
      "inputs": [
        {
          "internalType": "uint256",
          "name": "tokenId",
          "type": "uint256"
        }
      ],
      "name": "getApproved",
      "outputs": [
        {
          "internalType": "address",
          "name": "",
          "type": "address"
        }
      ],
      "stateMutability": "view",
      "type": "function"
    },
    {
      "inputs": [
        {
          "internalType": "uint256",
          "name": "",
          "type": "uint256"
        }
      ],
      "name": "idToJournal",
      "outputs": [
        {
          "internalType": "string",
          "name": "cid",
          "type": "string"
        },
        {
          "internalType": "uint256",
          "name": "size",
          "type": "uint256"
        },
        {
          "internalType": "string",
          "name": "name",
          "type": "string"
        },
        {
          "internalType": "address",
          "name": "author",
          "type": "address"
        },
        {
          "internalType": "uint256",
          "name": "storagePrice",
          "type": "uint256"
        }
      ],
      "stateMutability": "view",
      "type": "function"
    },
    {
      "inputs": [
        {
          "internalType": "uint256",
          "name": "",
          "type": "uint256"
        }
      ],
      "name": "idToPenalty",
      "outputs": [
        {
          "internalType": "address",
          "name": "user",
          "type": "address"
        },
        {
          "internalType": "string",
          "name": "reason",
          "type": "string"
        },
        {
          "internalType": "uint256",
          "name": "penaltyUpvote",
          "type": "uint256"
        },
        {
          "internalType": "uint256",
          "name": "penaltyDownvote",
          "type": "uint256"
        },
        {
          "internalType": "uint256",
          "name": "deadline",
          "type": "uint256"
        },
        {
          "internalType": "bool",
          "name": "executed",
          "type": "bool"
        }
      ],
      "stateMutability": "view",
      "type": "function"
    },
    {
      "inputs": [
        {
          "internalType": "uint256",
          "name": "",
          "type": "uint256"
        }
      ],
      "name": "idToProposal",
      "outputs": [
        {
          "internalType": "string",
          "name": "cid",
          "type": "string"
        },
        {
          "internalType": "uint256",
          "name": "size",
          "type": "uint256"
        },
        {
          "internalType": "string",
          "name": "name",
          "type": "string"
        },
        {
          "internalType": "address",
          "name": "author",
          "type": "address"
        },
        {
          "internalType": "uint256",
          "name": "storagePrice",
          "type": "uint256"
        },
        {
          "internalType": "uint256",
          "name": "upvote",
          "type": "uint256"
        },
        {
          "internalType": "uint256",
          "name": "downvote",
          "type": "uint256"
        },
        {
          "internalType": "uint256",
          "name": "deadline",
          "type": "uint256"
        },
        {
          "internalType": "bool",
          "name": "executed",
          "type": "bool"
        },
        {
          "internalType": "bool",
          "name": "canWeStoreThis",
          "type": "bool"
        }
      ],
      "stateMutability": "view",
      "type": "function"
    },
    {
      "inputs": [
        {
          "internalType": "uint256",
          "name": "",
          "type": "uint256"
        }
      ],
      "name": "idToReviewed",
      "outputs": [
        {
          "internalType": "string",
          "name": "cid",
          "type": "string"
        },
        {
          "internalType": "uint256",
          "name": "size",
          "type": "uint256"
        },
        {
          "internalType": "string",
          "name": "name",
          "type": "string"
        },
        {
          "internalType": "address",
          "name": "author",
          "type": "address"
        }
      ],
      "stateMutability": "view",
      "type": "function"
    },
    {
      "inputs": [
        {
          "internalType": "address",
          "name": "owner",
          "type": "address"
        },
        {
          "internalType": "address",
          "name": "operator",
          "type": "address"
        }
      ],
      "name": "isApprovedForAll",
      "outputs": [
        {
          "internalType": "bool",
          "name": "",
          "type": "bool"
        }
      ],
      "stateMutability": "view",
      "type": "function"
    },
    {
      "inputs": [],
      "name": "joinDao",
      "outputs": [],
      "stateMutability": "payable",
      "type": "function"
    },
    {
      "inputs": [],
      "name": "joinEditor",
      "outputs": [],
      "stateMutability": "payable",
      "type": "function"
    },
    {
      "inputs": [],
      "name": "leaveDao",
      "outputs": [],
      "stateMutability": "nonpayable",
      "type": "function"
    },
    {
      "inputs": [],
      "name": "leaveEditor",
      "outputs": [],
      "stateMutability": "nonpayable",
      "type": "function"
    },
    {
      "inputs": [],
      "name": "name",
      "outputs": [
        {
          "internalType": "string",
          "name": "",
          "type": "string"
        }
      ],
      "stateMutability": "view",
      "type": "function"
    },
    {
      "inputs": [],
      "name": "numDaoMembers",
      "outputs": [
        {
          "internalType": "uint256",
          "name": "",
          "type": "uint256"
        }
      ],
      "stateMutability": "view",
      "type": "function"
    },
    {
      "inputs": [],
      "name": "numEditors",
      "outputs": [
        {
          "internalType": "uint256",
          "name": "",
          "type": "uint256"
        }
      ],
      "stateMutability": "view",
      "type": "function"
    },
    {
      "inputs": [],
      "name": "numJournals",
      "outputs": [
        {
          "internalType": "uint256",
          "name": "",
          "type": "uint256"
        }
      ],
      "stateMutability": "view",
      "type": "function"
    },
    {
      "inputs": [],
      "name": "numPenaltyProposal",
      "outputs": [
        {
          "internalType": "uint256",
          "name": "",
          "type": "uint256"
        }
      ],
      "stateMutability": "view",
      "type": "function"
    },
    {
      "inputs": [],
      "name": "numProposal",
      "outputs": [
        {
          "internalType": "uint256",
          "name": "",
          "type": "uint256"
        }
      ],
      "stateMutability": "view",
      "type": "function"
    },
    {
      "inputs": [],
      "name": "numReviewed",
      "outputs": [
        {
          "internalType": "uint256",
          "name": "",
          "type": "uint256"
        }
      ],
      "stateMutability": "view",
      "type": "function"
    },
    {
      "inputs": [],
      "name": "obtainViewship",
      "outputs": [],
      "stateMutability": "payable",
      "type": "function"
    },
    {
      "inputs": [
        {
          "internalType": "uint256",
          "name": "tokenId",
          "type": "uint256"
        }
      ],
      "name": "ownerOf",
      "outputs": [
        {
          "internalType": "address",
          "name": "",
          "type": "address"
        }
      ],
      "stateMutability": "view",
      "type": "function"
    },
    {
      "inputs": [
        {
          "internalType": "address",
          "name": "user",
          "type": "address"
        }
      ],
      "name": "removeFromDao",
      "outputs": [],
      "stateMutability": "nonpayable",
      "type": "function"
    },
    {
      "inputs": [
        {
          "internalType": "address",
          "name": "from",
          "type": "address"
        },
        {
          "internalType": "address",
          "name": "to",
          "type": "address"
        },
        {
          "internalType": "uint256",
          "name": "tokenId",
          "type": "uint256"
        }
      ],
      "name": "safeTransferFrom",
      "outputs": [],
      "stateMutability": "nonpayable",
      "type": "function"
    },
    {
      "inputs": [
        {
          "internalType": "address",
          "name": "from",
          "type": "address"
        },
        {
          "internalType": "address",
          "name": "to",
          "type": "address"
        },
        {
          "internalType": "uint256",
          "name": "tokenId",
          "type": "uint256"
        },
        {
          "internalType": "bytes",
          "name": "data",
          "type": "bytes"
        }
      ],
      "name": "safeTransferFrom",
      "outputs": [],
      "stateMutability": "nonpayable",
      "type": "function"
    },
    {
      "inputs": [
        {
          "internalType": "address",
          "name": "operator",
          "type": "address"
        },
        {
          "internalType": "bool",
          "name": "approved",
          "type": "bool"
        }
      ],
      "name": "setApprovalForAll",
      "outputs": [],
      "stateMutability": "nonpayable",
      "type": "function"
    },
    {
      "inputs": [
        {
          "internalType": "bytes4",
          "name": "interfaceId",
          "type": "bytes4"
        }
      ],
      "name": "supportsInterface",
      "outputs": [
        {
          "internalType": "bool",
          "name": "",
          "type": "bool"
        }
      ],
      "stateMutability": "view",
      "type": "function"
    },
    {
      "inputs": [],
      "name": "symbol",
      "outputs": [
        {
          "internalType": "string",
          "name": "",
          "type": "string"
        }
      ],
      "stateMutability": "view",
      "type": "function"
    },
    {
      "inputs": [
        {
          "internalType": "uint256",
          "name": "tokenId",
          "type": "uint256"
        }
      ],
      "name": "tokenURI",
      "outputs": [
        {
          "internalType": "string",
          "name": "",
          "type": "string"
        }
      ],
      "stateMutability": "view",
      "type": "function"
    },
    {
      "inputs": [
        {
          "internalType": "address",
          "name": "from",
          "type": "address"
        },
        {
          "internalType": "address",
          "name": "to",
          "type": "address"
        },
        {
          "internalType": "uint256",
          "name": "tokenId",
          "type": "uint256"
        }
      ],
      "name": "transferFrom",
      "outputs": [],
      "stateMutability": "nonpayable",
      "type": "function"
    },
    {
      "inputs": [
        {
          "internalType": "uint256",
          "name": "proposalId",
          "type": "uint256"
        }
      ],
      "name": "upvote",
      "outputs": [],
      "stateMutability": "nonpayable",
      "type": "function"
    },
    {
      "inputs": [
        {
          "internalType": "uint256",
          "name": "penaltyProposalId",
          "type": "uint256"
        }
      ],
      "name": "upvotePenalty",
      "outputs": [],
      "stateMutability": "nonpayable",
      "type": "function"
    }
  ],
  "bytecode": "0x6080604052670de0b6b3a7640000600655670de0b6b3a764000060075567016345785d8a0000600855670de0b6b3a76400006009556202a300600a553480156200004857600080fd5b506040518060400160405280600981526020017f44616f20546f6b656e00000000000000000000000000000000000000000000008152506040518060400160405280600281526020017f44540000000000000000000000000000000000000000000000000000000000008152508160009080519060200190620000cd929190620000ef565b508060019080519060200190620000e6929190620000ef565b50505062000204565b828054620000fd906200019f565b90600052602060002090601f0160209004810192826200012157600085556200016d565b82601f106200013c57805160ff19168380011785556200016d565b828001600101855582156200016d579182015b828111156200016c5782518255916020019190600101906200014f565b5b5090506200017c919062000180565b5090565b5b808211156200019b57600081600090555060010162000181565b5090565b60006002820490506001821680620001b857607f821691505b60208210811415620001cf57620001ce620001d5565b5b50919050565b7f4e487b7100000000000000000000000000000000000000000000000000000000600052602260045260246000fd5b61583280620002146000396000f3fe6080604052600436106102465760003560e01c806367eda79b11610139578063a22cb465116100b6578063dd61fc891161007a578063dd61fc89146108ff578063e15972a214610909578063e985e9c514610913578063ea7b21bb14610950578063f31fdad414610967578063fe0d94c11461099057610246565b8063a22cb46514610803578063b48193f91461082c578063b88d4fde1461086e578063c87b56dd14610897578063cd369d2c146108d457610246565b80638ce50d04116100fd5780638ce50d04146106f25780638e29fe60146107335780638ed2977a1461075e57806395d89b411461079b57806396045ba5146107c657610246565b806367eda79b1461060f5780636b82871b146106385780636d0d00111461066357806370a082311461068c57806383a7676a146106c957610246565b806323b872dd116101c757806346438ff01161018b57806346438ff01461052f57806356d9ef341461056f5780635d95e7241461059f578063611dbd7b146105a95780636352211e146105d257610246565b806323b872dd1461045e5780632f9ca780146104875780633f048f131461049e57806340d650d9146104db57806342842e0e1461050657610246565b8063099f79b11161020e578063099f79b1146103425780631296138414610382578063131a53c4146103ad5780631600055e146103f35780632037db631461043357610246565b806301ddf0701461024b57806301ffc9a71461027457806306fdde03146102b1578063081812fc146102dc578063095ea7b314610319575b600080fd5b34801561025757600080fd5b50610272600480360381019061026d91906146df565b6109cd565b005b34801561028057600080fd5b5061029b6004803603810190610296919061460e565b610b20565b6040516102a89190614b86565b60405180910390f35b3480156102bd57600080fd5b506102c6610c02565b6040516102d39190614ba1565b60405180910390f35b3480156102e857600080fd5b5061030360048036038101906102fe91906146df565b610c94565b6040516103109190614a72565b60405180910390f35b34801561032557600080fd5b50610340600480360381019061033b91906145d2565b610cda565b005b34801561034e57600080fd5b5061036960048036038101906103649190614413565b610df2565b6040516103799493929190614ad9565b60405180910390f35b34801561038e57600080fd5b50610397610e4f565b6040516103a49190614f61565b60405180910390f35b3480156103b957600080fd5b506103d460048036038101906103cf91906146df565b610e55565b6040516103ea9a99989796959493929190614c77565b60405180910390f35b3480156103ff57600080fd5b5061041a60048036038101906104159190614413565b610ff3565b60405161042a9493929190614ad9565b60405180910390f35b34801561043f57600080fd5b50610448611050565b6040516104559190614f61565b60405180910390f35b34801561046a57600080fd5b5061048560048036038101906104809190614478565b611056565b005b34801561049357600080fd5b5061049c6110b6565b005b3480156104aa57600080fd5b506104c560048036038101906104c0919061457e565b61121d565b6040516104d29190614f61565b60405180910390f35b3480156104e757600080fd5b506104f061135d565b6040516104fd9190614f61565b60405180910390f35b34801561051257600080fd5b5061052d60048036038101906105289190614478565b611363565b005b34801561053b57600080fd5b50610556600480360381019061055191906146df565b611383565b6040516105669493929190614bc3565b60405180910390f35b61058960048036038101906105849190614660565b6114e3565b6040516105969190614f61565b60405180910390f35b6105a76115eb565b005b3480156105b557600080fd5b506105d060048036038101906105cb91906146df565b611765565b005b3480156105de57600080fd5b506105f960048036038101906105f491906146df565b6118fe565b6040516106069190614a72565b60405180910390f35b34801561061b57600080fd5b50610636600480360381019061063191906146df565b611985565b005b34801561064457600080fd5b5061064d611c21565b60405161065a9190614f61565b60405180910390f35b34801561066f57600080fd5b5061068a60048036038101906106859190614413565b611c27565b005b34801561069857600080fd5b506106b360048036038101906106ae9190614413565b611d0a565b6040516106c09190614f61565b60405180910390f35b3480156106d557600080fd5b506106f060048036038101906106eb91906146df565b611dc2565b005b3480156106fe57600080fd5b50610719600480360381019061071491906146df565b611f5b565b60405161072a959493929190614c16565b60405180910390f35b34801561073f57600080fd5b506107486120c1565b6040516107559190614f61565b60405180910390f35b34801561076a57600080fd5b50610785600480360381019061078091906146df565b6120c7565b6040516107929190614a72565b60405180910390f35b3480156107a757600080fd5b506107b0612106565b6040516107bd9190614ba1565b60405180910390f35b3480156107d257600080fd5b506107ed60048036038101906107e891906146df565b612198565b6040516107fa9190614f61565b60405180910390f35b34801561080f57600080fd5b5061082a60048036038101906108259190614542565b6123d9565b005b34801561083857600080fd5b50610853600480360381019061084e91906146df565b6123ef565b60405161086596959493929190614b1e565b60405180910390f35b34801561087a57600080fd5b50610895600480360381019061089091906144c7565b6124e0565b005b3480156108a357600080fd5b506108be60048036038101906108b991906146df565b612542565b6040516108cb9190614ba1565b60405180910390f35b3480156108e057600080fd5b506108e96125aa565b6040516108f69190614f61565b60405180910390f35b6109076125b0565b005b61091161278d565b005b34801561091f57600080fd5b5061093a6004803603810190610935919061443c565b6127f6565b6040516109479190614b86565b60405180910390f35b34801561095c57600080fd5b5061096561288a565b005b34801561097357600080fd5b5061098e600480360381019061098991906146df565b612a9a565b005b34801561099c57600080fd5b506109b760048036038101906109b291906146df565b612c33565b6040516109c49190614b86565b60405180910390f35b600e60003373ffffffffffffffffffffffffffffffffffffffff1673ffffffffffffffffffffffffffffffffffffffff16815260200190815260200160002060000160149054906101000a900460ff16610a5c576040517f08c379a0000000000000000000000000000000000000000000000000000000008152600401610a5390614e21565b60405180910390fd5b60006018600083815260200190815260200160002090508060090160003373ffffffffffffffffffffffffffffffffffffffff1673ffffffffffffffffffffffffffffffffffffffff16815260200190815260200160002060009054906101000a900460ff1615610b02576040517f08c379a0000000000000000000000000000000000000000000000000000000008152600401610af990614e81565b60405180910390fd5b806005016000815480929190610b179061529e565b91905055505050565b60007f80ac58cd000000000000000000000000000000000000000000000000000000007bffffffffffffffffffffffffffffffffffffffffffffffffffffffff1916827bffffffffffffffffffffffffffffffffffffffffffffffffffffffff19161480610beb57507f5b5e139f000000000000000000000000000000000000000000000000000000007bffffffffffffffffffffffffffffffffffffffffffffffffffffffff1916827bffffffffffffffffffffffffffffffffffffffffffffffffffffffff1916145b80610bfb5750610bfa82613036565b5b9050919050565b606060008054610c119061523b565b80601f0160208091040260200160405190810160405280929190818152602001828054610c3d9061523b565b8015610c8a5780601f10610c5f57610100808354040283529160200191610c8a565b820191906000526020600020905b815481529060010190602001808311610c6d57829003601f168201915b5050505050905090565b6000610c9f826130a0565b6004600083815260200190815260200160002060009054906101000a900473ffffffffffffffffffffffffffffffffffffffff169050919050565b6000610ce5826118fe565b90508073ffffffffffffffffffffffffffffffffffffffff168373ffffffffffffffffffffffffffffffffffffffff161415610d56576040517f08c379a0000000000000000000000000000000000000000000000000000000008152600401610d4d90614ee1565b60405180910390fd5b8073ffffffffffffffffffffffffffffffffffffffff16610d756130eb565b73ffffffffffffffffffffffffffffffffffffffff161480610da45750610da381610d9e6130eb565b6127f6565b5b610de3576040517f08c379a0000000000000000000000000000000000000000000000000000000008152600401610dda90614f01565b60405180910390fd5b610ded83836130f3565b505050565b600e6020528060005260406000206000915090508060000160009054906101000a900473ffffffffffffffffffffffffffffffffffffffff16908060000160149054906101000a900460ff16908060010154908060020154905084565b60175481565b6018602052806000526040600020600091509050806000018054610e789061523b565b80601f0160208091040260200160405190810160405280929190818152602001828054610ea49061523b565b8015610ef15780601f10610ec657610100808354040283529160200191610ef1565b820191906000526020600020905b815481529060010190602001808311610ed457829003601f168201915b505050505090806001015490806002018054610f0c9061523b565b80601f0160208091040260200160405190810160405280929190818152602001828054610f389061523b565b8015610f855780601f10610f5a57610100808354040283529160200191610f85565b820191906000526020600020905b815481529060010190602001808311610f6857829003601f168201915b5050505050908060030160009054906101000a900473ffffffffffffffffffffffffffffffffffffffff16908060040154908060050154908060060154908060070154908060080160009054906101000a900460ff16908060080160019054906101000a900460ff1690508a565b60136020528060005260406000206000915090508060000160009054906101000a900473ffffffffffffffffffffffffffffffffffffffff16908060000160149054906101000a900460ff16908060010154908060020154905084565b60115481565b6110676110616130eb565b826131ac565b6110a6576040517f08c379a000000000000000000000000000000000000000000000000000000000815260040161109d90614d21565b60405180910390fd5b6110b1838383613241565b505050565b601360003373ffffffffffffffffffffffffffffffffffffffff1673ffffffffffffffffffffffffffffffffffffffff16815260200190815260200160002060000160149054906101000a900460ff16611145576040517f08c379a000000000000000000000000000000000000000000000000000000000815260040161113c90614f21565b60405180910390fd5b3373ffffffffffffffffffffffffffffffffffffffff166108fc6007549081150290604051600060405180830381858888f1935050505015801561118d573d6000803e3d6000fd5b50601360003373ffffffffffffffffffffffffffffffffffffffff1673ffffffffffffffffffffffffffffffffffffffff168152602001908152602001600020600080820160006101000a81549073ffffffffffffffffffffffffffffffffffffffff02191690556000820160146101000a81549060ff0219169055600182016000905560028201600090555050565b6000600e60003373ffffffffffffffffffffffffffffffffffffffff1673ffffffffffffffffffffffffffffffffffffffff16815260200190815260200160002060000160149054906101000a900460ff166112ae576040517f08c379a00000000000000000000000000000000000000000000000000000000081526004016112a590614e21565b60405180910390fd5b601160008154809291906112c19061529e565b919050555060006012600060175481526020019081526020016000209050838160000160006101000a81548173ffffffffffffffffffffffffffffffffffffffff021916908373ffffffffffffffffffffffffffffffffffffffff1602179055508281600101908051906020019061133a92919061416a565b50600a54426113499190615046565b816004018190555060115491505092915050565b60105481565b61137e838383604051806020016040528060008152506124e0565b505050565b601a6020528060005260406000206000915090508060000180546113a69061523b565b80601f01602080910402602001604051908101604052809291908181526020018280546113d29061523b565b801561141f5780601f106113f45761010080835404028352916020019161141f565b820191906000526020600020905b81548152906001019060200180831161140257829003601f168201915b50505050509080600101549080600201805461143a9061523b565b80601f01602080910402602001604051908101604052809291908181526020018280546114669061523b565b80156114b35780601f10611488576101008083540402835291602001916114b3565b820191906000526020600020905b81548152906001019060200180831161149657829003601f168201915b5050505050908060030160009054906101000a900473ffffffffffffffffffffffffffffffffffffffff16905084565b60008060009050600854341461152e576040517f08c379a000000000000000000000000000000000000000000000000000000000815260040161152590614e61565b60405180910390fd5b601460008154809291906115419061529e565b9190505550600060166000601454815260200190815260200160002090508581600001908051906020019061157792919061416a565b508481600101819055508381600201908051906020019061159992919061416a565b50338160030160006101000a81548173ffffffffffffffffffffffffffffffffffffffff021916908373ffffffffffffffffffffffffffffffffffffffff160217905550601454925050509392505050565b600754341461162f576040517f08c379a000000000000000000000000000000000000000000000000000000000815260040161162690614de1565b60405180910390fd5b601560008154809291906116429061529e565b9190505550611651600c61353b565b600061165d600c613551565b9050611669338261355f565b60405180608001604052803373ffffffffffffffffffffffffffffffffffffffff168152602001600115158152602001828152602001600754815250601360003373ffffffffffffffffffffffffffffffffffffffff1673ffffffffffffffffffffffffffffffffffffffff16815260200190815260200160002060008201518160000160006101000a81548173ffffffffffffffffffffffffffffffffffffffff021916908373ffffffffffffffffffffffffffffffffffffffff16021790555060208201518160000160146101000a81548160ff021916908315150217905550604082015181600101556060820151816002015590505050565b600e60003373ffffffffffffffffffffffffffffffffffffffff1673ffffffffffffffffffffffffffffffffffffffff16815260200190815260200160002060000160149054906101000a900460ff166117f4576040517f08c379a00000000000000000000000000000000000000000000000000000000081526004016117eb90614e21565b60405180910390fd5b600060126000838152602001908152602001600020905042816004015411611851576040517f08c379a000000000000000000000000000000000000000000000000000000000815260040161184890614ea1565b60405180910390fd5b8060060160003373ffffffffffffffffffffffffffffffffffffffff1673ffffffffffffffffffffffffffffffffffffffff16815260200190815260200160002060009054906101000a900460ff16156118e0576040517f08c379a00000000000000000000000000000000000000000000000000000000081526004016118d790614e81565b60405180910390fd5b8060030160008154809291906118f59061529e565b91905055505050565b60008061190a8361377d565b9050600073ffffffffffffffffffffffffffffffffffffffff168173ffffffffffffffffffffffffffffffffffffffff16141561197c576040517f08c379a000000000000000000000000000000000000000000000000000000000815260040161197390614ec1565b60405180910390fd5b80915050919050565b600e60003373ffffffffffffffffffffffffffffffffffffffff1673ffffffffffffffffffffffffffffffffffffffff16815260200190815260200160002060000160149054906101000a900460ff16611a14576040517f08c379a0000000000000000000000000000000000000000000000000000000008152600401611a0b90614e21565b60405180910390fd5b60006012600083815260200190815260200160002090506000600e60008360000160009054906101000a900473ffffffffffffffffffffffffffffffffffffffff1673ffffffffffffffffffffffffffffffffffffffff1673ffffffffffffffffffffffffffffffffffffffff16815260200190815260200160002090504282600401541115611ad9576040517f08c379a0000000000000000000000000000000000000000000000000000000008152600401611ad090614ea1565b60405180910390fd5b8160050160009054906101000a900460ff1615611b2b576040517f08c379a0000000000000000000000000000000000000000000000000000000008152600401611b2290614f41565b60405180910390fd5b816003015482600201541115611b8657600081600201549050606481600a611b5391906150cd565b611b5d919061509c565b81611b689190615127565b82600201819055506000836002018190555060008360030181905550505b60018260050160006101000a81548160ff02191690831515021790555060126000848152602001908152602001600020600080820160006101000a81549073ffffffffffffffffffffffffffffffffffffffff0219169055600182016000611bee91906141f0565b6002820160009055600382016000905560048201600090556005820160006101000a81549060ff02191690555050505050565b60195481565b600e60003373ffffffffffffffffffffffffffffffffffffffff1673ffffffffffffffffffffffffffffffffffffffff16815260200190815260200160002060000160149054906101000a900460ff16611cb6576040517f08c379a0000000000000000000000000000000000000000000000000000000008152600401611cad90614e21565b60405180910390fd5b6000600e60008373ffffffffffffffffffffffffffffffffffffffff1673ffffffffffffffffffffffffffffffffffffffff168152602001908152602001600020600101549050611d06816137ba565b5050565b60008073ffffffffffffffffffffffffffffffffffffffff168273ffffffffffffffffffffffffffffffffffffffff161415611d7b576040517f08c379a0000000000000000000000000000000000000000000000000000000008152600401611d7290614e01565b60405180910390fd5b600360008373ffffffffffffffffffffffffffffffffffffffff1673ffffffffffffffffffffffffffffffffffffffff168152602001908152602001600020549050919050565b600e60003373ffffffffffffffffffffffffffffffffffffffff1673ffffffffffffffffffffffffffffffffffffffff16815260200190815260200160002060000160149054906101000a900460ff16611e51576040517f08c379a0000000000000000000000000000000000000000000000000000000008152600401611e4890614e21565b60405180910390fd5b600060126000838152602001908152602001600020905042816004015411611eae576040517f08c379a0000000000000000000000000000000000000000000000000000000008152600401611ea590614ea1565b60405180910390fd5b8060060160003373ffffffffffffffffffffffffffffffffffffffff1673ffffffffffffffffffffffffffffffffffffffff16815260200190815260200160002060009054906101000a900460ff1615611f3d576040517f08c379a0000000000000000000000000000000000000000000000000000000008152600401611f3490614e81565b60405180910390fd5b806002016000815480929190611f529061529e565b91905055505050565b6016602052806000526040600020600091509050806000018054611f7e9061523b565b80601f0160208091040260200160405190810160405280929190818152602001828054611faa9061523b565b8015611ff75780601f10611fcc57610100808354040283529160200191611ff7565b820191906000526020600020905b815481529060010190602001808311611fda57829003601f168201915b5050505050908060010154908060020180546120129061523b565b80601f016020809104026020016040519081016040528092919081815260200182805461203e9061523b565b801561208b5780601f106120605761010080835404028352916020019161208b565b820191906000526020600020905b81548152906001019060200180831161206e57829003601f168201915b5050505050908060030160009054906101000a900473ffffffffffffffffffffffffffffffffffffffff16908060040154905085565b60145481565b600f81815481106120d757600080fd5b906000526020600020016000915054906101000a900473ffffffffffffffffffffffffffffffffffffffff1681565b6060600180546121159061523b565b80601f01602080910402602001604051908101604052809291908181526020018280546121419061523b565b801561218e5780601f106121635761010080835404028352916020019161218e565b820191906000526020600020905b81548152906001019060200180831161217157829003601f168201915b5050505050905090565b6000601360003373ffffffffffffffffffffffffffffffffffffffff1673ffffffffffffffffffffffffffffffffffffffff16815260200190815260200160002060000160149054906101000a900460ff16612229576040517f08c379a000000000000000000000000000000000000000000000000000000000815260040161222090614f21565b60405180910390fd5b6000601660008481526020019081526020016000209050601760008154809291906122539061529e565b91905055506000601860006017548152602001908152602001600020905081600001816000019080546122859061523b565b612290929190614230565b508160010154816001018190555081600201816002019080546122b29061523b565b6122bd929190614230565b508160030160009054906101000a900473ffffffffffffffffffffffffffffffffffffffff168160030160006101000a81548173ffffffffffffffffffffffffffffffffffffffff021916908373ffffffffffffffffffffffffffffffffffffffff16021790555081600401548160040181905550600a54426123409190615046565b8160070181905550601660008581526020019081526020016000206000808201600061236c91906141f0565b600182016000905560028201600061238491906141f0565b6003820160006101000a81549073ffffffffffffffffffffffffffffffffffffffff021916905560048201600090555050601460008154809291906123c890615211565b919050555060175492505050919050565b6123eb6123e46130eb565b8383613908565b5050565b60126020528060005260406000206000915090508060000160009054906101000a900473ffffffffffffffffffffffffffffffffffffffff16908060010180546124389061523b565b80601f01602080910402602001604051908101604052809291908181526020018280546124649061523b565b80156124b15780601f10612486576101008083540402835291602001916124b1565b820191906000526020600020905b81548152906001019060200180831161249457829003601f168201915b5050505050908060020154908060030154908060040154908060050160009054906101000a900460ff16905086565b6124f16124eb6130eb565b836131ac565b612530576040517f08c379a000000000000000000000000000000000000000000000000000000000815260040161252790614d21565b60405180910390fd5b61253c84848484613a75565b50505050565b606061254d826130a0565b6000612557613ad1565b9050600081511161257757604051806020016040528060008152506125a2565b8061258184613ae8565b604051602001612592929190614a4e565b6040516020818303038152906040525b915050919050565b60155481565b60065434146125f4576040517f08c379a00000000000000000000000000000000000000000000000000000000081526004016125eb90614de1565b60405180910390fd5b601060008154809291906126079061529e565b9190505550600f339080600181540180825580915050600190039060005260206000200160009091909190916101000a81548173ffffffffffffffffffffffffffffffffffffffff021916908373ffffffffffffffffffffffffffffffffffffffff160217905550612679600c61353b565b6000612685600c613551565b9050612691338261355f565b60405180608001604052803373ffffffffffffffffffffffffffffffffffffffff168152602001600115158152602001828152602001600654815250600e60003373ffffffffffffffffffffffffffffffffffffffff1673ffffffffffffffffffffffffffffffffffffffff16815260200190815260200160002060008201518160000160006101000a81548173ffffffffffffffffffffffffffffffffffffffff021916908373ffffffffffffffffffffffffffffffffffffffff16021790555060208201518160000160146101000a81548160ff021916908315150217905550604082015181600101556060820151816002015590505050565b60095434146127d1576040517f08c379a00000000000000000000000000000000000000000000000000000000081526004016127c890614de1565b60405180910390fd5b6127db600c61353b565b60006127e7600c613551565b90506127f3338261355f565b50565b6000600560008473ffffffffffffffffffffffffffffffffffffffff1673ffffffffffffffffffffffffffffffffffffffff16815260200190815260200160002060008373ffffffffffffffffffffffffffffffffffffffff1673ffffffffffffffffffffffffffffffffffffffff16815260200190815260200160002060009054906101000a900460ff16905092915050565b600e60003373ffffffffffffffffffffffffffffffffffffffff1673ffffffffffffffffffffffffffffffffffffffff16815260200190815260200160002060000160149054906101000a900460ff16612919576040517f08c379a000000000000000000000000000000000000000000000000000000000815260040161291090614e21565b60405180910390fd5b6010600081548092919061292c90615211565b91905055506000600e60003373ffffffffffffffffffffffffffffffffffffffff1673ffffffffffffffffffffffffffffffffffffffff1681526020019081526020016000206001015490503373ffffffffffffffffffffffffffffffffffffffff166108fc600e60003373ffffffffffffffffffffffffffffffffffffffff1673ffffffffffffffffffffffffffffffffffffffff168152602001908152602001600020600201549081150290604051600060405180830381858888f19350505050158015612a00573d6000803e3d6000fd5b50612a0a816137ba565b600e60003373ffffffffffffffffffffffffffffffffffffffff1673ffffffffffffffffffffffffffffffffffffffff168152602001908152602001600020600080820160006101000a81549073ffffffffffffffffffffffffffffffffffffffff02191690556000820160146101000a81549060ff021916905560018201600090556002820160009055505050565b600e60003373ffffffffffffffffffffffffffffffffffffffff1673ffffffffffffffffffffffffffffffffffffffff16815260200190815260200160002060000160149054906101000a900460ff16612b29576040517f08c379a0000000000000000000000000000000000000000000000000000000008152600401612b2090614e21565b60405180910390fd5b600060186000838152602001908152602001600020905042816007015411612b86576040517f08c379a0000000000000000000000000000000000000000000000000000000008152600401612b7d90614ea1565b60405180910390fd5b8060090160003373ffffffffffffffffffffffffffffffffffffffff1673ffffffffffffffffffffffffffffffffffffffff16815260200190815260200160002060009054906101000a900460ff1615612c15576040517f08c379a0000000000000000000000000000000000000000000000000000000008152600401612c0c90614e81565b60405180910390fd5b806006016000815480929190612c2a9061529e565b91905055505050565b6000600e60003373ffffffffffffffffffffffffffffffffffffffff1673ffffffffffffffffffffffffffffffffffffffff16815260200190815260200160002060000160149054906101000a900460ff16612cc4576040517f08c379a0000000000000000000000000000000000000000000000000000000008152600401612cbb90614e21565b60405180910390fd5b60006018600084815260200190815260200160002090508060080160009054906101000a900460ff1615612d2d576040517f08c379a0000000000000000000000000000000000000000000000000000000008152600401612d2490614f41565b60405180910390fd5b806006015481600501541115612f2c5760196000815480929190612d509061529e565b91905055506000601a6000601954815260200190815260200160002090508160000181600001908054612d829061523b565b612d8d929190614230565b50816001015481600101819055508160020181600201908054612daf9061523b565b612dba929190614230565b508160030160009054906101000a900473ffffffffffffffffffffffffffffffffffffffff168160030160006101000a81548173ffffffffffffffffffffffffffffffffffffffff021916908373ffffffffffffffffffffffffffffffffffffffff16021790555060018260080160016101000a81548160ff02191690831515021790555060018260080160006101000a81548160ff0219169083151502179055506018600085815260200190815260200160002060008082016000612e8091906141f0565b6001820160009055600282016000612e9891906141f0565b6003820160006101000a81549073ffffffffffffffffffffffffffffffffffffffff021916905560048201600090556005820160009055600682016000905560078201600090556008820160006101000a81549060ff02191690556008820160016101000a81549060ff0219169055505060176000815480929190612f1c90615211565b9190505550600192505050613031565b60008160080160016101000a81548160ff02191690831515021790555060018160080160006101000a81548160ff0219169083151502179055506018600084815260200190815260200160002060008082016000612f8a91906141f0565b6001820160009055600282016000612fa291906141f0565b6003820160006101000a81549073ffffffffffffffffffffffffffffffffffffffff021916905560048201600090556005820160009055600682016000905560078201600090556008820160006101000a81549060ff02191690556008820160016101000a81549060ff021916905550506017600081548092919061302690615211565b919050555060009150505b919050565b60007f01ffc9a7000000000000000000000000000000000000000000000000000000007bffffffffffffffffffffffffffffffffffffffffffffffffffffffff1916827bffffffffffffffffffffffffffffffffffffffffffffffffffffffff1916149050919050565b6130a981613c0c565b6130e8576040517f08c379a00000000000000000000000000000000000000000000000000000000081526004016130df90614ec1565b60405180910390fd5b50565b600033905090565b816004600083815260200190815260200160002060006101000a81548173ffffffffffffffffffffffffffffffffffffffff021916908373ffffffffffffffffffffffffffffffffffffffff160217905550808273ffffffffffffffffffffffffffffffffffffffff16613166836118fe565b73ffffffffffffffffffffffffffffffffffffffff167f8c5be1e5ebec7d5bd14f71427d1e84f3dd0314c0f7b2291e5b200ac8c7c3b92560405160405180910390a45050565b6000806131b8836118fe565b90508073ffffffffffffffffffffffffffffffffffffffff168473ffffffffffffffffffffffffffffffffffffffff1614806131fa57506131f981856127f6565b5b8061323857508373ffffffffffffffffffffffffffffffffffffffff1661322084610c94565b73ffffffffffffffffffffffffffffffffffffffff16145b91505092915050565b8273ffffffffffffffffffffffffffffffffffffffff16613261826118fe565b73ffffffffffffffffffffffffffffffffffffffff16146132b7576040517f08c379a00000000000000000000000000000000000000000000000000000000081526004016132ae90614d61565b60405180910390fd5b600073ffffffffffffffffffffffffffffffffffffffff168273ffffffffffffffffffffffffffffffffffffffff161415613327576040517f08c379a000000000000000000000000000000000000000000000000000000000815260040161331e90614da1565b60405180910390fd5b6133348383836001613c4d565b8273ffffffffffffffffffffffffffffffffffffffff16613354826118fe565b73ffffffffffffffffffffffffffffffffffffffff16146133aa576040517f08c379a00000000000000000000000000000000000000000000000000000000081526004016133a190614d61565b60405180910390fd5b6004600082815260200190815260200160002060006101000a81549073ffffffffffffffffffffffffffffffffffffffff02191690556001600360008573ffffffffffffffffffffffffffffffffffffffff1673ffffffffffffffffffffffffffffffffffffffff168152602001908152602001600020600082825403925050819055506001600360008473ffffffffffffffffffffffffffffffffffffffff1673ffffffffffffffffffffffffffffffffffffffff16815260200190815260200160002060008282540192505081905550816002600083815260200190815260200160002060006101000a81548173ffffffffffffffffffffffffffffffffffffffff021916908373ffffffffffffffffffffffffffffffffffffffff160217905550808273ffffffffffffffffffffffffffffffffffffffff168473ffffffffffffffffffffffffffffffffffffffff167fddf252ad1be2c89b69c2b068fc378daa952ba7f163c4a11628f55a4df523b3ef60405160405180910390a46135368383836001613d73565b505050565b6001816000016000828254019250508190555050565b600081600001549050919050565b600073ffffffffffffffffffffffffffffffffffffffff168273ffffffffffffffffffffffffffffffffffffffff1614156135cf576040517f08c379a00000000000000000000000000000000000000000000000000000000081526004016135c690614e41565b60405180910390fd5b6135d881613c0c565b15613618576040517f08c379a000000000000000000000000000000000000000000000000000000000815260040161360f90614d81565b60405180910390fd5b613626600083836001613c4d565b61362f81613c0c565b1561366f576040517f08c379a000000000000000000000000000000000000000000000000000000000815260040161366690614d81565b60405180910390fd5b6001600360008473ffffffffffffffffffffffffffffffffffffffff1673ffffffffffffffffffffffffffffffffffffffff16815260200190815260200160002060008282540192505081905550816002600083815260200190815260200160002060006101000a81548173ffffffffffffffffffffffffffffffffffffffff021916908373ffffffffffffffffffffffffffffffffffffffff160217905550808273ffffffffffffffffffffffffffffffffffffffff16600073ffffffffffffffffffffffffffffffffffffffff167fddf252ad1be2c89b69c2b068fc378daa952ba7f163c4a11628f55a4df523b3ef60405160405180910390a4613779600083836001613d73565b5050565b60006002600083815260200190815260200160002060009054906101000a900473ffffffffffffffffffffffffffffffffffffffff169050919050565b60006137c5826118fe565b90506137d5816000846001613c4d565b6137de826118fe565b90506004600083815260200190815260200160002060006101000a81549073ffffffffffffffffffffffffffffffffffffffff02191690556001600360008373ffffffffffffffffffffffffffffffffffffffff1673ffffffffffffffffffffffffffffffffffffffff168152602001908152602001600020600082825403925050819055506002600083815260200190815260200160002060006101000a81549073ffffffffffffffffffffffffffffffffffffffff021916905581600073ffffffffffffffffffffffffffffffffffffffff168273ffffffffffffffffffffffffffffffffffffffff167fddf252ad1be2c89b69c2b068fc378daa952ba7f163c4a11628f55a4df523b3ef60405160405180910390a4613904816000846001613d73565b5050565b8173ffffffffffffffffffffffffffffffffffffffff168373ffffffffffffffffffffffffffffffffffffffff161415613977576040517f08c379a000000000000000000000000000000000000000000000000000000000815260040161396e90614dc1565b60405180910390fd5b80600560008573ffffffffffffffffffffffffffffffffffffffff1673ffffffffffffffffffffffffffffffffffffffff16815260200190815260200160002060008473ffffffffffffffffffffffffffffffffffffffff1673ffffffffffffffffffffffffffffffffffffffff16815260200190815260200160002060006101000a81548160ff0219169083151502179055508173ffffffffffffffffffffffffffffffffffffffff168373ffffffffffffffffffffffffffffffffffffffff167f17307eab39ab6107e8899845ad3d59bd9653f200f220920489ca2b5937696c3183604051613a689190614b86565b60405180910390a3505050565b613a80848484613241565b613a8c84848484613d79565b613acb576040517f08c379a0000000000000000000000000000000000000000000000000000000008152600401613ac290614d41565b60405180910390fd5b50505050565b606060405180602001604052806000815250905090565b606060006001613af784613f10565b01905060008167ffffffffffffffff811115613b3c577f4e487b7100000000000000000000000000000000000000000000000000000000600052604160045260246000fd5b6040519080825280601f01601f191660200182016040528015613b6e5781602001600182028036833780820191505090505b509050600082602001820190505b600115613c01578080600190039150507f3031323334353637383961626364656600000000000000000000000000000000600a86061a8153600a8581613beb577f4e487b7100000000000000000000000000000000000000000000000000000000600052601260045260246000fd5b0494506000851415613bfc57613c01565b613b7c565b819350505050919050565b60008073ffffffffffffffffffffffffffffffffffffffff16613c2e8361377d565b73ffffffffffffffffffffffffffffffffffffffff1614159050919050565b6001811115613d6d57600073ffffffffffffffffffffffffffffffffffffffff168473ffffffffffffffffffffffffffffffffffffffff1614613ce15780600360008673ffffffffffffffffffffffffffffffffffffffff1673ffffffffffffffffffffffffffffffffffffffff1681526020019081526020016000206000828254613cd99190615127565b925050819055505b600073ffffffffffffffffffffffffffffffffffffffff168373ffffffffffffffffffffffffffffffffffffffff1614613d6c5780600360008573ffffffffffffffffffffffffffffffffffffffff1673ffffffffffffffffffffffffffffffffffffffff1681526020019081526020016000206000828254613d649190615046565b925050819055505b5b50505050565b50505050565b6000613d9a8473ffffffffffffffffffffffffffffffffffffffff16614147565b15613f03578373ffffffffffffffffffffffffffffffffffffffff1663150b7a02613dc36130eb565b8786866040518563ffffffff1660e01b8152600401613de59493929190614a8d565b602060405180830381600087803b158015613dff57600080fd5b505af1925050508015613e3057506040513d601f19601f82011682018060405250810190613e2d9190614637565b60015b613eb3573d8060008114613e60576040519150601f19603f3d011682016040523d82523d6000602084013e613e65565b606091505b50600081511415613eab576040517f08c379a0000000000000000000000000000000000000000000000000000000008152600401613ea290614d41565b60405180910390fd5b805181602001fd5b63150b7a0260e01b7bffffffffffffffffffffffffffffffffffffffffffffffffffffffff1916817bffffffffffffffffffffffffffffffffffffffffffffffffffffffff191614915050613f08565b600190505b949350505050565b600080600090507a184f03e93ff9f4daa797ed6e38ed64bf6a1f0100000000000000008310613f94577a184f03e93ff9f4daa797ed6e38ed64bf6a1f0100000000000000008381613f8a577f4e487b7100000000000000000000000000000000000000000000000000000000600052601260045260246000fd5b0492506040810190505b6d04ee2d6d415b85acef81000000008310613ff7576d04ee2d6d415b85acef81000000008381613fed577f4e487b7100000000000000000000000000000000000000000000000000000000600052601260045260246000fd5b0492506020810190505b662386f26fc10000831061404c57662386f26fc100008381614042577f4e487b7100000000000000000000000000000000000000000000000000000000600052601260045260246000fd5b0492506010810190505b6305f5e100831061409b576305f5e1008381614091577f4e487b7100000000000000000000000000000000000000000000000000000000600052601260045260246000fd5b0492506008810190505b61271083106140e65761271083816140dc577f4e487b7100000000000000000000000000000000000000000000000000000000600052601260045260246000fd5b0492506004810190505b6064831061412f5760648381614125577f4e487b7100000000000000000000000000000000000000000000000000000000600052601260045260246000fd5b0492506002810190505b600a831061413e576001810190505b80915050919050565b6000808273ffffffffffffffffffffffffffffffffffffffff163b119050919050565b8280546141769061523b565b90600052602060002090601f01602090048101928261419857600085556141df565b82601f106141b157805160ff19168380011785556141df565b828001600101855582156141df579182015b828111156141de5782518255916020019190600101906141c3565b5b5090506141ec91906142bd565b5090565b5080546141fc9061523b565b6000825580601f1061420e575061422d565b601f01602090049060005260206000209081019061422c91906142bd565b5b50565b82805461423c9061523b565b90600052602060002090601f01602090048101928261425e57600085556142ac565b82601f1061426f57805485556142ac565b828001600101855582156142ac57600052602060002091601f016020900482015b828111156142ab578254825591600101919060010190614290565b5b5090506142b991906142bd565b5090565b5b808211156142d65760008160009055506001016142be565b5090565b60006142ed6142e884614fa1565b614f7c565b90508281526020810184848401111561430557600080fd5b6143108482856151cf565b509392505050565b600061432b61432684614fd2565b614f7c565b90508281526020810184848401111561434357600080fd5b61434e8482856151cf565b509392505050565b600081359050614365816157a0565b92915050565b60008135905061437a816157b7565b92915050565b60008135905061438f816157ce565b92915050565b6000815190506143a4816157ce565b92915050565b600082601f8301126143bb57600080fd5b81356143cb8482602086016142da565b91505092915050565b600082601f8301126143e557600080fd5b81356143f5848260208601614318565b91505092915050565b60008135905061440d816157e5565b92915050565b60006020828403121561442557600080fd5b600061443384828501614356565b91505092915050565b6000806040838503121561444f57600080fd5b600061445d85828601614356565b925050602061446e85828601614356565b9150509250929050565b60008060006060848603121561448d57600080fd5b600061449b86828701614356565b93505060206144ac86828701614356565b92505060406144bd868287016143fe565b9150509250925092565b600080600080608085870312156144dd57600080fd5b60006144eb87828801614356565b94505060206144fc87828801614356565b935050604061450d878288016143fe565b925050606085013567ffffffffffffffff81111561452a57600080fd5b614536878288016143aa565b91505092959194509250565b6000806040838503121561455557600080fd5b600061456385828601614356565b92505060206145748582860161436b565b9150509250929050565b6000806040838503121561459157600080fd5b600061459f85828601614356565b925050602083013567ffffffffffffffff8111156145bc57600080fd5b6145c8858286016143d4565b9150509250929050565b600080604083850312156145e557600080fd5b60006145f385828601614356565b9250506020614604858286016143fe565b9150509250929050565b60006020828403121561462057600080fd5b600061462e84828501614380565b91505092915050565b60006020828403121561464957600080fd5b600061465784828501614395565b91505092915050565b60008060006060848603121561467557600080fd5b600084013567ffffffffffffffff81111561468f57600080fd5b61469b868287016143d4565b93505060206146ac868287016143fe565b925050604084013567ffffffffffffffff8111156146c957600080fd5b6146d5868287016143d4565b9150509250925092565b6000602082840312156146f157600080fd5b60006146ff848285016143fe565b91505092915050565b6147118161515b565b82525050565b6147208161516d565b82525050565b600061473182615003565b61473b8185615019565b935061474b8185602086016151de565b614754816153a3565b840191505092915050565b600061476a8261500e565b614774818561502a565b93506147848185602086016151de565b61478d816153a3565b840191505092915050565b60006147a38261500e565b6147ad818561503b565b93506147bd8185602086016151de565b80840191505092915050565b60006147d6602d8361502a565b91506147e1826153b4565b604082019050919050565b60006147f960328361502a565b915061480482615403565b604082019050919050565b600061481c60258361502a565b915061482782615452565b604082019050919050565b600061483f601c8361502a565b915061484a826154a1565b602082019050919050565b600061486260248361502a565b915061486d826154ca565b604082019050919050565b600061488560198361502a565b915061489082615519565b602082019050919050565b60006148a860168361502a565b91506148b382615542565b602082019050919050565b60006148cb60298361502a565b91506148d68261556b565b604082019050919050565b60006148ee60108361502a565b91506148f9826155ba565b602082019050919050565b600061491160208361502a565b915061491c826155e3565b602082019050919050565b600061493460168361502a565b915061493f8261560c565b602082019050919050565b600061495760128361502a565b915061496282615635565b602082019050919050565b600061497a60118361502a565b91506149858261565e565b602082019050919050565b600061499d60188361502a565b91506149a882615687565b602082019050919050565b60006149c060218361502a565b91506149cb826156b0565b604082019050919050565b60006149e3603d8361502a565b91506149ee826156ff565b604082019050919050565b6000614a06600c8361502a565b9150614a118261574e565b602082019050919050565b6000614a2960198361502a565b9150614a3482615777565b602082019050919050565b614a48816151c5565b82525050565b6000614a5a8285614798565b9150614a668284614798565b91508190509392505050565b6000602082019050614a876000830184614708565b92915050565b6000608082019050614aa26000830187614708565b614aaf6020830186614708565b614abc6040830185614a3f565b8181036060830152614ace8184614726565b905095945050505050565b6000608082019050614aee6000830187614708565b614afb6020830186614717565b614b086040830185614a3f565b614b156060830184614a3f565b95945050505050565b600060c082019050614b336000830189614708565b8181036020830152614b45818861475f565b9050614b546040830187614a3f565b614b616060830186614a3f565b614b6e6080830185614a3f565b614b7b60a0830184614717565b979650505050505050565b6000602082019050614b9b6000830184614717565b92915050565b60006020820190508181036000830152614bbb818461475f565b905092915050565b60006080820190508181036000830152614bdd818761475f565b9050614bec6020830186614a3f565b8181036040830152614bfe818561475f565b9050614c0d6060830184614708565b95945050505050565b600060a0820190508181036000830152614c30818861475f565b9050614c3f6020830187614a3f565b8181036040830152614c51818661475f565b9050614c606060830185614708565b614c6d6080830184614a3f565b9695505050505050565b6000610140820190508181036000830152614c92818d61475f565b9050614ca1602083018c614a3f565b8181036040830152614cb3818b61475f565b9050614cc2606083018a614708565b614ccf6080830189614a3f565b614cdc60a0830188614a3f565b614ce960c0830187614a3f565b614cf660e0830186614a3f565b614d04610100830185614717565b614d12610120830184614717565b9b9a5050505050505050505050565b60006020820190508181036000830152614d3a816147c9565b9050919050565b60006020820190508181036000830152614d5a816147ec565b9050919050565b60006020820190508181036000830152614d7a8161480f565b9050919050565b60006020820190508181036000830152614d9a81614832565b9050919050565b60006020820190508181036000830152614dba81614855565b9050919050565b60006020820190508181036000830152614dda81614878565b9050919050565b60006020820190508181036000830152614dfa8161489b565b9050919050565b60006020820190508181036000830152614e1a816148be565b9050919050565b60006020820190508181036000830152614e3a816148e1565b9050919050565b60006020820190508181036000830152614e5a81614904565b9050919050565b60006020820190508181036000830152614e7a81614927565b9050919050565b60006020820190508181036000830152614e9a8161494a565b9050919050565b60006020820190508181036000830152614eba8161496d565b9050919050565b60006020820190508181036000830152614eda81614990565b9050919050565b60006020820190508181036000830152614efa816149b3565b9050919050565b60006020820190508181036000830152614f1a816149d6565b9050919050565b60006020820190508181036000830152614f3a816149f9565b9050919050565b60006020820190508181036000830152614f5a81614a1c565b9050919050565b6000602082019050614f766000830184614a3f565b92915050565b6000614f86614f97565b9050614f92828261526d565b919050565b6000604051905090565b600067ffffffffffffffff821115614fbc57614fbb615374565b5b614fc5826153a3565b9050602081019050919050565b600067ffffffffffffffff821115614fed57614fec615374565b5b614ff6826153a3565b9050602081019050919050565b600081519050919050565b600081519050919050565b600082825260208201905092915050565b600082825260208201905092915050565b600081905092915050565b6000615051826151c5565b915061505c836151c5565b9250827fffffffffffffffffffffffffffffffffffffffffffffffffffffffffffffffff03821115615091576150906152e7565b5b828201905092915050565b60006150a7826151c5565b91506150b2836151c5565b9250826150c2576150c1615316565b5b828204905092915050565b60006150d8826151c5565b91506150e3836151c5565b9250817fffffffffffffffffffffffffffffffffffffffffffffffffffffffffffffffff048311821515161561511c5761511b6152e7565b5b828202905092915050565b6000615132826151c5565b915061513d836151c5565b9250828210156151505761514f6152e7565b5b828203905092915050565b6000615166826151a5565b9050919050565b60008115159050919050565b60007fffffffff0000000000000000000000000000000000000000000000000000000082169050919050565b600073ffffffffffffffffffffffffffffffffffffffff82169050919050565b6000819050919050565b82818337600083830152505050565b60005b838110156151fc5780820151818401526020810190506151e1565b8381111561520b576000848401525b50505050565b600061521c826151c5565b915060008214156152305761522f6152e7565b5b600182039050919050565b6000600282049050600182168061525357607f821691505b6020821081141561526757615266615345565b5b50919050565b615276826153a3565b810181811067ffffffffffffffff8211171561529557615294615374565b5b80604052505050565b60006152a9826151c5565b91507fffffffffffffffffffffffffffffffffffffffffffffffffffffffffffffffff8214156152dc576152db6152e7565b5b600182019050919050565b7f4e487b7100000000000000000000000000000000000000000000000000000000600052601160045260246000fd5b7f4e487b7100000000000000000000000000000000000000000000000000000000600052601260045260246000fd5b7f4e487b7100000000000000000000000000000000000000000000000000000000600052602260045260246000fd5b7f4e487b7100000000000000000000000000000000000000000000000000000000600052604160045260246000fd5b6000601f19601f8301169050919050565b7f4552433732313a2063616c6c6572206973206e6f7420746f6b656e206f776e6560008201527f72206f7220617070726f76656400000000000000000000000000000000000000602082015250565b7f4552433732313a207472616e7366657220746f206e6f6e20455243373231526560008201527f63656976657220696d706c656d656e7465720000000000000000000000000000602082015250565b7f4552433732313a207472616e736665722066726f6d20696e636f72726563742060008201527f6f776e6572000000000000000000000000000000000000000000000000000000602082015250565b7f4552433732313a20746f6b656e20616c7265616479206d696e74656400000000600082015250565b7f4552433732313a207472616e7366657220746f20746865207a65726f2061646460008201527f7265737300000000000000000000000000000000000000000000000000000000602082015250565b7f4552433732313a20617070726f766520746f2063616c6c657200000000000000600082015250565b7f696e636f7272656374207374616b6520616d6f756e7400000000000000000000600082015250565b7f4552433732313a2061646472657373207a65726f206973206e6f74206120766160008201527f6c6964206f776e65720000000000000000000000000000000000000000000000602082015250565b7f6e6f7420612064616f206d656d62657200000000000000000000000000000000600082015250565b7f4552433732313a206d696e7420746f20746865207a65726f2061646472657373600082015250565b7f696e636f72726563742070726f706f73616c2066656500000000000000000000600082015250565b7f7573657220616c726561647920766f7465640000000000000000000000000000600082015250565b7f646561646c696e65206578636565646564000000000000000000000000000000600082015250565b7f4552433732313a20696e76616c696420746f6b656e2049440000000000000000600082015250565b7f4552433732313a20617070726f76616c20746f2063757272656e74206f776e6560008201527f7200000000000000000000000000000000000000000000000000000000000000602082015250565b7f4552433732313a20617070726f76652063616c6c6572206973206e6f7420746f60008201527f6b656e206f776e6572206f7220617070726f76656420666f7220616c6c000000602082015250565b7f6e6f74206120656469746f720000000000000000000000000000000000000000600082015250565b7f70726f706f73616c20616c726561647920657865637574656400000000000000600082015250565b6157a98161515b565b81146157b457600080fd5b50565b6157c08161516d565b81146157cb57600080fd5b50565b6157d781615179565b81146157e257600080fd5b50565b6157ee816151c5565b81146157f957600080fd5b5056fea2646970667358221220fa9d6af1e5f72688088e54c251b780d7a8f8495c1948daa86c07131cc5219e5e64736f6c63430008040033",
  "linkReferences": {},
  "deployedLinkReferences": {}
}